{
	"data": {
		"bytecode": {
			"linkReferences": {},
			"object": "60806040526065600155601e60025f6101000a81548160ff021916908360ff1602179055505f6003556103e86004556803bd913e6c1df40000600555600160065f6101000a81548161ffff021916908361ffff1602179055506003600660026101000a81548160ff021916908360ff1602179055506064600660036101000a81548160ff021916908360ff160217905550600f600755600f60085f6101000a81548160ff021916908360ff1602179055505f600a5f6101000a81548160ff021916908315150217905550348015620000d5575f80fd5b50335f73ffffffffffffffffffffffffffffffffffffffff168173ffffffffffffffffffffffffffffffffffffffff16036200014a575f6040517f1e4fbdf7000000000000000000000000000000000000000000000000000000008152600401620001419190620002ea565b60405180910390fd5b6200015b81620001d860201b60201c565b50306040516200016b9062000299565b620001779190620002ea565b604051809103905ff08015801562000191573d5f803e3d5ffd5b50600a60016101000a81548173ffffffffffffffffffffffffffffffffffffffff021916908373ffffffffffffffffffffffffffffffffffffffff16021790555062000305565b5f805f9054906101000a900473ffffffffffffffffffffffffffffffffffffffff169050815f806101000a81548173ffffffffffffffffffffffffffffffffffffffff021916908373ffffffffffffffffffffffffffffffffffffffff1602179055508173ffffffffffffffffffffffffffffffffffffffff168173ffffffffffffffffffffffffffffffffffffffff167f8be0079c531659141344cd1fd0a4f28419497f9722a3daafe3b4186f6b6457e060405160405180910390a35050565b613fa680620042d883390190565b5f73ffffffffffffffffffffffffffffffffffffffff82169050919050565b5f620002d282620002a7565b9050919050565b620002e481620002c6565b82525050565b5f602082019050620002ff5f830184620002d9565b92915050565b613fc580620003135f395ff3fe6080604052600436106101db575f3560e01c80638da5cb5b11610101578063da04e72111610094578063f2fde38b11610063578063f2fde38b1461073f578063fdcf9d0714610767578063ffb75cab14610791578063ffc9896b146107cd57610234565b8063da04e72114610675578063e6c3e327146106b1578063eb91d37e146106ed578063ec72577c1461071757610234565b8063a6efe5f4116100d0578063a6efe5f4146105bb578063a9722cf3146105e5578063aae282e11461060f578063d8c484181461063957610234565b80638da5cb5b14610501578063a2309ff81461052b578063a32bf59714610555578063a345908f1461057f57610234565b806353d6fd5911610179578063681ce98a11610148578063681ce98a146104685780636a627842146104925780636baf226c146104ae578063715018a6146104eb57610234565b806353d6fd59146103b45780635d5e6bf6146103dc5780636088e93a14610404578063679f3ee11461042c57610234565b806323b7ed8b116101b557806323b7ed8b146102d85780632724d5911461031457806338e21cce1461033c5780633af32abf1461037857610234565b8063106ac31a14610238578063150b7a02146102745780631f85e3ca146102b057610234565b366102345734600d5f8073ffffffffffffffffffffffffffffffffffffffff1673ffffffffffffffffffffffffffffffffffffffff1681526020019081526020015f205f82825461022c9190612d85565b925050819055005b5f80fd5b348015610243575f80fd5b5061025e60048036038101906102599190612df7565b610809565b60405161026b9190612ed9565b60405180910390f35b34801561027f575f80fd5b5061029a60048036038101906102959190612fde565b61087b565b6040516102a7919061309c565b60405180910390f35b3480156102bb575f80fd5b506102d660048036038101906102d191906130ea565b6108d0565b005b3480156102e3575f80fd5b506102fe60048036038101906102f99190613115565b6108f4565b60405161030b919061314f565b60405180910390f35b34801561031f575f80fd5b5061033a60048036038101906103359190613115565b610909565b005b348015610347575f80fd5b50610362600480360381019061035d9190613115565b61099c565b60405161036f9190613177565b60405180910390f35b348015610383575f80fd5b5061039e60048036038101906103999190613115565b610a05565b6040516103ab9190613177565b60405180910390f35b3480156103bf575f80fd5b506103da60048036038101906103d59190613190565b610a5a565b005b3480156103e7575f80fd5b5061040260048036038101906103fd91906131ce565b610b81565b005b34801561040f575f80fd5b5061042a600480360381019061042591906131f9565b610e33565b005b348015610437575f80fd5b50610452600480360381019061044d9190613115565b610f8e565b60405161045f919061314f565b60405180910390f35b348015610473575f80fd5b5061047c611012565b604051610489919061314f565b60405180910390f35b6104ac60048036038101906104a79190613115565b611057565b005b3480156104b9575f80fd5b506104d460048036038101906104cf9190612df7565b611e25565b6040516104e2929190613237565b60405180910390f35b3480156104f6575f80fd5b506104ff611e6a565b005b34801561050c575f80fd5b50610515611e7d565b604051610522919061326d565b60405180910390f35b348015610536575f80fd5b5061053f611ea4565b60405161054c919061314f565b60405180910390f35b348015610560575f80fd5b50610569611eb8565b6040516105769190613295565b60405180910390f35b34801561058a575f80fd5b506105a560048036038101906105a091906131f9565b611ece565b6040516105b2919061326d565b60405180910390f35b3480156105c6575f80fd5b506105cf611f46565b6040516105dc919061314f565b60405180910390f35b3480156105f0575f80fd5b506105f9611f4c565b6040516106069190613177565b60405180910390f35b34801561061a575f80fd5b50610623611f5e565b604051610630919061326d565b60405180910390f35b348015610644575f80fd5b5061065f600480360381019061065a91906131ce565b611f87565b60405161066c9190613177565b60405180910390f35b348015610680575f80fd5b5061069b60048036038101906106969190613115565b6120f1565b6040516106a8919061314f565b60405180910390f35b3480156106bc575f80fd5b506106d760048036038101906106d291906132ae565b612106565b6040516106e49190613177565b60405180910390f35b3480156106f8575f80fd5b50610701612194565b60405161070e919061314f565b60405180910390f35b348015610722575f80fd5b5061073d600480360381019061073891906131ce565b61219d565b005b34801561074a575f80fd5b5061076560048036038101906107609190613115565b612399565b005b348015610772575f80fd5b5061077b61241d565b604051610788919061314f565b60405180910390f35b34801561079c575f80fd5b506107b760048036038101906107b29190613115565b612433565b6040516107c491906133e3565b60405180910390f35b3480156107d8575f80fd5b506107f360048036038101906107ee9190613115565b612501565b60405161080091906134d7565b60405180910390f35b606060105f8361ffff1661ffff1681526020019081526020015f2060010180548060200260200160405190810160405280929190818152602001828054801561086f57602002820191905f5260205f20905b81548152602001906001019080831161085b575b50505050509050919050565b5f7f88d61eb53b4243ce91ebf80a15234aaa7cf73e235c63450c3c7f00ee07cd11418686864287876040516108b596959493929190613551565b60405180910390a163150b7a0260e01b905095945050505050565b6108d861260b565b80600a5f6101000a81548160ff02191690831515021790555050565b600d602052805f5260405f205f915090505481565b61091161260b565b600a60019054906101000a900473ffffffffffffffffffffffffffffffffffffffff1673ffffffffffffffffffffffffffffffffffffffff1663f2fde38b826040518263ffffffff1660e01b815260040161096c919061326d565b5f604051808303815f87803b158015610983575f80fd5b505af1158015610995573d5f803e3d5ffd5b5050505050565b5f80600b5f8473ffffffffffffffffffffffffffffffffffffffff1673ffffffffffffffffffffffffffffffffffffffff1681526020019081526020015f206001015f9054906101000a900460ff1660ff16036109fb575f9050610a00565b600190505b919050565b5f600e5f8373ffffffffffffffffffffffffffffffffffffffff1673ffffffffffffffffffffffffffffffffffffffff1681526020019081526020015f206001015f9054906101000a900460ff169050919050565b610a6261260b565b600660039054906101000a900460ff1660ff16600660049054906101000a900460ff1660ff161115610ac9576040517f08c379a0000000000000000000000000000000000000000000000000000000008152600401610ac090613605565b60405180910390fd5b80600e5f8473ffffffffffffffffffffffffffffffffffffffff1673ffffffffffffffffffffffffffffffffffffffff1681526020019081526020015f206001015f6101000a81548160ff02191690831515021790555080610b46576001600660049054906101000a900460ff16610b419190613623565b610b63565b6001600660049054906101000a900460ff16610b629190613657565b5b600660046101000a81548160ff021916908360ff1602179055505050565b3373ffffffffffffffffffffffffffffffffffffffff16600a60019054906101000a900473ffffffffffffffffffffffffffffffffffffffff1673ffffffffffffffffffffffffffffffffffffffff16636352211e836040518263ffffffff1660e01b8152600401610bf3919061314f565b602060405180830381865afa158015610c0e573d5f803e3d5ffd5b505050506040513d601f19601f82011682018060405250810190610c32919061369f565b73ffffffffffffffffffffffffffffffffffffffff1614610c88576040517f08c379a0000000000000000000000000000000000000000000000000000000008152600401610c7f90613714565b60405180910390fd5b5f60125f3373ffffffffffffffffffffffffffffffffffffffff1673ffffffffffffffffffffffffffffffffffffffff1681526020019081526020015f205411610d07576040517f08c379a0000000000000000000000000000000000000000000000000000000008152600401610cfe9061377c565b60405180910390fd5b5f600a60019054906101000a900473ffffffffffffffffffffffffffffffffffffffff1673ffffffffffffffffffffffffffffffffffffffff166353bbc5ea8360125f3373ffffffffffffffffffffffffffffffffffffffff1673ffffffffffffffffffffffffffffffffffffffff1681526020019081526020015f20546040518363ffffffff1660e01b8152600401610da2929190613237565b6020604051808303815f875af1158015610dbe573d5f803e3d5ffd5b505050506040513d601f19601f82011682018060405250810190610de291906137ae565b905080610ded575f80fd5b5f60125f3373ffffffffffffffffffffffffffffffffffffffff1673ffffffffffffffffffffffffffffffffffffffff1681526020019081526020015f20819055505050565b610e3b61260b565b3073ffffffffffffffffffffffffffffffffffffffff168273ffffffffffffffffffffffffffffffffffffffff16636352211e836040518263ffffffff1660e01b8152600401610e8b919061314f565b602060405180830381865afa158015610ea6573d5f803e3d5ffd5b505050506040513d601f19601f82011682018060405250810190610eca919061369f565b73ffffffffffffffffffffffffffffffffffffffff1614610f20576040517f08c379a0000000000000000000000000000000000000000000000000000000008152600401610f1790613823565b60405180910390fd5b8173ffffffffffffffffffffffffffffffffffffffff166342842e0e3033846040518463ffffffff1660e01b8152600401610f5d93929190613841565b5f604051808303815f87803b158015610f74575f80fd5b505af1158015610f86573d5f803e3d5ffd5b505050505050565b5f600c5f8373ffffffffffffffffffffffffffffffffffffffff1673ffffffffffffffffffffffffffffffffffffffff1681526020019081526020015f206001015f8073ffffffffffffffffffffffffffffffffffffffff1673ffffffffffffffffffffffffffffffffffffffff1681526020019081526020015f20549050919050565b5f806003540361102a5765886c98b760009050611054565b6064606e60035461103b9190613876565b61104591906138e4565b6003546110529190612d85565b505b90565b5f8190505f600e5f3373ffffffffffffffffffffffffffffffffffffffff1673ffffffffffffffffffffffffffffffffffffffff1681526020019081526020015f206001015f9054906101000a900460ff166110ba576110b5612194565b6110bc565b5f5b905060025f9054906101000a900460ff1660ff16600b5f3373ffffffffffffffffffffffffffffffffffffffff1673ffffffffffffffffffffffffffffffffffffffff1681526020019081526020015f206001015f9054906101000a900460ff1660ff1610611160576040517f08c379a00000000000000000000000000000000000000000000000000000000081526004016111579061395e565b60405180910390fd5b8034146111a2576040517f08c379a0000000000000000000000000000000000000000000000000000000008152600401611199906139c6565b60405180910390fd5b6127116001541080156111c05750600a5f9054906101000a900460ff165b6111ff576040517f08c379a00000000000000000000000000000000000000000000000000000000081526004016111f690613a2e565b60405180910390fd5b5f73ffffffffffffffffffffffffffffffffffffffff168273ffffffffffffffffffffffffffffffffffffffff16146112b35761123b8261099c565b801561127357503373ffffffffffffffffffffffffffffffffffffffff168273ffffffffffffffffffffffffffffffffffffffff1614155b6112b2576040517f08c379a00000000000000000000000000000000000000000000000000000000081526004016112a990613a96565b60405180910390fd5b5b5f60015490505f60065f9054906101000a900461ffff169050600e5f3373ffffffffffffffffffffffffffffffffffffffff1673ffffffffffffffffffffffffffffffffffffffff1681526020019081526020015f206001015f9054906101000a900460ff16611b9a575f606460085f9054906101000a900460ff1660ff168561133d9190613876565b61134791906138e4565b90505f60646007548661135a9190613876565b61136491906138e4565b9050600a60019054906101000a900473ffffffffffffffffffffffffffffffffffffffff1673ffffffffffffffffffffffffffffffffffffffff1663cd279c7c33866113af88612692565b6040518463ffffffff1660e01b81526004016113cd93929190613b1e565b5f604051808303815f87803b1580156113e4575f80fd5b505af11580156113f6573d5f803e3d5ffd5b5050505061140483826126c3565b61140e8385612736565b6001805f82825461141f9190612d85565b925050819055506001600b5f3373ffffffffffffffffffffffffffffffffffffffff1673ffffffffffffffffffffffffffffffffffffffff1681526020019081526020015f206001015f8282829054906101000a900460ff166114829190613657565b92506101000a81548160ff021916908360ff160217905550600160095f8282546114ac9190612d85565b925050819055505f73ffffffffffffffffffffffffffffffffffffffff168673ffffffffffffffffffffffffffffffffffffffff16146117c6575f600b5f8873ffffffffffffffffffffffffffffffffffffffff1673ffffffffffffffffffffffffffffffffffffffff1681526020019081526020015f205f015490506001600b5f8973ffffffffffffffffffffffffffffffffffffffff1673ffffffffffffffffffffffffffffffffffffffff1681526020019081526020015f205f015f8282546115789190612d85565b9250508190555082600c5f8973ffffffffffffffffffffffffffffffffffffffff1673ffffffffffffffffffffffffffffffffffffffff1681526020019081526020015f206001015f8073ffffffffffffffffffffffffffffffffffffffff1673ffffffffffffffffffffffffffffffffffffffff1681526020019081526020015f205f8282546116099190612d85565b9250508190555033600c5f8973ffffffffffffffffffffffffffffffffffffffff1673ffffffffffffffffffffffffffffffffffffffff1681526020019081526020015f206002015f8381526020019081526020015f205f6101000a81548173ffffffffffffffffffffffffffffffffffffffff021916908373ffffffffffffffffffffffffffffffffffffffff16021790555086600c5f3373ffffffffffffffffffffffffffffffffffffffff1673ffffffffffffffffffffffffffffffffffffffff1681526020019081526020015f205f015f6101000a81548173ffffffffffffffffffffffffffffffffffffffff021916908373ffffffffffffffffffffffffffffffffffffffff16021790555060055460125f8973ffffffffffffffffffffffffffffffffffffffff1673ffffffffffffffffffffffffffffffffffffffff1681526020019081526020015f205f8282546117689190612d85565b9250508190555060055460125f3373ffffffffffffffffffffffffffffffffffffffff1673ffffffffffffffffffffffffffffffffffffffff1681526020019081526020015f205f8282546117bd9190612d85565b92505081905550505b5f73ffffffffffffffffffffffffffffffffffffffff168673ffffffffffffffffffffffffffffffffffffffff1614801561188b57505f73ffffffffffffffffffffffffffffffffffffffff16600c5f3373ffffffffffffffffffffffffffffffffffffffff1673ffffffffffffffffffffffffffffffffffffffff1681526020019081526020015f205f015f9054906101000a900473ffffffffffffffffffffffffffffffffffffffff1673ffffffffffffffffffffffffffffffffffffffff1614155b15611a2d57600c5f3373ffffffffffffffffffffffffffffffffffffffff1673ffffffffffffffffffffffffffffffffffffffff1681526020019081526020015f205f015f9054906101000a900473ffffffffffffffffffffffffffffffffffffffff16955081600c5f8873ffffffffffffffffffffffffffffffffffffffff1673ffffffffffffffffffffffffffffffffffffffff1681526020019081526020015f206001015f8073ffffffffffffffffffffffffffffffffffffffff1673ffffffffffffffffffffffffffffffffffffffff1681526020019081526020015f205f82825461197b9190612d85565b9250508190555060055460125f8873ffffffffffffffffffffffffffffffffffffffff1673ffffffffffffffffffffffffffffffffffffffff1681526020019081526020015f205f8282546119d09190612d85565b9250508190555060055460125f3373ffffffffffffffffffffffffffffffffffffffff1673ffffffffffffffffffffffffffffffffffffffff1681526020019081526020015f205f828254611a259190612d85565b925050819055505b5f60405180606001604052808681526020018561ffff168152602001348152509050600b5f3373ffffffffffffffffffffffffffffffffffffffff1673ffffffffffffffffffffffffffffffffffffffff1681526020019081526020015f2060020181908060018154018082558091505060019003905f5260205f2090600302015f909190919091505f820151815f01556020820151816001015f6101000a81548161ffff021916908361ffff1602179055506040820151816002015550508186611af89190613b5a565b95505f73ffffffffffffffffffffffffffffffffffffffff168773ffffffffffffffffffffffffffffffffffffffff1614611b3e578286611b399190613b5a565b611b40565b855b600d5f8073ffffffffffffffffffffffffffffffffffffffff1673ffffffffffffffffffffffffffffffffffffffff1681526020019081526020015f205f828254611b8b9190612d85565b92505081905550505050611d9e565b600a60019054906101000a900473ffffffffffffffffffffffffffffffffffffffff1673ffffffffffffffffffffffffffffffffffffffff1663cd279c7c3384611be386612692565b6040518463ffffffff1660e01b8152600401611c0193929190613b1e565b5f604051808303815f87803b158015611c18575f80fd5b505af1158015611c2a573d5f803e3d5ffd5b50505050611c388183612736565b6001805f828254611c499190612d85565b925050819055506001600b5f3373ffffffffffffffffffffffffffffffffffffffff1673ffffffffffffffffffffffffffffffffffffffff1681526020019081526020015f206001015f8282829054906101000a900460ff16611cac9190613657565b92506101000a81548160ff021916908360ff160217905550600160095f828254611cd69190612d85565b925050819055505f60405180606001604052808481526020018361ffff168152602001348152509050600b5f3373ffffffffffffffffffffffffffffffffffffffff1673ffffffffffffffffffffffffffffffffffffffff1681526020019081526020015f2060020181908060018154018082558091505060019003905f5260205f2090600302015f909190919091505f820151815f01556020820151816001015f6101000a81548161ffff021916908361ffff160217905550604082015181600201555050505b60045460095410611e1e57611dcf8160105f8461ffff1661ffff1681526020019081526020015f2060020154612780565b5f600981905550600160065f8282829054906101000a900461ffff16611df59190613b8d565b92506101000a81548161ffff021916908361ffff160217905550611e17611012565b6003819055505b5050505050565b5f8060105f8461ffff1661ffff1681526020019081526020015f206002015460105f8561ffff1661ffff1681526020019081526020015f206003015491509150915091565b611e7261260b565b611e7b5f612891565b565b5f805f9054906101000a900473ffffffffffffffffffffffffffffffffffffffff16905090565b5f60018054611eb39190613b5a565b905090565b5f60065f9054906101000a900461ffff16905090565b5f600c5f8473ffffffffffffffffffffffffffffffffffffffff1673ffffffffffffffffffffffffffffffffffffffff1681526020019081526020015f206002015f8381526020019081526020015f205f9054906101000a900473ffffffffffffffffffffffffffffffffffffffff16905092915050565b60095481565b600a5f9054906101000a900460ff1681565b5f600a60019054906101000a900473ffffffffffffffffffffffffffffffffffffffff16905090565b5f81600c5f3373ffffffffffffffffffffffffffffffffffffffff1673ffffffffffffffffffffffffffffffffffffffff1681526020019081526020015f206001015f8073ffffffffffffffffffffffffffffffffffffffff1673ffffffffffffffffffffffffffffffffffffffff1681526020019081526020015f2054101561200f575f80fd5b5f3373ffffffffffffffffffffffffffffffffffffffff166108fc8490811502906040515f60405180830381858888f19350505050905080156120e75782600c5f3373ffffffffffffffffffffffffffffffffffffffff1673ffffffffffffffffffffffffffffffffffffffff1681526020019081526020015f206001015f8073ffffffffffffffffffffffffffffffffffffffff1673ffffffffffffffffffffffffffffffffffffffff1681526020019081526020015f205f8282546120d69190613b5a565b9250508190555060019150506120ec565b5f9150505b919050565b6012602052805f5260405f205f915090505481565b5f61210f61260b565b82600d5f8073ffffffffffffffffffffffffffffffffffffffff1673ffffffffffffffffffffffffffffffffffffffff1681526020019081526020015f20541015612158575f80fd5b8173ffffffffffffffffffffffffffffffffffffffff166108fc8490811502906040515f60405180830381858888f19350505050905092915050565b5f600354905090565b3373ffffffffffffffffffffffffffffffffffffffff16600a60019054906101000a900473ffffffffffffffffffffffffffffffffffffffff1673ffffffffffffffffffffffffffffffffffffffff16636352211e836040518263ffffffff1660e01b815260040161220f919061314f565b602060405180830381865afa15801561222a573d5f803e3d5ffd5b505050506040513d601f19601f8201168201806040525081019061224e919061369f565b73ffffffffffffffffffffffffffffffffffffffff16146122a4576040517f08c379a000000000000000000000000000000000000000000000000000000000815260040161229b90613c0c565b60405180910390fd5b5f60115f8381526020019081526020015f2054116122f7576040517f08c379a00000000000000000000000000000000000000000000000000000000081526004016122ee90613c74565b60405180910390fd5b5f3373ffffffffffffffffffffffffffffffffffffffff166108fc60115f8581526020019081526020015f205490811502906040515f60405180830381858888f1935050505090508061237f576040517f08c379a000000000000000000000000000000000000000000000000000000000815260040161237690613cdc565b60405180910390fd5b5f60115f8481526020019081526020015f20819055505050565b6123a161260b565b5f73ffffffffffffffffffffffffffffffffffffffff168173ffffffffffffffffffffffffffffffffffffffff1603612411575f6040517f1e4fbdf7000000000000000000000000000000000000000000000000000000008152600401612408919061326d565b60405180910390fd5b61241a81612891565b50565b5f60015461271161242e9190613b5a565b905090565b6060600b5f8373ffffffffffffffffffffffffffffffffffffffff1673ffffffffffffffffffffffffffffffffffffffff1681526020019081526020015f20600201805480602002602001604051908101604052809291908181526020015f905b828210156124f6578382905f5260205f2090600302016040518060600160405290815f8201548152602001600182015f9054906101000a900461ffff1661ffff1661ffff16815260200160028201548152505081526020019060010190612494565b505050509050919050565b612509612d2d565b600b5f8373ffffffffffffffffffffffffffffffffffffffff1673ffffffffffffffffffffffffffffffffffffffff1681526020019081526020015f206040518060600160405290815f8201548152602001600182015f9054906101000a900460ff1660ff1660ff16815260200160028201805480602002602001604051908101604052809291908181526020015f905b828210156125fc578382905f5260205f2090600302016040518060600160405290815f8201548152602001600182015f9054906101000a900461ffff1661ffff1661ffff1681526020016002820154815250508152602001906001019061259a565b50505050815250509050919050565b612613612952565b73ffffffffffffffffffffffffffffffffffffffff16612631611e7d565b73ffffffffffffffffffffffffffffffffffffffff161461269057612654612952565b6040517f118cdaa7000000000000000000000000000000000000000000000000000000008152600401612687919061326d565b60405180910390fd5b565b606061269d82612959565b6040516020016126ad9190613d80565b6040516020818303038152906040529050919050565b5f6003541115612732578060105f8461ffff1661ffff1681526020019081526020015f206002015f8282546126f89190612d85565b925050819055508060105f8461ffff1661ffff1681526020019081526020015f206003015f82825461272a9190612d85565b925050819055505b5050565b5f600354111561277c575f612749612a23565b90508160105f8561ffff1661ffff1681526020019081526020015f205f015f8381526020019081526020015f2081905550505b5050565b5f5b600660029054906101000a900460ff1660ff168110156128195760105f8461ffff1661ffff1681526020019081526020015f2060010160105f8561ffff1661ffff1681526020019081526020015f205f015f8381526020019081526020015f2054908060018154018082558091505060019003905f5260205f20015f9091909190915055808061281190613db4565b915050612782565b5061288d828260105f8661ffff1661ffff1681526020019081526020015f2060010180548060200260200160405190810160405280929190818152602001828054801561288357602002820191905f5260205f20905b81548152602001906001019080831161286f575b5050505050612a76565b5050565b5f805f9054906101000a900473ffffffffffffffffffffffffffffffffffffffff169050815f806101000a81548173ffffffffffffffffffffffffffffffffffffffff021916908373ffffffffffffffffffffffffffffffffffffffff1602179055508173ffffffffffffffffffffffffffffffffffffffff168173ffffffffffffffffffffffffffffffffffffffff167f8be0079c531659141344cd1fd0a4f28419497f9722a3daafe3b4186f6b6457e060405160405180910390a35050565b5f33905090565b60605f600161296784612bdc565b0190505f8167ffffffffffffffff81111561298557612984613dfb565b5b6040519080825280601f01601f1916602001820160405280156129b75781602001600182028036833780820191505090505b5090505f82602001820190505b600115612a18578080600190039150507f3031323334353637383961626364656600000000000000000000000000000000600a86061a8153600a8581612a0d57612a0c6138b7565b5b0494505f85036129c4575b819350505050919050565b5f806001543342604051602001612a3c93929190613e8d565b604051602081830303815290604052805190602001205f1c9050600160045482612a669190613ec9565b612a709190612d85565b91505090565b5f600660029054906101000a900460ff1660ff1683612a9591906138e4565b90505f5b8251811015612bd5575f838281518110612ab657612ab5613ef9565b5b602002602001015190508260115f8381526020019081526020015f205f828254612ae09190612d85565b92505081905550600a60019054906101000a900473ffffffffffffffffffffffffffffffffffffffff1673ffffffffffffffffffffffffffffffffffffffff166353bbc5ea8269054b40b1f852bda000006040518363ffffffff1660e01b8152600401612b4e929190613f68565b6020604051808303815f875af1158015612b6a573d5f803e3d5ffd5b505050506040513d601f19601f82011682018060405250810190612b8e91906137ae565b508260105f8861ffff1661ffff1681526020019081526020015f206003015f828254612bba9190613b5a565b92505081905550508080612bcd90613db4565b915050612a99565b5050505050565b5f805f90507a184f03e93ff9f4daa797ed6e38ed64bf6a1f0100000000000000008310612c38577a184f03e93ff9f4daa797ed6e38ed64bf6a1f0100000000000000008381612c2e57612c2d6138b7565b5b0492506040810190505b6d04ee2d6d415b85acef81000000008310612c75576d04ee2d6d415b85acef81000000008381612c6b57612c6a6138b7565b5b0492506020810190505b662386f26fc100008310612ca457662386f26fc100008381612c9a57612c996138b7565b5b0492506010810190505b6305f5e1008310612ccd576305f5e1008381612cc357612cc26138b7565b5b0492506008810190505b6127108310612cf2576127108381612ce857612ce76138b7565b5b0492506004810190505b60648310612d155760648381612d0b57612d0a6138b7565b5b0492506002810190505b600a8310612d24576001810190505b80915050919050565b60405180606001604052805f81526020015f60ff168152602001606081525090565b5f819050919050565b7f4e487b71000000000000000000000000000000000000000000000000000000005f52601160045260245ffd5b5f612d8f82612d4f565b9150612d9a83612d4f565b9250828201905080821115612db257612db1612d58565b5b92915050565b5f80fd5b5f80fd5b5f61ffff82169050919050565b612dd681612dc0565b8114612de0575f80fd5b50565b5f81359050612df181612dcd565b92915050565b5f60208284031215612e0c57612e0b612db8565b5b5f612e1984828501612de3565b91505092915050565b5f81519050919050565b5f82825260208201905092915050565b5f819050602082019050919050565b612e5481612d4f565b82525050565b5f612e658383612e4b565b60208301905092915050565b5f602082019050919050565b5f612e8782612e22565b612e918185612e2c565b9350612e9c83612e3c565b805f5b83811015612ecc578151612eb38882612e5a565b9750612ebe83612e71565b925050600181019050612e9f565b5085935050505092915050565b5f6020820190508181035f830152612ef18184612e7d565b905092915050565b5f73ffffffffffffffffffffffffffffffffffffffff82169050919050565b5f612f2282612ef9565b9050919050565b612f3281612f18565b8114612f3c575f80fd5b50565b5f81359050612f4d81612f29565b92915050565b612f5c81612d4f565b8114612f66575f80fd5b50565b5f81359050612f7781612f53565b92915050565b5f80fd5b5f80fd5b5f80fd5b5f8083601f840112612f9e57612f9d612f7d565b5b8235905067ffffffffffffffff811115612fbb57612fba612f81565b5b602083019150836001820283011115612fd757612fd6612f85565b5b9250929050565b5f805f805f60808688031215612ff757612ff6612db8565b5b5f61300488828901612f3f565b955050602061301588828901612f3f565b945050604061302688828901612f69565b935050606086013567ffffffffffffffff81111561304757613046612dbc565b5b61305388828901612f89565b92509250509295509295909350565b5f7fffffffff0000000000000000000000000000000000000000000000000000000082169050919050565b61309681613062565b82525050565b5f6020820190506130af5f83018461308d565b92915050565b5f8115159050919050565b6130c9816130b5565b81146130d3575f80fd5b50565b5f813590506130e4816130c0565b92915050565b5f602082840312156130ff576130fe612db8565b5b5f61310c848285016130d6565b91505092915050565b5f6020828403121561312a57613129612db8565b5b5f61313784828501612f3f565b91505092915050565b61314981612d4f565b82525050565b5f6020820190506131625f830184613140565b92915050565b613171816130b5565b82525050565b5f60208201905061318a5f830184613168565b92915050565b5f80604083850312156131a6576131a5612db8565b5b5f6131b385828601612f3f565b92505060206131c4858286016130d6565b9150509250929050565b5f602082840312156131e3576131e2612db8565b5b5f6131f084828501612f69565b91505092915050565b5f806040838503121561320f5761320e612db8565b5b5f61321c85828601612f3f565b925050602061322d85828601612f69565b9150509250929050565b5f60408201905061324a5f830185613140565b6132576020830184613140565b9392505050565b61326781612f18565b82525050565b5f6020820190506132805f83018461325e565b92915050565b61328f81612dc0565b82525050565b5f6020820190506132a85f830184613286565b92915050565b5f80604083850312156132c4576132c3612db8565b5b5f6132d185828601612f69565b92505060206132e285828601612f3f565b9150509250929050565b5f81519050919050565b5f82825260208201905092915050565b5f819050602082019050919050565b61331e81612dc0565b82525050565b606082015f8201516133385f850182612e4b565b50602082015161334b6020850182613315565b50604082015161335e6040850182612e4b565b50505050565b5f61336f8383613324565b60608301905092915050565b5f602082019050919050565b5f613391826132ec565b61339b81856132f6565b93506133a683613306565b805f5b838110156133d65781516133bd8882613364565b97506133c88361337b565b9250506001810190506133a9565b5085935050505092915050565b5f6020820190508181035f8301526133fb8184613387565b905092915050565b5f60ff82169050919050565b61341881613403565b82525050565b5f82825260208201905092915050565b5f613438826132ec565b613442818561341e565b935061344d83613306565b805f5b8381101561347d5781516134648882613364565b975061346f8361337b565b925050600181019050613450565b5085935050505092915050565b5f606083015f83015161349f5f860182612e4b565b5060208301516134b2602086018261340f565b50604083015184820360408601526134ca828261342e565b9150508091505092915050565b5f6020820190508181035f8301526134ef818461348a565b905092915050565b5f82825260208201905092915050565b828183375f83830152505050565b5f601f19601f8301169050919050565b5f61353083856134f7565b935061353d838584613507565b61354683613515565b840190509392505050565b5f60a0820190506135645f83018961325e565b613571602083018861325e565b61357e6040830187613140565b61358b6060830186613140565b818103608083015261359e818486613525565b9050979650505050505050565b5f82825260208201905092915050565b7f776c2073706f7473206f766572000000000000000000000000000000000000005f82015250565b5f6135ef600d836135ab565b91506135fa826135bb565b602082019050919050565b5f6020820190508181035f83015261361c816135e3565b9050919050565b5f61362d82613403565b915061363883613403565b9250828203905060ff81111561365157613650612d58565b5b92915050565b5f61366182613403565b915061366c83613403565b9250828201905060ff81111561368557613684612d58565b5b92915050565b5f8151905061369981612f29565b92915050565b5f602082840312156136b4576136b3612db8565b5b5f6136c18482850161368b565b91505092915050565b7f6e6f74206f776e6572206f6620696420746f2062696e640000000000000000005f82015250565b5f6136fe6017836135ab565b9150613709826136ca565b602082019050919050565b5f6020820190508181035f83015261372b816136f2565b9050919050565b7f616c726561647920626f756e64000000000000000000000000000000000000005f82015250565b5f613766600d836135ab565b915061377182613732565b602082019050919050565b5f6020820190508181035f8301526137938161375a565b9050919050565b5f815190506137a8816130c0565b92915050565b5f602082840312156137c3576137c2612db8565b5b5f6137d08482850161379a565b91505092915050565b7f6e6f7420726563696576656400000000000000000000000000000000000000005f82015250565b5f61380d600c836135ab565b9150613818826137d9565b602082019050919050565b5f6020820190508181035f83015261383a81613801565b9050919050565b5f6060820190506138545f83018661325e565b613861602083018561325e565b61386e6040830184613140565b949350505050565b5f61388082612d4f565b915061388b83612d4f565b925082820261389981612d4f565b915082820484148315176138b0576138af612d58565b5b5092915050565b7f4e487b71000000000000000000000000000000000000000000000000000000005f52601260045260245ffd5b5f6138ee82612d4f565b91506138f983612d4f565b925082613909576139086138b7565b5b828204905092915050565b7f6d696e74206c696d6974207265616368656400000000000000000000000000005f82015250565b5f6139486012836135ab565b915061395382613914565b602082019050919050565b5f6020820190508181035f8301526139758161393c565b9050919050565b7f696e636f7272656374206d696e742066656520616d6f756e74000000000000005f82015250565b5f6139b06019836135ab565b91506139bb8261397c565b602082019050919050565b5f6020820190508181035f8301526139dd816139a4565b9050919050565b7f6d696e74206f766572206f72206e6f74207374617274656400000000000000005f82015250565b5f613a186018836135ab565b9150613a23826139e4565b602082019050919050565b5f6020820190508181035f830152613a4581613a0c565b9050919050565b7f72656665726572206d757374206d696e742066697273740000000000000000005f82015250565b5f613a806017836135ab565b9150613a8b82613a4c565b602082019050919050565b5f6020820190508181035f830152613aad81613a74565b9050919050565b5f81519050919050565b5f5b83811015613adb578082015181840152602081019050613ac0565b5f8484015250505050565b5f613af082613ab4565b613afa81856135ab565b9350613b0a818560208601613abe565b613b1381613515565b840191505092915050565b5f606082019050613b315f83018661325e565b613b3e6020830185613140565b8181036040830152613b508184613ae6565b9050949350505050565b5f613b6482612d4f565b9150613b6f83612d4f565b9250828203905081811115613b8757613b86612d58565b5b92915050565b5f613b9782612dc0565b9150613ba283612dc0565b9250828201905061ffff811115613bbc57613bbb612d58565b5b92915050565b7f6e6f74206f776e6572206f6620696420746f20636c61696d00000000000000005f82015250565b5f613bf66018836135ab565b9150613c0182613bc2565b602082019050919050565b5f6020820190508181035f830152613c2381613bea565b9050919050565b7f616c72656164792077697468647261776e0000000000000000000000000000005f82015250565b5f613c5e6011836135ab565b9150613c6982613c2a565b602082019050919050565b5f6020820190508181035f830152613c8b81613c52565b9050919050565b7f30780000000000000000000000000000000000000000000000000000000000005f82015250565b5f613cc66002836135ab565b9150613cd182613c92565b602082019050919050565b5f6020820190508181035f830152613cf381613cba565b9050919050565b7f2f6a736f6e2f0000000000000000000000000000000000000000000000000000815250565b5f81905092915050565b5f613d3482613ab4565b613d3e8185613d20565b9350613d4e818560208601613abe565b80840191505092915050565b7f2e6a736f6e000000000000000000000000000000000000000000000000000000815250565b5f613d8a82613cfa565b600682019150613d9a8284613d2a565b9150613da582613d5a565b60058201915081905092915050565b5f613dbe82612d4f565b91507fffffffffffffffffffffffffffffffffffffffffffffffffffffffffffffffff8203613df057613def612d58565b5b600182019050919050565b7f4e487b71000000000000000000000000000000000000000000000000000000005f52604160045260245ffd5b5f819050919050565b613e42613e3d82612d4f565b613e28565b82525050565b5f8160601b9050919050565b5f613e5e82613e48565b9050919050565b5f613e6f82613e54565b9050919050565b613e87613e8282612f18565b613e65565b82525050565b5f613e988286613e31565b602082019150613ea88285613e76565b601482019150613eb88284613e31565b602082019150819050949350505050565b5f613ed382612d4f565b9150613ede83612d4f565b925082613eee57613eed6138b7565b5b828206905092915050565b7f4e487b71000000000000000000000000000000000000000000000000000000005f52603260045260245ffd5b5f819050919050565b5f819050919050565b5f613f52613f4d613f4884613f26565b613f2f565b612d4f565b9050919050565b613f6281613f38565b82525050565b5f604082019050613f7b5f830185613140565b613f886020830184613f59565b939250505056fea264697066735822122087cc16e9d20ec38aefcce202cc4dbf401863720c6ef0faa4c0f64ea8f678df5164736f6c634300081400336080604052612710600a55600a546a1c89a8bf5e9e063280000062000025919062000437565b600b5534801562000034575f80fd5b5060405162003fa638038062003fa683398181016040528101906200005a9190620004d3565b806040518060400160405280601881526020017f424f4f4253204f4620424954434f494e20544553544e455400000000000000008152506040518060400160405280600881526020017f424f422054455354000000000000000000000000000000000000000000000000815250815f9081620000d791906200075e565b508060019081620000e991906200075e565b5050505f73ffffffffffffffffffffffffffffffffffffffff168173ffffffffffffffffffffffffffffffffffffffff16036200015f575f6040517f1e4fbdf700000000000000000000000000000000000000000000000000000000815260040162000156919062000853565b60405180910390fd5b62000170816200018c60201b60201c565b5062000185816102b26200024f60201b60201c565b50620008f9565b5f60075f9054906101000a900473ffffffffffffffffffffffffffffffffffffffff1690508160075f6101000a81548173ffffffffffffffffffffffffffffffffffffffff021916908373ffffffffffffffffffffffffffffffffffffffff1602179055508173ffffffffffffffffffffffffffffffffffffffff168173ffffffffffffffffffffffffffffffffffffffff167f8be0079c531659141344cd1fd0a4f28419497f9722a3daafe3b4186f6b6457e060405160405180910390a35050565b5f62000260620003f860201b60201c565b6bffffffffffffffffffffffff16905080826bffffffffffffffffffffffff161115620002c85781816040517f6f483d09000000000000000000000000000000000000000000000000000000008152600401620002bf929190620008ce565b60405180910390fd5b5f73ffffffffffffffffffffffffffffffffffffffff168373ffffffffffffffffffffffffffffffffffffffff16036200033b575f6040517fb6d9900a00000000000000000000000000000000000000000000000000000000815260040162000332919062000853565b60405180910390fd5b60405180604001604052808473ffffffffffffffffffffffffffffffffffffffff168152602001836bffffffffffffffffffffffff1681525060085f820151815f015f6101000a81548173ffffffffffffffffffffffffffffffffffffffff021916908373ffffffffffffffffffffffffffffffffffffffff1602179055506020820151815f0160146101000a8154816bffffffffffffffffffffffff02191690836bffffffffffffffffffffffff160217905550905050505050565b5f612710905090565b5f819050919050565b7f4e487b71000000000000000000000000000000000000000000000000000000005f52601260045260245ffd5b5f620004438262000401565b9150620004508362000401565b9250826200046357620004626200040a565b5b828204905092915050565b5f80fd5b5f73ffffffffffffffffffffffffffffffffffffffff82169050919050565b5f6200049d8262000472565b9050919050565b620004af8162000491565b8114620004ba575f80fd5b50565b5f81519050620004cd81620004a4565b92915050565b5f60208284031215620004eb57620004ea6200046e565b5b5f620004fa84828501620004bd565b91505092915050565b5f81519050919050565b7f4e487b71000000000000000000000000000000000000000000000000000000005f52604160045260245ffd5b7f4e487b71000000000000000000000000000000000000000000000000000000005f52602260045260245ffd5b5f60028204905060018216806200057f57607f821691505b6020821081036200059557620005946200053a565b5b50919050565b5f819050815f5260205f209050919050565b5f6020601f8301049050919050565b5f82821b905092915050565b5f60088302620005f97fffffffffffffffffffffffffffffffffffffffffffffffffffffffffffffffff82620005bc565b620006058683620005bc565b95508019841693508086168417925050509392505050565b5f819050919050565b5f62000646620006406200063a8462000401565b6200061d565b62000401565b9050919050565b5f819050919050565b620006618362000626565b6200067962000670826200064d565b848454620005c8565b825550505050565b5f90565b6200068f62000681565b6200069c81848462000656565b505050565b5b81811015620006c357620006b75f8262000685565b600181019050620006a2565b5050565b601f8211156200071257620006dc816200059b565b620006e784620005ad565b81016020851015620006f7578190505b6200070f6200070685620005ad565b830182620006a1565b50505b505050565b5f82821c905092915050565b5f620007345f198460080262000717565b1980831691505092915050565b5f6200074e838362000723565b9150826002028217905092915050565b620007698262000503565b67ffffffffffffffff8111156200078557620007846200050d565b5b62000791825462000567565b6200079e828285620006c7565b5f60209050601f831160018114620007d4575f8415620007bf578287015190505b620007cb858262000741565b8655506200083a565b601f198416620007e4866200059b565b5f5b828110156200080d57848901518255600182019150602085019450602081019050620007e6565b868310156200082d578489015162000829601f89168262000723565b8355505b6001600288020188555050505b505050505050565b6200084d8162000491565b82525050565b5f602082019050620008685f83018462000842565b92915050565b5f6bffffffffffffffffffffffff82169050919050565b5f620008a56200089f62000899846200086e565b6200061d565b62000401565b9050919050565b620008b78162000885565b82525050565b620008c88162000401565b82525050565b5f604082019050620008e35f830185620008ac565b620008f26020830184620008bd565b9392505050565b61369f80620009075f395ff3fe60806040526004361061019f575f3560e01c80636352211e116100eb578063a22cb46511610089578063cd279c7c11610063578063cd279c7c14610603578063cec26e511461062b578063e985e9c514610653578063f2fde38b1461068f576101a6565b8063a22cb46514610577578063b88d4fde1461059f578063c87b56dd146105c7576101a6565b8063715018a6116100c5578063715018a6146104e55780638da5cb5b146104fb5780638f2fc60b1461052557806395d89b411461054d576101a6565b80636352211e146104435780636ef7f1e71461047f57806370a08231146104a9576101a6565b8063234f052d1161015857806342842e0e1161013257806342842e0e1461037b57806342966c68146103a35780634c92dc3f146103cb57806353bbc5ea14610407576101a6565b8063234f052d146102da57806323b872dd146103165780632a55205a1461033e576101a6565b806301ffc9a7146101aa57806306fdde03146101e6578063081812fc14610210578063095ea7b31461024c57806318160ddd146102745780632131dea81461029e576101a6565b366101a657005b5f80fd5b3480156101b5575f80fd5b506101d060048036038101906101cb9190612838565b6106b7565b6040516101dd919061287d565b60405180910390f35b3480156101f1575f80fd5b506101fa6106c8565b6040516102079190612920565b60405180910390f35b34801561021b575f80fd5b5061023660048036038101906102319190612973565b610757565b60405161024391906129dd565b60405180910390f35b348015610257575f80fd5b50610272600480360381019061026d9190612a20565b610772565b005b34801561027f575f80fd5b50610288610788565b6040516102959190612a6d565b60405180910390f35b3480156102a9575f80fd5b506102c460048036038101906102bf9190612973565b61078e565b6040516102d19190612ad1565b60405180910390f35b3480156102e5575f80fd5b5061030060048036038101906102fb9190612aea565b610817565b60405161030d919061287d565b60405180910390f35b348015610321575f80fd5b5061033c60048036038101906103379190612b28565b610911565b005b348015610349575f80fd5b50610364600480360381019061035f9190612aea565b610a10565b604051610372929190612b78565b60405180910390f35b348015610386575f80fd5b506103a1600480360381019061039c9190612b28565b610bec565b005b3480156103ae575f80fd5b506103c960048036038101906103c49190612973565b610c0b565b005b3480156103d6575f80fd5b506103f160048036038101906103ec9190612973565b610c9a565b6040516103fe9190612a6d565b60405180910390f35b348015610412575f80fd5b5061042d60048036038101906104289190612aea565b610cc8565b60405161043a919061287d565b60405180910390f35b34801561044e575f80fd5b5061046960048036038101906104649190612973565b610dc2565b60405161047691906129dd565b60405180910390f35b34801561048a575f80fd5b50610493610dd3565b6040516104a09190612a6d565b60405180910390f35b3480156104b4575f80fd5b506104cf60048036038101906104ca9190612b9f565b610ddc565b6040516104dc9190612a6d565b60405180910390f35b3480156104f0575f80fd5b506104f9610e92565b005b348015610506575f80fd5b5061050f610ea5565b60405161051c91906129dd565b60405180910390f35b348015610530575f80fd5b5061054b60048036038101906105469190612c0b565b610ecd565b005b348015610558575f80fd5b50610561610ee3565b60405161056e9190612920565b60405180910390f35b348015610582575f80fd5b5061059d60048036038101906105989190612c73565b610f73565b005b3480156105aa575f80fd5b506105c560048036038101906105c09190612ddd565b610f89565b005b3480156105d2575f80fd5b506105ed60048036038101906105e89190612973565b610fa6565b6040516105fa9190612920565b60405180910390f35b34801561060e575f80fd5b5061062960048036038101906106249190612efb565b610fb8565b005b348015610636575f80fd5b50610651600480360381019061064c9190612c73565b611046565b005b34801561065e575f80fd5b5061067960048036038101906106749190612f67565b6110a6565b604051610686919061287d565b60405180910390f35b34801561069a575f80fd5b506106b560048036038101906106b09190612b9f565b611134565b005b5f6106c1826111b8565b9050919050565b60605f80546106d690612fd2565b80601f016020809104026020016040519081016040528092919081815260200182805461070290612fd2565b801561074d5780601f106107245761010080835404028352916020019161074d565b820191905f5260205f20905b81548152906001019060200180831161073057829003601f168201915b5050505050905090565b5f61076182611231565b5061076b826112b7565b9050919050565b610784828261077f6112f0565b6112f7565b5050565b600a5481565b6107966127a4565b600d5f8381526020019081526020015f206040518060400160405290815f8201548152602001600182015f9054906101000a900473ffffffffffffffffffffffffffffffffffffffff1673ffffffffffffffffffffffffffffffffffffffff1673ffffffffffffffffffffffffffffffffffffffff16815250509050919050565b5f600c5f3373ffffffffffffffffffffffffffffffffffffffff1673ffffffffffffffffffffffffffffffffffffffff1681526020019081526020015f205f9054906101000a900460ff168061089f5750610870610ea5565b73ffffffffffffffffffffffffffffffffffffffff163373ffffffffffffffffffffffffffffffffffffffff16145b6108de576040517f08c379a00000000000000000000000000000000000000000000000000000000081526004016108d59061304c565b60405180910390fd5b81600d5f8581526020019081526020015f205f015f8282546109009190613097565b925050819055506001905092915050565b5f73ffffffffffffffffffffffffffffffffffffffff168273ffffffffffffffffffffffffffffffffffffffff1603610981575f6040517f64a0ae9200000000000000000000000000000000000000000000000000000000815260040161097891906129dd565b60405180910390fd5b5f610994838361098f6112f0565b611309565b90508373ffffffffffffffffffffffffffffffffffffffff168173ffffffffffffffffffffffffffffffffffffffff1614610a0a578382826040517f64283d7b000000000000000000000000000000000000000000000000000000008152600401610a01939291906130ca565b60405180910390fd5b50505050565b5f805f60095f8681526020019081526020015f206040518060400160405290815f82015f9054906101000a900473ffffffffffffffffffffffffffffffffffffffff1673ffffffffffffffffffffffffffffffffffffffff1673ffffffffffffffffffffffffffffffffffffffff1681526020015f820160149054906101000a90046bffffffffffffffffffffffff166bffffffffffffffffffffffff166bffffffffffffffffffffffff168152505090505f73ffffffffffffffffffffffffffffffffffffffff16815f015173ffffffffffffffffffffffffffffffffffffffff1603610b995760086040518060400160405290815f82015f9054906101000a900473ffffffffffffffffffffffffffffffffffffffff1673ffffffffffffffffffffffffffffffffffffffff1673ffffffffffffffffffffffffffffffffffffffff1681526020015f820160149054906101000a90046bffffffffffffffffffffffff166bffffffffffffffffffffffff166bffffffffffffffffffffffff168152505090505b5f610ba2611514565b6bffffffffffffffffffffffff1682602001516bffffffffffffffffffffffff1686610bce91906130ff565b610bd8919061316d565b9050815f0151819350935050509250929050565b610c0683838360405180602001604052805f815250610f89565b505050565b3373ffffffffffffffffffffffffffffffffffffffff16610c2b82611231565b73ffffffffffffffffffffffffffffffffffffffff1614610c4a575f80fd5b610c538161151d565b3373ffffffffffffffffffffffffffffffffffffffff16817ff6554c3a5d28e08c120b5a69c7edbaf52f935bd2596a60b8a18e282cd257cddb60405160405180910390a350565b5f600d5f8381526020019081526020015f205f0154610cb7610dd3565b610cc1919061319d565b9050919050565b5f600c5f3373ffffffffffffffffffffffffffffffffffffffff1673ffffffffffffffffffffffffffffffffffffffff1681526020019081526020015f205f9054906101000a900460ff1680610d505750610d21610ea5565b73ffffffffffffffffffffffffffffffffffffffff163373ffffffffffffffffffffffffffffffffffffffff16145b610d8f576040517f08c379a0000000000000000000000000000000000000000000000000000000008152600401610d869061304c565b60405180910390fd5b81600d5f8581526020019081526020015f205f015f828254610db1919061319d565b925050819055506001905092915050565b5f610dcc82611231565b9050919050565b5f600b54905090565b5f8073ffffffffffffffffffffffffffffffffffffffff168273ffffffffffffffffffffffffffffffffffffffff1603610e4d575f6040517f89c62b64000000000000000000000000000000000000000000000000000000008152600401610e4491906129dd565b60405180910390fd5b60035f8373ffffffffffffffffffffffffffffffffffffffff1673ffffffffffffffffffffffffffffffffffffffff1681526020019081526020015f20549050919050565b610e9a61159f565b610ea35f611626565b565b5f60075f9054906101000a900473ffffffffffffffffffffffffffffffffffffffff16905090565b610ed561159f565b610edf82826116e9565b5050565b606060018054610ef290612fd2565b80601f0160208091040260200160405190810160405280929190818152602001828054610f1e90612fd2565b8015610f695780601f10610f4057610100808354040283529160200191610f69565b820191905f5260205f20905b815481529060010190602001808311610f4c57829003601f168201915b5050505050905090565b610f85610f7e6112f0565b8383611884565b5050565b610f94848484610911565b610fa0848484846119ed565b50505050565b6060610fb182611b9f565b9050919050565b610fc061159f565b600a54821115610fce575f80fd5b610fd88383611caa565b82600d5f8481526020019081526020015f206001015f6101000a81548173ffffffffffffffffffffffffffffffffffffffff021916908373ffffffffffffffffffffffffffffffffffffffff1602179055506110348282611cc7565b61104182846102b2611d21565b505050565b61104e61159f565b80600c5f8473ffffffffffffffffffffffffffffffffffffffff1673ffffffffffffffffffffffffffffffffffffffff1681526020019081526020015f205f6101000a81548160ff0219169083151502179055505050565b5f60055f8473ffffffffffffffffffffffffffffffffffffffff1673ffffffffffffffffffffffffffffffffffffffff1681526020019081526020015f205f8373ffffffffffffffffffffffffffffffffffffffff1673ffffffffffffffffffffffffffffffffffffffff1681526020019081526020015f205f9054906101000a900460ff16905092915050565b61113c61159f565b5f73ffffffffffffffffffffffffffffffffffffffff168173ffffffffffffffffffffffffffffffffffffffff16036111ac575f6040517f1e4fbdf70000000000000000000000000000000000000000000000000000000081526004016111a391906129dd565b60405180910390fd5b6111b581611626565b50565b5f7f2a55205a000000000000000000000000000000000000000000000000000000007bffffffffffffffffffffffffffffffffffffffffffffffffffffffff1916827bffffffffffffffffffffffffffffffffffffffffffffffffffffffff1916148061122a575061122982611ed0565b5b9050919050565b5f8061123c83611f30565b90505f73ffffffffffffffffffffffffffffffffffffffff168173ffffffffffffffffffffffffffffffffffffffff16036112ae57826040517f7e2732890000000000000000000000000000000000000000000000000000000081526004016112a59190612a6d565b60405180910390fd5b80915050919050565b5f60045f8381526020019081526020015f205f9054906101000a900473ffffffffffffffffffffffffffffffffffffffff169050919050565b5f33905090565b6113048383836001611f69565b505050565b5f8061131484611f30565b90505f73ffffffffffffffffffffffffffffffffffffffff168373ffffffffffffffffffffffffffffffffffffffff161461135557611354818486612128565b5b5f73ffffffffffffffffffffffffffffffffffffffff168173ffffffffffffffffffffffffffffffffffffffff16146113e0576113945f855f80611f69565b600160035f8373ffffffffffffffffffffffffffffffffffffffff1673ffffffffffffffffffffffffffffffffffffffff1681526020019081526020015f205f82825403925050819055505b5f73ffffffffffffffffffffffffffffffffffffffff168573ffffffffffffffffffffffffffffffffffffffff161461145f57600160035f8773ffffffffffffffffffffffffffffffffffffffff1673ffffffffffffffffffffffffffffffffffffffff1681526020019081526020015f205f82825401925050819055505b8460025f8681526020019081526020015f205f6101000a81548173ffffffffffffffffffffffffffffffffffffffff021916908373ffffffffffffffffffffffffffffffffffffffff160217905550838573ffffffffffffffffffffffffffffffffffffffff168273ffffffffffffffffffffffffffffffffffffffff167fddf252ad1be2c89b69c2b068fc378daa952ba7f163c4a11628f55a4df523b3ef60405160405180910390a4809150509392505050565b5f612710905090565b5f6115295f835f611309565b90505f73ffffffffffffffffffffffffffffffffffffffff168173ffffffffffffffffffffffffffffffffffffffff160361159b57816040517f7e2732890000000000000000000000000000000000000000000000000000000081526004016115929190612a6d565b60405180910390fd5b5050565b6115a76112f0565b73ffffffffffffffffffffffffffffffffffffffff166115c5610ea5565b73ffffffffffffffffffffffffffffffffffffffff1614611624576115e86112f0565b6040517f118cdaa700000000000000000000000000000000000000000000000000000000815260040161161b91906129dd565b60405180910390fd5b565b5f60075f9054906101000a900473ffffffffffffffffffffffffffffffffffffffff1690508160075f6101000a81548173ffffffffffffffffffffffffffffffffffffffff021916908373ffffffffffffffffffffffffffffffffffffffff1602179055508173ffffffffffffffffffffffffffffffffffffffff168173ffffffffffffffffffffffffffffffffffffffff167f8be0079c531659141344cd1fd0a4f28419497f9722a3daafe3b4186f6b6457e060405160405180910390a35050565b5f6116f2611514565b6bffffffffffffffffffffffff16905080826bffffffffffffffffffffffff1611156117575781816040517f6f483d0900000000000000000000000000000000000000000000000000000000815260040161174e929190613209565b60405180910390fd5b5f73ffffffffffffffffffffffffffffffffffffffff168373ffffffffffffffffffffffffffffffffffffffff16036117c7575f6040517fb6d9900a0000000000000000000000000000000000000000000000000000000081526004016117be91906129dd565b60405180910390fd5b60405180604001604052808473ffffffffffffffffffffffffffffffffffffffff168152602001836bffffffffffffffffffffffff1681525060085f820151815f015f6101000a81548173ffffffffffffffffffffffffffffffffffffffff021916908373ffffffffffffffffffffffffffffffffffffffff1602179055506020820151815f0160146101000a8154816bffffffffffffffffffffffff02191690836bffffffffffffffffffffffff160217905550905050505050565b5f73ffffffffffffffffffffffffffffffffffffffff168273ffffffffffffffffffffffffffffffffffffffff16036118f457816040517f5b08ba180000000000000000000000000000000000000000000000000000000081526004016118eb91906129dd565b60405180910390fd5b8060055f8573ffffffffffffffffffffffffffffffffffffffff1673ffffffffffffffffffffffffffffffffffffffff1681526020019081526020015f205f8473ffffffffffffffffffffffffffffffffffffffff1673ffffffffffffffffffffffffffffffffffffffff1681526020019081526020015f205f6101000a81548160ff0219169083151502179055508173ffffffffffffffffffffffffffffffffffffffff168373ffffffffffffffffffffffffffffffffffffffff167f17307eab39ab6107e8899845ad3d59bd9653f200f220920489ca2b5937696c31836040516119e0919061287d565b60405180910390a3505050565b5f8373ffffffffffffffffffffffffffffffffffffffff163b1115611b99578273ffffffffffffffffffffffffffffffffffffffff1663150b7a02611a306112f0565b8685856040518563ffffffff1660e01b8152600401611a529493929190613282565b6020604051808303815f875af1925050508015611a8d57506040513d601f19601f82011682018060405250810190611a8a91906132e0565b60015b611b0e573d805f8114611abb576040519150601f19603f3d011682016040523d82523d5f602084013e611ac0565b606091505b505f815103611b0657836040517f64a0ae92000000000000000000000000000000000000000000000000000000008152600401611afd91906129dd565b60405180910390fd5b805181602001fd5b63150b7a0260e01b7bffffffffffffffffffffffffffffffffffffffffffffffffffffffff1916817bffffffffffffffffffffffffffffffffffffffffffffffffffffffff191614611b9757836040517f64a0ae92000000000000000000000000000000000000000000000000000000008152600401611b8e91906129dd565b60405180910390fd5b505b50505050565b6060611baa82611231565b505f60065f8481526020019081526020015f208054611bc890612fd2565b80601f0160208091040260200160405190810160405280929190818152602001828054611bf490612fd2565b8015611c3f5780601f10611c1657610100808354040283529160200191611c3f565b820191905f5260205f20905b815481529060010190602001808311611c2257829003601f168201915b505050505090505f611c4f6121eb565b90505f815103611c63578192505050611ca5565b5f82511115611c97578082604051602001611c7f929190613345565b60405160208183030381529060405292505050611ca5565b611ca08461220b565b925050505b919050565b611cc3828260405180602001604052805f815250612271565b5050565b8060065f8481526020019081526020015f209081611ce591906134fc565b507ff8e1a15aba9398e019f0b49df1a4fde98ee17ae345cb5f6b5e2c27f5033e8ce782604051611d159190612a6d565b60405180910390a15050565b5f611d2a611514565b6bffffffffffffffffffffffff16905080826bffffffffffffffffffffffff161115611d91578382826040517fdfd1fc1b000000000000000000000000000000000000000000000000000000008152600401611d88939291906135cb565b60405180910390fd5b5f73ffffffffffffffffffffffffffffffffffffffff168373ffffffffffffffffffffffffffffffffffffffff1603611e0357835f6040517f969f0852000000000000000000000000000000000000000000000000000000008152600401611dfa929190613600565b60405180910390fd5b60405180604001604052808473ffffffffffffffffffffffffffffffffffffffff168152602001836bffffffffffffffffffffffff1681525060095f8681526020019081526020015f205f820151815f015f6101000a81548173ffffffffffffffffffffffffffffffffffffffff021916908373ffffffffffffffffffffffffffffffffffffffff1602179055506020820151815f0160146101000a8154816bffffffffffffffffffffffff02191690836bffffffffffffffffffffffff16021790555090505050505050565b5f634906490660e01b7bffffffffffffffffffffffffffffffffffffffffffffffffffffffff1916827bffffffffffffffffffffffffffffffffffffffffffffffffffffffff19161480611f295750611f288261228c565b5b9050919050565b5f60025f8381526020019081526020015f205f9054906101000a900473ffffffffffffffffffffffffffffffffffffffff169050919050565b8080611fa157505f73ffffffffffffffffffffffffffffffffffffffff168273ffffffffffffffffffffffffffffffffffffffff1614155b156120d3575f611fb084611231565b90505f73ffffffffffffffffffffffffffffffffffffffff168373ffffffffffffffffffffffffffffffffffffffff161415801561201a57508273ffffffffffffffffffffffffffffffffffffffff168173ffffffffffffffffffffffffffffffffffffffff1614155b801561202d575061202b81846110a6565b155b1561206f57826040517fa9fbf51f00000000000000000000000000000000000000000000000000000000815260040161206691906129dd565b60405180910390fd5b81156120d157838573ffffffffffffffffffffffffffffffffffffffff168273ffffffffffffffffffffffffffffffffffffffff167f8c5be1e5ebec7d5bd14f71427d1e84f3dd0314c0f7b2291e5b200ac8c7c3b92560405160405180910390a45b505b8360045f8581526020019081526020015f205f6101000a81548173ffffffffffffffffffffffffffffffffffffffff021916908373ffffffffffffffffffffffffffffffffffffffff16021790555050505050565b61213383838361236d565b6121e6575f73ffffffffffffffffffffffffffffffffffffffff168373ffffffffffffffffffffffffffffffffffffffff16036121a757806040517f7e27328900000000000000000000000000000000000000000000000000000000815260040161219e9190612a6d565b60405180910390fd5b81816040517f177e802f0000000000000000000000000000000000000000000000000000000081526004016121dd929190612b78565b60405180910390fd5b505050565b606060405180608001604052806042815260200161362860429139905090565b606061221682611231565b505f6122206121eb565b90505f81511161223e5760405180602001604052805f815250612269565b806122488461242d565b604051602001612259929190613345565b6040516020818303038152906040525b915050919050565b61227b83836124f7565b6122875f8484846119ed565b505050565b5f7f80ac58cd000000000000000000000000000000000000000000000000000000007bffffffffffffffffffffffffffffffffffffffffffffffffffffffff1916827bffffffffffffffffffffffffffffffffffffffffffffffffffffffff1916148061235657507f5b5e139f000000000000000000000000000000000000000000000000000000007bffffffffffffffffffffffffffffffffffffffffffffffffffffffff1916827bffffffffffffffffffffffffffffffffffffffffffffffffffffffff1916145b806123665750612365826125ea565b5b9050919050565b5f8073ffffffffffffffffffffffffffffffffffffffff168373ffffffffffffffffffffffffffffffffffffffff161415801561242457508273ffffffffffffffffffffffffffffffffffffffff168473ffffffffffffffffffffffffffffffffffffffff1614806123e557506123e484846110a6565b5b8061242357508273ffffffffffffffffffffffffffffffffffffffff1661240b836112b7565b73ffffffffffffffffffffffffffffffffffffffff16145b5b90509392505050565b60605f600161243b84612653565b0190505f8167ffffffffffffffff81111561245957612458612cb9565b5b6040519080825280601f01601f19166020018201604052801561248b5781602001600182028036833780820191505090505b5090505f82602001820190505b6001156124ec578080600190039150507f3031323334353637383961626364656600000000000000000000000000000000600a86061a8153600a85816124e1576124e0613140565b5b0494505f8503612498575b819350505050919050565b5f73ffffffffffffffffffffffffffffffffffffffff168273ffffffffffffffffffffffffffffffffffffffff1603612567575f6040517f64a0ae9200000000000000000000000000000000000000000000000000000000815260040161255e91906129dd565b60405180910390fd5b5f61257383835f611309565b90505f73ffffffffffffffffffffffffffffffffffffffff168173ffffffffffffffffffffffffffffffffffffffff16146125e5575f6040517f73c6ac6e0000000000000000000000000000000000000000000000000000000081526004016125dc91906129dd565b60405180910390fd5b505050565b5f7f01ffc9a7000000000000000000000000000000000000000000000000000000007bffffffffffffffffffffffffffffffffffffffffffffffffffffffff1916827bffffffffffffffffffffffffffffffffffffffffffffffffffffffff1916149050919050565b5f805f90507a184f03e93ff9f4daa797ed6e38ed64bf6a1f01000000000000000083106126af577a184f03e93ff9f4daa797ed6e38ed64bf6a1f01000000000000000083816126a5576126a4613140565b5b0492506040810190505b6d04ee2d6d415b85acef810000000083106126ec576d04ee2d6d415b85acef810000000083816126e2576126e1613140565b5b0492506020810190505b662386f26fc10000831061271b57662386f26fc10000838161271157612710613140565b5b0492506010810190505b6305f5e1008310612744576305f5e100838161273a57612739613140565b5b0492506008810190505b612710831061276957612710838161275f5761275e613140565b5b0492506004810190505b6064831061278c576064838161278257612781613140565b5b0492506002810190505b600a831061279b576001810190505b80915050919050565b60405180604001604052805f81526020015f73ffffffffffffffffffffffffffffffffffffffff1681525090565b5f604051905090565b5f80fd5b5f80fd5b5f7fffffffff0000000000000000000000000000000000000000000000000000000082169050919050565b612817816127e3565b8114612821575f80fd5b50565b5f813590506128328161280e565b92915050565b5f6020828403121561284d5761284c6127db565b5b5f61285a84828501612824565b91505092915050565b5f8115159050919050565b61287781612863565b82525050565b5f6020820190506128905f83018461286e565b92915050565b5f81519050919050565b5f82825260208201905092915050565b5f5b838110156128cd5780820151818401526020810190506128b2565b5f8484015250505050565b5f601f19601f8301169050919050565b5f6128f282612896565b6128fc81856128a0565b935061290c8185602086016128b0565b612915816128d8565b840191505092915050565b5f6020820190508181035f83015261293881846128e8565b905092915050565b5f819050919050565b61295281612940565b811461295c575f80fd5b50565b5f8135905061296d81612949565b92915050565b5f60208284031215612988576129876127db565b5b5f6129958482850161295f565b91505092915050565b5f73ffffffffffffffffffffffffffffffffffffffff82169050919050565b5f6129c78261299e565b9050919050565b6129d7816129bd565b82525050565b5f6020820190506129f05f8301846129ce565b92915050565b6129ff816129bd565b8114612a09575f80fd5b50565b5f81359050612a1a816129f6565b92915050565b5f8060408385031215612a3657612a356127db565b5b5f612a4385828601612a0c565b9250506020612a548582860161295f565b9150509250929050565b612a6781612940565b82525050565b5f602082019050612a805f830184612a5e565b92915050565b612a8f81612940565b82525050565b612a9e816129bd565b82525050565b604082015f820151612ab85f850182612a86565b506020820151612acb6020850182612a95565b50505050565b5f604082019050612ae45f830184612aa4565b92915050565b5f8060408385031215612b0057612aff6127db565b5b5f612b0d8582860161295f565b9250506020612b1e8582860161295f565b9150509250929050565b5f805f60608486031215612b3f57612b3e6127db565b5b5f612b4c86828701612a0c565b9350506020612b5d86828701612a0c565b9250506040612b6e8682870161295f565b9150509250925092565b5f604082019050612b8b5f8301856129ce565b612b986020830184612a5e565b9392505050565b5f60208284031215612bb457612bb36127db565b5b5f612bc184828501612a0c565b91505092915050565b5f6bffffffffffffffffffffffff82169050919050565b612bea81612bca565b8114612bf4575f80fd5b50565b5f81359050612c0581612be1565b92915050565b5f8060408385031215612c2157612c206127db565b5b5f612c2e85828601612a0c565b9250506020612c3f85828601612bf7565b9150509250929050565b612c5281612863565b8114612c5c575f80fd5b50565b5f81359050612c6d81612c49565b92915050565b5f8060408385031215612c8957612c886127db565b5b5f612c9685828601612a0c565b9250506020612ca785828601612c5f565b9150509250929050565b5f80fd5b5f80fd5b7f4e487b71000000000000000000000000000000000000000000000000000000005f52604160045260245ffd5b612cef826128d8565b810181811067ffffffffffffffff82111715612d0e57612d0d612cb9565b5b80604052505050565b5f612d206127d2565b9050612d2c8282612ce6565b919050565b5f67ffffffffffffffff821115612d4b57612d4a612cb9565b5b612d54826128d8565b9050602081019050919050565b828183375f83830152505050565b5f612d81612d7c84612d31565b612d17565b905082815260208101848484011115612d9d57612d9c612cb5565b5b612da8848285612d61565b509392505050565b5f82601f830112612dc457612dc3612cb1565b5b8135612dd4848260208601612d6f565b91505092915050565b5f805f8060808587031215612df557612df46127db565b5b5f612e0287828801612a0c565b9450506020612e1387828801612a0c565b9350506040612e248782880161295f565b925050606085013567ffffffffffffffff811115612e4557612e446127df565b5b612e5187828801612db0565b91505092959194509250565b5f67ffffffffffffffff821115612e7757612e76612cb9565b5b612e80826128d8565b9050602081019050919050565b5f612e9f612e9a84612e5d565b612d17565b905082815260208101848484011115612ebb57612eba612cb5565b5b612ec6848285612d61565b509392505050565b5f82601f830112612ee257612ee1612cb1565b5b8135612ef2848260208601612e8d565b91505092915050565b5f805f60608486031215612f1257612f116127db565b5b5f612f1f86828701612a0c565b9350506020612f308682870161295f565b925050604084013567ffffffffffffffff811115612f5157612f506127df565b5b612f5d86828701612ece565b9150509250925092565b5f8060408385031215612f7d57612f7c6127db565b5b5f612f8a85828601612a0c565b9250506020612f9b85828601612a0c565b9150509250929050565b7f4e487b71000000000000000000000000000000000000000000000000000000005f52602260045260245ffd5b5f6002820490506001821680612fe957607f821691505b602082108103612ffc57612ffb612fa5565b5b50919050565b7f6e6f7420616c6c6f7765640000000000000000000000000000000000000000005f82015250565b5f613036600b836128a0565b915061304182613002565b602082019050919050565b5f6020820190508181035f8301526130638161302a565b9050919050565b7f4e487b71000000000000000000000000000000000000000000000000000000005f52601160045260245ffd5b5f6130a182612940565b91506130ac83612940565b92508282039050818111156130c4576130c361306a565b5b92915050565b5f6060820190506130dd5f8301866129ce565b6130ea6020830185612a5e565b6130f760408301846129ce565b949350505050565b5f61310982612940565b915061311483612940565b925082820261312281612940565b915082820484148315176131395761313861306a565b5b5092915050565b7f4e487b71000000000000000000000000000000000000000000000000000000005f52601260045260245ffd5b5f61317782612940565b915061318283612940565b92508261319257613191613140565b5b828204905092915050565b5f6131a782612940565b91506131b283612940565b92508282019050808211156131ca576131c961306a565b5b92915050565b5f819050919050565b5f6131f36131ee6131e984612bca565b6131d0565b612940565b9050919050565b613203816131d9565b82525050565b5f60408201905061321c5f8301856131fa565b6132296020830184612a5e565b9392505050565b5f81519050919050565b5f82825260208201905092915050565b5f61325482613230565b61325e818561323a565b935061326e8185602086016128b0565b613277816128d8565b840191505092915050565b5f6080820190506132955f8301876129ce565b6132a260208301866129ce565b6132af6040830185612a5e565b81810360608301526132c1818461324a565b905095945050505050565b5f815190506132da8161280e565b92915050565b5f602082840312156132f5576132f46127db565b5b5f613302848285016132cc565b91505092915050565b5f81905092915050565b5f61331f82612896565b613329818561330b565b93506133398185602086016128b0565b80840191505092915050565b5f6133508285613315565b915061335c8284613315565b91508190509392505050565b5f819050815f5260205f209050919050565b5f6020601f8301049050919050565b5f82821b905092915050565b5f600883026133c47fffffffffffffffffffffffffffffffffffffffffffffffffffffffffffffffff82613389565b6133ce8683613389565b95508019841693508086168417925050509392505050565b5f6134006133fb6133f684612940565b6131d0565b612940565b9050919050565b5f819050919050565b613419836133e6565b61342d61342582613407565b848454613395565b825550505050565b5f90565b613441613435565b61344c818484613410565b505050565b5b8181101561346f576134645f82613439565b600181019050613452565b5050565b601f8211156134b45761348581613368565b61348e8461337a565b8101602085101561349d578190505b6134b16134a98561337a565b830182613451565b50505b505050565b5f82821c905092915050565b5f6134d45f19846008026134b9565b1980831691505092915050565b5f6134ec83836134c5565b9150826002028217905092915050565b61350582612896565b67ffffffffffffffff81111561351e5761351d612cb9565b5b6135288254612fd2565b613533828285613473565b5f60209050601f831160018114613564575f8415613552578287015190505b61355c85826134e1565b8655506135c3565b601f19841661357286613368565b5f5b8281101561359957848901518255600182019150602085019450602081019050613574565b868310156135b657848901516135b2601f8916826134c5565b8355505b6001600288020188555050505b505050505050565b5f6060820190506135de5f830186612a5e565b6135eb60208301856131fa565b6135f86040830184612a5e565b949350505050565b5f6040820190506136135f830185612a5e565b61362060208301846129ce565b939250505056fe697066733a2f2f62616679626569646c37637079636a69717a6136727564677a6c3471356c6c3678376e6670716c6c357165717736746f7169756563776732686a65a26469706673582212205c1d8243a6087f836a28aa12c880d41b24e078afe73ff8c177b8f8010bea888d64736f6c63430008140033",
			"opcodes": "PUSH1 0x80 PUSH1 0x40 MSTORE PUSH1 0x65 PUSH1 0x1 SSTORE PUSH1 0x1E PUSH1 0x2 PUSH0 PUSH2 0x100 EXP DUP2 SLOAD DUP2 PUSH1 0xFF MUL NOT AND SWAP1 DUP4 PUSH1 0xFF AND MUL OR SWAP1 SSTORE POP PUSH0 PUSH1 0x3 SSTORE PUSH2 0x3E8 PUSH1 0x4 SSTORE PUSH9 0x3BD913E6C1DF40000 PUSH1 0x5 SSTORE PUSH1 0x1 PUSH1 0x6 PUSH0 PUSH2 0x100 EXP DUP2 SLOAD DUP2 PUSH2 0xFFFF MUL NOT AND SWAP1 DUP4 PUSH2 0xFFFF AND MUL OR SWAP1 SSTORE POP PUSH1 0x3 PUSH1 0x6 PUSH1 0x2 PUSH2 0x100 EXP DUP2 SLOAD DUP2 PUSH1 0xFF MUL NOT AND SWAP1 DUP4 PUSH1 0xFF AND MUL OR SWAP1 SSTORE POP PUSH1 0x64 PUSH1 0x6 PUSH1 0x3 PUSH2 0x100 EXP DUP2 SLOAD DUP2 PUSH1 0xFF MUL NOT AND SWAP1 DUP4 PUSH1 0xFF AND MUL OR SWAP1 SSTORE POP PUSH1 0xF PUSH1 0x7 SSTORE PUSH1 0xF PUSH1 0x8 PUSH0 PUSH2 0x100 EXP DUP2 SLOAD DUP2 PUSH1 0xFF MUL NOT AND SWAP1 DUP4 PUSH1 0xFF AND MUL OR SWAP1 SSTORE POP PUSH0 PUSH1 0xA PUSH0 PUSH2 0x100 EXP DUP2 SLOAD DUP2 PUSH1 0xFF MUL NOT AND SWAP1 DUP4 ISZERO ISZERO MUL OR SWAP1 SSTORE POP CALLVALUE DUP1 ISZERO PUSH3 0xD5 JUMPI PUSH0 DUP1 REVERT JUMPDEST POP CALLER PUSH0 PUSH20 0xFFFFFFFFFFFFFFFFFFFFFFFFFFFFFFFFFFFFFFFF AND DUP2 PUSH20 0xFFFFFFFFFFFFFFFFFFFFFFFFFFFFFFFFFFFFFFFF AND SUB PUSH3 0x14A JUMPI PUSH0 PUSH1 0x40 MLOAD PUSH32 0x1E4FBDF700000000000000000000000000000000000000000000000000000000 DUP2 MSTORE PUSH1 0x4 ADD PUSH3 0x141 SWAP2 SWAP1 PUSH3 0x2EA JUMP JUMPDEST PUSH1 0x40 MLOAD DUP1 SWAP2 SUB SWAP1 REVERT JUMPDEST PUSH3 0x15B DUP2 PUSH3 0x1D8 PUSH1 0x20 SHL PUSH1 0x20 SHR JUMP JUMPDEST POP ADDRESS PUSH1 0x40 MLOAD PUSH3 0x16B SWAP1 PUSH3 0x299 JUMP JUMPDEST PUSH3 0x177 SWAP2 SWAP1 PUSH3 0x2EA JUMP JUMPDEST PUSH1 0x40 MLOAD DUP1 SWAP2 SUB SWAP1 PUSH0 CREATE DUP1 ISZERO DUP1 ISZERO PUSH3 0x191 JUMPI RETURNDATASIZE PUSH0 DUP1 RETURNDATACOPY RETURNDATASIZE PUSH0 REVERT JUMPDEST POP PUSH1 0xA PUSH1 0x1 PUSH2 0x100 EXP DUP2 SLOAD DUP2 PUSH20 0xFFFFFFFFFFFFFFFFFFFFFFFFFFFFFFFFFFFFFFFF MUL NOT AND SWAP1 DUP4 PUSH20 0xFFFFFFFFFFFFFFFFFFFFFFFFFFFFFFFFFFFFFFFF AND MUL OR SWAP1 SSTORE POP PUSH3 0x305 JUMP JUMPDEST PUSH0 DUP1 PUSH0 SWAP1 SLOAD SWAP1 PUSH2 0x100 EXP SWAP1 DIV PUSH20 0xFFFFFFFFFFFFFFFFFFFFFFFFFFFFFFFFFFFFFFFF AND SWAP1 POP DUP2 PUSH0 DUP1 PUSH2 0x100 EXP DUP2 SLOAD DUP2 PUSH20 0xFFFFFFFFFFFFFFFFFFFFFFFFFFFFFFFFFFFFFFFF MUL NOT AND SWAP1 DUP4 PUSH20 0xFFFFFFFFFFFFFFFFFFFFFFFFFFFFFFFFFFFFFFFF AND MUL OR SWAP1 SSTORE POP DUP2 PUSH20 0xFFFFFFFFFFFFFFFFFFFFFFFFFFFFFFFFFFFFFFFF AND DUP2 PUSH20 0xFFFFFFFFFFFFFFFFFFFFFFFFFFFFFFFFFFFFFFFF AND PUSH32 0x8BE0079C531659141344CD1FD0A4F28419497F9722A3DAAFE3B4186F6B6457E0 PUSH1 0x40 MLOAD PUSH1 0x40 MLOAD DUP1 SWAP2 SUB SWAP1 LOG3 POP POP JUMP JUMPDEST PUSH2 0x3FA6 DUP1 PUSH3 0x42D8 DUP4 CODECOPY ADD SWAP1 JUMP JUMPDEST PUSH0 PUSH20 0xFFFFFFFFFFFFFFFFFFFFFFFFFFFFFFFFFFFFFFFF DUP3 AND SWAP1 POP SWAP2 SWAP1 POP JUMP JUMPDEST PUSH0 PUSH3 0x2D2 DUP3 PUSH3 0x2A7 JUMP JUMPDEST SWAP1 POP SWAP2 SWAP1 POP JUMP JUMPDEST PUSH3 0x2E4 DUP2 PUSH3 0x2C6 JUMP JUMPDEST DUP3 MSTORE POP POP JUMP JUMPDEST PUSH0 PUSH1 0x20 DUP3 ADD SWAP1 POP PUSH3 0x2FF PUSH0 DUP4 ADD DUP5 PUSH3 0x2D9 JUMP JUMPDEST SWAP3 SWAP2 POP POP JUMP JUMPDEST PUSH2 0x3FC5 DUP1 PUSH3 0x313 PUSH0 CODECOPY PUSH0 RETURN INVALID PUSH1 0x80 PUSH1 0x40 MSTORE PUSH1 0x4 CALLDATASIZE LT PUSH2 0x1DB JUMPI PUSH0 CALLDATALOAD PUSH1 0xE0 SHR DUP1 PUSH4 0x8DA5CB5B GT PUSH2 0x101 JUMPI DUP1 PUSH4 0xDA04E721 GT PUSH2 0x94 JUMPI DUP1 PUSH4 0xF2FDE38B GT PUSH2 0x63 JUMPI DUP1 PUSH4 0xF2FDE38B EQ PUSH2 0x73F JUMPI DUP1 PUSH4 0xFDCF9D07 EQ PUSH2 0x767 JUMPI DUP1 PUSH4 0xFFB75CAB EQ PUSH2 0x791 JUMPI DUP1 PUSH4 0xFFC9896B EQ PUSH2 0x7CD JUMPI PUSH2 0x234 JUMP JUMPDEST DUP1 PUSH4 0xDA04E721 EQ PUSH2 0x675 JUMPI DUP1 PUSH4 0xE6C3E327 EQ PUSH2 0x6B1 JUMPI DUP1 PUSH4 0xEB91D37E EQ PUSH2 0x6ED JUMPI DUP1 PUSH4 0xEC72577C EQ PUSH2 0x717 JUMPI PUSH2 0x234 JUMP JUMPDEST DUP1 PUSH4 0xA6EFE5F4 GT PUSH2 0xD0 JUMPI DUP1 PUSH4 0xA6EFE5F4 EQ PUSH2 0x5BB JUMPI DUP1 PUSH4 0xA9722CF3 EQ PUSH2 0x5E5 JUMPI DUP1 PUSH4 0xAAE282E1 EQ PUSH2 0x60F JUMPI DUP1 PUSH4 0xD8C48418 EQ PUSH2 0x639 JUMPI PUSH2 0x234 JUMP JUMPDEST DUP1 PUSH4 0x8DA5CB5B EQ PUSH2 0x501 JUMPI DUP1 PUSH4 0xA2309FF8 EQ PUSH2 0x52B JUMPI DUP1 PUSH4 0xA32BF597 EQ PUSH2 0x555 JUMPI DUP1 PUSH4 0xA345908F EQ PUSH2 0x57F JUMPI PUSH2 0x234 JUMP JUMPDEST DUP1 PUSH4 0x53D6FD59 GT PUSH2 0x179 JUMPI DUP1 PUSH4 0x681CE98A GT PUSH2 0x148 JUMPI DUP1 PUSH4 0x681CE98A EQ PUSH2 0x468 JUMPI DUP1 PUSH4 0x6A627842 EQ PUSH2 0x492 JUMPI DUP1 PUSH4 0x6BAF226C EQ PUSH2 0x4AE JUMPI DUP1 PUSH4 0x715018A6 EQ PUSH2 0x4EB JUMPI PUSH2 0x234 JUMP JUMPDEST DUP1 PUSH4 0x53D6FD59 EQ PUSH2 0x3B4 JUMPI DUP1 PUSH4 0x5D5E6BF6 EQ PUSH2 0x3DC JUMPI DUP1 PUSH4 0x6088E93A EQ PUSH2 0x404 JUMPI DUP1 PUSH4 0x679F3EE1 EQ PUSH2 0x42C JUMPI PUSH2 0x234 JUMP JUMPDEST DUP1 PUSH4 0x23B7ED8B GT PUSH2 0x1B5 JUMPI DUP1 PUSH4 0x23B7ED8B EQ PUSH2 0x2D8 JUMPI DUP1 PUSH4 0x2724D591 EQ PUSH2 0x314 JUMPI DUP1 PUSH4 0x38E21CCE EQ PUSH2 0x33C JUMPI DUP1 PUSH4 0x3AF32ABF EQ PUSH2 0x378 JUMPI PUSH2 0x234 JUMP JUMPDEST DUP1 PUSH4 0x106AC31A EQ PUSH2 0x238 JUMPI DUP1 PUSH4 0x150B7A02 EQ PUSH2 0x274 JUMPI DUP1 PUSH4 0x1F85E3CA EQ PUSH2 0x2B0 JUMPI PUSH2 0x234 JUMP JUMPDEST CALLDATASIZE PUSH2 0x234 JUMPI CALLVALUE PUSH1 0xD PUSH0 DUP1 PUSH20 0xFFFFFFFFFFFFFFFFFFFFFFFFFFFFFFFFFFFFFFFF AND PUSH20 0xFFFFFFFFFFFFFFFFFFFFFFFFFFFFFFFFFFFFFFFF AND DUP2 MSTORE PUSH1 0x20 ADD SWAP1 DUP2 MSTORE PUSH1 0x20 ADD PUSH0 KECCAK256 PUSH0 DUP3 DUP3 SLOAD PUSH2 0x22C SWAP2 SWAP1 PUSH2 0x2D85 JUMP JUMPDEST SWAP3 POP POP DUP2 SWAP1 SSTORE STOP JUMPDEST PUSH0 DUP1 REVERT JUMPDEST CALLVALUE DUP1 ISZERO PUSH2 0x243 JUMPI PUSH0 DUP1 REVERT JUMPDEST POP PUSH2 0x25E PUSH1 0x4 DUP1 CALLDATASIZE SUB DUP2 ADD SWAP1 PUSH2 0x259 SWAP2 SWAP1 PUSH2 0x2DF7 JUMP JUMPDEST PUSH2 0x809 JUMP JUMPDEST PUSH1 0x40 MLOAD PUSH2 0x26B SWAP2 SWAP1 PUSH2 0x2ED9 JUMP JUMPDEST PUSH1 0x40 MLOAD DUP1 SWAP2 SUB SWAP1 RETURN JUMPDEST CALLVALUE DUP1 ISZERO PUSH2 0x27F JUMPI PUSH0 DUP1 REVERT JUMPDEST POP PUSH2 0x29A PUSH1 0x4 DUP1 CALLDATASIZE SUB DUP2 ADD SWAP1 PUSH2 0x295 SWAP2 SWAP1 PUSH2 0x2FDE JUMP JUMPDEST PUSH2 0x87B JUMP JUMPDEST PUSH1 0x40 MLOAD PUSH2 0x2A7 SWAP2 SWAP1 PUSH2 0x309C JUMP JUMPDEST PUSH1 0x40 MLOAD DUP1 SWAP2 SUB SWAP1 RETURN JUMPDEST CALLVALUE DUP1 ISZERO PUSH2 0x2BB JUMPI PUSH0 DUP1 REVERT JUMPDEST POP PUSH2 0x2D6 PUSH1 0x4 DUP1 CALLDATASIZE SUB DUP2 ADD SWAP1 PUSH2 0x2D1 SWAP2 SWAP1 PUSH2 0x30EA JUMP JUMPDEST PUSH2 0x8D0 JUMP JUMPDEST STOP JUMPDEST CALLVALUE DUP1 ISZERO PUSH2 0x2E3 JUMPI PUSH0 DUP1 REVERT JUMPDEST POP PUSH2 0x2FE PUSH1 0x4 DUP1 CALLDATASIZE SUB DUP2 ADD SWAP1 PUSH2 0x2F9 SWAP2 SWAP1 PUSH2 0x3115 JUMP JUMPDEST PUSH2 0x8F4 JUMP JUMPDEST PUSH1 0x40 MLOAD PUSH2 0x30B SWAP2 SWAP1 PUSH2 0x314F JUMP JUMPDEST PUSH1 0x40 MLOAD DUP1 SWAP2 SUB SWAP1 RETURN JUMPDEST CALLVALUE DUP1 ISZERO PUSH2 0x31F JUMPI PUSH0 DUP1 REVERT JUMPDEST POP PUSH2 0x33A PUSH1 0x4 DUP1 CALLDATASIZE SUB DUP2 ADD SWAP1 PUSH2 0x335 SWAP2 SWAP1 PUSH2 0x3115 JUMP JUMPDEST PUSH2 0x909 JUMP JUMPDEST STOP JUMPDEST CALLVALUE DUP1 ISZERO PUSH2 0x347 JUMPI PUSH0 DUP1 REVERT JUMPDEST POP PUSH2 0x362 PUSH1 0x4 DUP1 CALLDATASIZE SUB DUP2 ADD SWAP1 PUSH2 0x35D SWAP2 SWAP1 PUSH2 0x3115 JUMP JUMPDEST PUSH2 0x99C JUMP JUMPDEST PUSH1 0x40 MLOAD PUSH2 0x36F SWAP2 SWAP1 PUSH2 0x3177 JUMP JUMPDEST PUSH1 0x40 MLOAD DUP1 SWAP2 SUB SWAP1 RETURN JUMPDEST CALLVALUE DUP1 ISZERO PUSH2 0x383 JUMPI PUSH0 DUP1 REVERT JUMPDEST POP PUSH2 0x39E PUSH1 0x4 DUP1 CALLDATASIZE SUB DUP2 ADD SWAP1 PUSH2 0x399 SWAP2 SWAP1 PUSH2 0x3115 JUMP JUMPDEST PUSH2 0xA05 JUMP JUMPDEST PUSH1 0x40 MLOAD PUSH2 0x3AB SWAP2 SWAP1 PUSH2 0x3177 JUMP JUMPDEST PUSH1 0x40 MLOAD DUP1 SWAP2 SUB SWAP1 RETURN JUMPDEST CALLVALUE DUP1 ISZERO PUSH2 0x3BF JUMPI PUSH0 DUP1 REVERT JUMPDEST POP PUSH2 0x3DA PUSH1 0x4 DUP1 CALLDATASIZE SUB DUP2 ADD SWAP1 PUSH2 0x3D5 SWAP2 SWAP1 PUSH2 0x3190 JUMP JUMPDEST PUSH2 0xA5A JUMP JUMPDEST STOP JUMPDEST CALLVALUE DUP1 ISZERO PUSH2 0x3E7 JUMPI PUSH0 DUP1 REVERT JUMPDEST POP PUSH2 0x402 PUSH1 0x4 DUP1 CALLDATASIZE SUB DUP2 ADD SWAP1 PUSH2 0x3FD SWAP2 SWAP1 PUSH2 0x31CE JUMP JUMPDEST PUSH2 0xB81 JUMP JUMPDEST STOP JUMPDEST CALLVALUE DUP1 ISZERO PUSH2 0x40F JUMPI PUSH0 DUP1 REVERT JUMPDEST POP PUSH2 0x42A PUSH1 0x4 DUP1 CALLDATASIZE SUB DUP2 ADD SWAP1 PUSH2 0x425 SWAP2 SWAP1 PUSH2 0x31F9 JUMP JUMPDEST PUSH2 0xE33 JUMP JUMPDEST STOP JUMPDEST CALLVALUE DUP1 ISZERO PUSH2 0x437 JUMPI PUSH0 DUP1 REVERT JUMPDEST POP PUSH2 0x452 PUSH1 0x4 DUP1 CALLDATASIZE SUB DUP2 ADD SWAP1 PUSH2 0x44D SWAP2 SWAP1 PUSH2 0x3115 JUMP JUMPDEST PUSH2 0xF8E JUMP JUMPDEST PUSH1 0x40 MLOAD PUSH2 0x45F SWAP2 SWAP1 PUSH2 0x314F JUMP JUMPDEST PUSH1 0x40 MLOAD DUP1 SWAP2 SUB SWAP1 RETURN JUMPDEST CALLVALUE DUP1 ISZERO PUSH2 0x473 JUMPI PUSH0 DUP1 REVERT JUMPDEST POP PUSH2 0x47C PUSH2 0x1012 JUMP JUMPDEST PUSH1 0x40 MLOAD PUSH2 0x489 SWAP2 SWAP1 PUSH2 0x314F JUMP JUMPDEST PUSH1 0x40 MLOAD DUP1 SWAP2 SUB SWAP1 RETURN JUMPDEST PUSH2 0x4AC PUSH1 0x4 DUP1 CALLDATASIZE SUB DUP2 ADD SWAP1 PUSH2 0x4A7 SWAP2 SWAP1 PUSH2 0x3115 JUMP JUMPDEST PUSH2 0x1057 JUMP JUMPDEST STOP JUMPDEST CALLVALUE DUP1 ISZERO PUSH2 0x4B9 JUMPI PUSH0 DUP1 REVERT JUMPDEST POP PUSH2 0x4D4 PUSH1 0x4 DUP1 CALLDATASIZE SUB DUP2 ADD SWAP1 PUSH2 0x4CF SWAP2 SWAP1 PUSH2 0x2DF7 JUMP JUMPDEST PUSH2 0x1E25 JUMP JUMPDEST PUSH1 0x40 MLOAD PUSH2 0x4E2 SWAP3 SWAP2 SWAP1 PUSH2 0x3237 JUMP JUMPDEST PUSH1 0x40 MLOAD DUP1 SWAP2 SUB SWAP1 RETURN JUMPDEST CALLVALUE DUP1 ISZERO PUSH2 0x4F6 JUMPI PUSH0 DUP1 REVERT JUMPDEST POP PUSH2 0x4FF PUSH2 0x1E6A JUMP JUMPDEST STOP JUMPDEST CALLVALUE DUP1 ISZERO PUSH2 0x50C JUMPI PUSH0 DUP1 REVERT JUMPDEST POP PUSH2 0x515 PUSH2 0x1E7D JUMP JUMPDEST PUSH1 0x40 MLOAD PUSH2 0x522 SWAP2 SWAP1 PUSH2 0x326D JUMP JUMPDEST PUSH1 0x40 MLOAD DUP1 SWAP2 SUB SWAP1 RETURN JUMPDEST CALLVALUE DUP1 ISZERO PUSH2 0x536 JUMPI PUSH0 DUP1 REVERT JUMPDEST POP PUSH2 0x53F PUSH2 0x1EA4 JUMP JUMPDEST PUSH1 0x40 MLOAD PUSH2 0x54C SWAP2 SWAP1 PUSH2 0x314F JUMP JUMPDEST PUSH1 0x40 MLOAD DUP1 SWAP2 SUB SWAP1 RETURN JUMPDEST CALLVALUE DUP1 ISZERO PUSH2 0x560 JUMPI PUSH0 DUP1 REVERT JUMPDEST POP PUSH2 0x569 PUSH2 0x1EB8 JUMP JUMPDEST PUSH1 0x40 MLOAD PUSH2 0x576 SWAP2 SWAP1 PUSH2 0x3295 JUMP JUMPDEST PUSH1 0x40 MLOAD DUP1 SWAP2 SUB SWAP1 RETURN JUMPDEST CALLVALUE DUP1 ISZERO PUSH2 0x58A JUMPI PUSH0 DUP1 REVERT JUMPDEST POP PUSH2 0x5A5 PUSH1 0x4 DUP1 CALLDATASIZE SUB DUP2 ADD SWAP1 PUSH2 0x5A0 SWAP2 SWAP1 PUSH2 0x31F9 JUMP JUMPDEST PUSH2 0x1ECE JUMP JUMPDEST PUSH1 0x40 MLOAD PUSH2 0x5B2 SWAP2 SWAP1 PUSH2 0x326D JUMP JUMPDEST PUSH1 0x40 MLOAD DUP1 SWAP2 SUB SWAP1 RETURN JUMPDEST CALLVALUE DUP1 ISZERO PUSH2 0x5C6 JUMPI PUSH0 DUP1 REVERT JUMPDEST POP PUSH2 0x5CF PUSH2 0x1F46 JUMP JUMPDEST PUSH1 0x40 MLOAD PUSH2 0x5DC SWAP2 SWAP1 PUSH2 0x314F JUMP JUMPDEST PUSH1 0x40 MLOAD DUP1 SWAP2 SUB SWAP1 RETURN JUMPDEST CALLVALUE DUP1 ISZERO PUSH2 0x5F0 JUMPI PUSH0 DUP1 REVERT JUMPDEST POP PUSH2 0x5F9 PUSH2 0x1F4C JUMP JUMPDEST PUSH1 0x40 MLOAD PUSH2 0x606 SWAP2 SWAP1 PUSH2 0x3177 JUMP JUMPDEST PUSH1 0x40 MLOAD DUP1 SWAP2 SUB SWAP1 RETURN JUMPDEST CALLVALUE DUP1 ISZERO PUSH2 0x61A JUMPI PUSH0 DUP1 REVERT JUMPDEST POP PUSH2 0x623 PUSH2 0x1F5E JUMP JUMPDEST PUSH1 0x40 MLOAD PUSH2 0x630 SWAP2 SWAP1 PUSH2 0x326D JUMP JUMPDEST PUSH1 0x40 MLOAD DUP1 SWAP2 SUB SWAP1 RETURN JUMPDEST CALLVALUE DUP1 ISZERO PUSH2 0x644 JUMPI PUSH0 DUP1 REVERT JUMPDEST POP PUSH2 0x65F PUSH1 0x4 DUP1 CALLDATASIZE SUB DUP2 ADD SWAP1 PUSH2 0x65A SWAP2 SWAP1 PUSH2 0x31CE JUMP JUMPDEST PUSH2 0x1F87 JUMP JUMPDEST PUSH1 0x40 MLOAD PUSH2 0x66C SWAP2 SWAP1 PUSH2 0x3177 JUMP JUMPDEST PUSH1 0x40 MLOAD DUP1 SWAP2 SUB SWAP1 RETURN JUMPDEST CALLVALUE DUP1 ISZERO PUSH2 0x680 JUMPI PUSH0 DUP1 REVERT JUMPDEST POP PUSH2 0x69B PUSH1 0x4 DUP1 CALLDATASIZE SUB DUP2 ADD SWAP1 PUSH2 0x696 SWAP2 SWAP1 PUSH2 0x3115 JUMP JUMPDEST PUSH2 0x20F1 JUMP JUMPDEST PUSH1 0x40 MLOAD PUSH2 0x6A8 SWAP2 SWAP1 PUSH2 0x314F JUMP JUMPDEST PUSH1 0x40 MLOAD DUP1 SWAP2 SUB SWAP1 RETURN JUMPDEST CALLVALUE DUP1 ISZERO PUSH2 0x6BC JUMPI PUSH0 DUP1 REVERT JUMPDEST POP PUSH2 0x6D7 PUSH1 0x4 DUP1 CALLDATASIZE SUB DUP2 ADD SWAP1 PUSH2 0x6D2 SWAP2 SWAP1 PUSH2 0x32AE JUMP JUMPDEST PUSH2 0x2106 JUMP JUMPDEST PUSH1 0x40 MLOAD PUSH2 0x6E4 SWAP2 SWAP1 PUSH2 0x3177 JUMP JUMPDEST PUSH1 0x40 MLOAD DUP1 SWAP2 SUB SWAP1 RETURN JUMPDEST CALLVALUE DUP1 ISZERO PUSH2 0x6F8 JUMPI PUSH0 DUP1 REVERT JUMPDEST POP PUSH2 0x701 PUSH2 0x2194 JUMP JUMPDEST PUSH1 0x40 MLOAD PUSH2 0x70E SWAP2 SWAP1 PUSH2 0x314F JUMP JUMPDEST PUSH1 0x40 MLOAD DUP1 SWAP2 SUB SWAP1 RETURN JUMPDEST CALLVALUE DUP1 ISZERO PUSH2 0x722 JUMPI PUSH0 DUP1 REVERT JUMPDEST POP PUSH2 0x73D PUSH1 0x4 DUP1 CALLDATASIZE SUB DUP2 ADD SWAP1 PUSH2 0x738 SWAP2 SWAP1 PUSH2 0x31CE JUMP JUMPDEST PUSH2 0x219D JUMP JUMPDEST STOP JUMPDEST CALLVALUE DUP1 ISZERO PUSH2 0x74A JUMPI PUSH0 DUP1 REVERT JUMPDEST POP PUSH2 0x765 PUSH1 0x4 DUP1 CALLDATASIZE SUB DUP2 ADD SWAP1 PUSH2 0x760 SWAP2 SWAP1 PUSH2 0x3115 JUMP JUMPDEST PUSH2 0x2399 JUMP JUMPDEST STOP JUMPDEST CALLVALUE DUP1 ISZERO PUSH2 0x772 JUMPI PUSH0 DUP1 REVERT JUMPDEST POP PUSH2 0x77B PUSH2 0x241D JUMP JUMPDEST PUSH1 0x40 MLOAD PUSH2 0x788 SWAP2 SWAP1 PUSH2 0x314F JUMP JUMPDEST PUSH1 0x40 MLOAD DUP1 SWAP2 SUB SWAP1 RETURN JUMPDEST CALLVALUE DUP1 ISZERO PUSH2 0x79C JUMPI PUSH0 DUP1 REVERT JUMPDEST POP PUSH2 0x7B7 PUSH1 0x4 DUP1 CALLDATASIZE SUB DUP2 ADD SWAP1 PUSH2 0x7B2 SWAP2 SWAP1 PUSH2 0x3115 JUMP JUMPDEST PUSH2 0x2433 JUMP JUMPDEST PUSH1 0x40 MLOAD PUSH2 0x7C4 SWAP2 SWAP1 PUSH2 0x33E3 JUMP JUMPDEST PUSH1 0x40 MLOAD DUP1 SWAP2 SUB SWAP1 RETURN JUMPDEST CALLVALUE DUP1 ISZERO PUSH2 0x7D8 JUMPI PUSH0 DUP1 REVERT JUMPDEST POP PUSH2 0x7F3 PUSH1 0x4 DUP1 CALLDATASIZE SUB DUP2 ADD SWAP1 PUSH2 0x7EE SWAP2 SWAP1 PUSH2 0x3115 JUMP JUMPDEST PUSH2 0x2501 JUMP JUMPDEST PUSH1 0x40 MLOAD PUSH2 0x800 SWAP2 SWAP1 PUSH2 0x34D7 JUMP JUMPDEST PUSH1 0x40 MLOAD DUP1 SWAP2 SUB SWAP1 RETURN JUMPDEST PUSH1 0x60 PUSH1 0x10 PUSH0 DUP4 PUSH2 0xFFFF AND PUSH2 0xFFFF AND DUP2 MSTORE PUSH1 0x20 ADD SWAP1 DUP2 MSTORE PUSH1 0x20 ADD PUSH0 KECCAK256 PUSH1 0x1 ADD DUP1 SLOAD DUP1 PUSH1 0x20 MUL PUSH1 0x20 ADD PUSH1 0x40 MLOAD SWAP1 DUP2 ADD PUSH1 0x40 MSTORE DUP1 SWAP3 SWAP2 SWAP1 DUP2 DUP2 MSTORE PUSH1 0x20 ADD DUP3 DUP1 SLOAD DUP1 ISZERO PUSH2 0x86F JUMPI PUSH1 0x20 MUL DUP3 ADD SWAP2 SWAP1 PUSH0 MSTORE PUSH1 0x20 PUSH0 KECCAK256 SWAP1 JUMPDEST DUP2 SLOAD DUP2 MSTORE PUSH1 0x20 ADD SWAP1 PUSH1 0x1 ADD SWAP1 DUP1 DUP4 GT PUSH2 0x85B JUMPI JUMPDEST POP POP POP POP POP SWAP1 POP SWAP2 SWAP1 POP JUMP JUMPDEST PUSH0 PUSH32 0x88D61EB53B4243CE91EBF80A15234AAA7CF73E235C63450C3C7F00EE07CD1141 DUP7 DUP7 DUP7 TIMESTAMP DUP8 DUP8 PUSH1 0x40 MLOAD PUSH2 0x8B5 SWAP7 SWAP6 SWAP5 SWAP4 SWAP3 SWAP2 SWAP1 PUSH2 0x3551 JUMP JUMPDEST PUSH1 0x40 MLOAD DUP1 SWAP2 SUB SWAP1 LOG1 PUSH4 0x150B7A02 PUSH1 0xE0 SHL SWAP1 POP SWAP6 SWAP5 POP POP POP POP POP JUMP JUMPDEST PUSH2 0x8D8 PUSH2 0x260B JUMP JUMPDEST DUP1 PUSH1 0xA PUSH0 PUSH2 0x100 EXP DUP2 SLOAD DUP2 PUSH1 0xFF MUL NOT AND SWAP1 DUP4 ISZERO ISZERO MUL OR SWAP1 SSTORE POP POP JUMP JUMPDEST PUSH1 0xD PUSH1 0x20 MSTORE DUP1 PUSH0 MSTORE PUSH1 0x40 PUSH0 KECCAK256 PUSH0 SWAP2 POP SWAP1 POP SLOAD DUP2 JUMP JUMPDEST PUSH2 0x911 PUSH2 0x260B JUMP JUMPDEST PUSH1 0xA PUSH1 0x1 SWAP1 SLOAD SWAP1 PUSH2 0x100 EXP SWAP1 DIV PUSH20 0xFFFFFFFFFFFFFFFFFFFFFFFFFFFFFFFFFFFFFFFF AND PUSH20 0xFFFFFFFFFFFFFFFFFFFFFFFFFFFFFFFFFFFFFFFF AND PUSH4 0xF2FDE38B DUP3 PUSH1 0x40 MLOAD DUP3 PUSH4 0xFFFFFFFF AND PUSH1 0xE0 SHL DUP2 MSTORE PUSH1 0x4 ADD PUSH2 0x96C SWAP2 SWAP1 PUSH2 0x326D JUMP JUMPDEST PUSH0 PUSH1 0x40 MLOAD DUP1 DUP4 SUB DUP2 PUSH0 DUP8 DUP1 EXTCODESIZE ISZERO DUP1 ISZERO PUSH2 0x983 JUMPI PUSH0 DUP1 REVERT JUMPDEST POP GAS CALL ISZERO DUP1 ISZERO PUSH2 0x995 JUMPI RETURNDATASIZE PUSH0 DUP1 RETURNDATACOPY RETURNDATASIZE PUSH0 REVERT JUMPDEST POP POP POP POP POP JUMP JUMPDEST PUSH0 DUP1 PUSH1 0xB PUSH0 DUP5 PUSH20 0xFFFFFFFFFFFFFFFFFFFFFFFFFFFFFFFFFFFFFFFF AND PUSH20 0xFFFFFFFFFFFFFFFFFFFFFFFFFFFFFFFFFFFFFFFF AND DUP2 MSTORE PUSH1 0x20 ADD SWAP1 DUP2 MSTORE PUSH1 0x20 ADD PUSH0 KECCAK256 PUSH1 0x1 ADD PUSH0 SWAP1 SLOAD SWAP1 PUSH2 0x100 EXP SWAP1 DIV PUSH1 0xFF AND PUSH1 0xFF AND SUB PUSH2 0x9FB JUMPI PUSH0 SWAP1 POP PUSH2 0xA00 JUMP JUMPDEST PUSH1 0x1 SWAP1 POP JUMPDEST SWAP2 SWAP1 POP JUMP JUMPDEST PUSH0 PUSH1 0xE PUSH0 DUP4 PUSH20 0xFFFFFFFFFFFFFFFFFFFFFFFFFFFFFFFFFFFFFFFF AND PUSH20 0xFFFFFFFFFFFFFFFFFFFFFFFFFFFFFFFFFFFFFFFF AND DUP2 MSTORE PUSH1 0x20 ADD SWAP1 DUP2 MSTORE PUSH1 0x20 ADD PUSH0 KECCAK256 PUSH1 0x1 ADD PUSH0 SWAP1 SLOAD SWAP1 PUSH2 0x100 EXP SWAP1 DIV PUSH1 0xFF AND SWAP1 POP SWAP2 SWAP1 POP JUMP JUMPDEST PUSH2 0xA62 PUSH2 0x260B JUMP JUMPDEST PUSH1 0x6 PUSH1 0x3 SWAP1 SLOAD SWAP1 PUSH2 0x100 EXP SWAP1 DIV PUSH1 0xFF AND PUSH1 0xFF AND PUSH1 0x6 PUSH1 0x4 SWAP1 SLOAD SWAP1 PUSH2 0x100 EXP SWAP1 DIV PUSH1 0xFF AND PUSH1 0xFF AND GT ISZERO PUSH2 0xAC9 JUMPI PUSH1 0x40 MLOAD PUSH32 0x8C379A000000000000000000000000000000000000000000000000000000000 DUP2 MSTORE PUSH1 0x4 ADD PUSH2 0xAC0 SWAP1 PUSH2 0x3605 JUMP JUMPDEST PUSH1 0x40 MLOAD DUP1 SWAP2 SUB SWAP1 REVERT JUMPDEST DUP1 PUSH1 0xE PUSH0 DUP5 PUSH20 0xFFFFFFFFFFFFFFFFFFFFFFFFFFFFFFFFFFFFFFFF AND PUSH20 0xFFFFFFFFFFFFFFFFFFFFFFFFFFFFFFFFFFFFFFFF AND DUP2 MSTORE PUSH1 0x20 ADD SWAP1 DUP2 MSTORE PUSH1 0x20 ADD PUSH0 KECCAK256 PUSH1 0x1 ADD PUSH0 PUSH2 0x100 EXP DUP2 SLOAD DUP2 PUSH1 0xFF MUL NOT AND SWAP1 DUP4 ISZERO ISZERO MUL OR SWAP1 SSTORE POP DUP1 PUSH2 0xB46 JUMPI PUSH1 0x1 PUSH1 0x6 PUSH1 0x4 SWAP1 SLOAD SWAP1 PUSH2 0x100 EXP SWAP1 DIV PUSH1 0xFF AND PUSH2 0xB41 SWAP2 SWAP1 PUSH2 0x3623 JUMP JUMPDEST PUSH2 0xB63 JUMP JUMPDEST PUSH1 0x1 PUSH1 0x6 PUSH1 0x4 SWAP1 SLOAD SWAP1 PUSH2 0x100 EXP SWAP1 DIV PUSH1 0xFF AND PUSH2 0xB62 SWAP2 SWAP1 PUSH2 0x3657 JUMP JUMPDEST JUMPDEST PUSH1 0x6 PUSH1 0x4 PUSH2 0x100 EXP DUP2 SLOAD DUP2 PUSH1 0xFF MUL NOT AND SWAP1 DUP4 PUSH1 0xFF AND MUL OR SWAP1 SSTORE POP POP POP JUMP JUMPDEST CALLER PUSH20 0xFFFFFFFFFFFFFFFFFFFFFFFFFFFFFFFFFFFFFFFF AND PUSH1 0xA PUSH1 0x1 SWAP1 SLOAD SWAP1 PUSH2 0x100 EXP SWAP1 DIV PUSH20 0xFFFFFFFFFFFFFFFFFFFFFFFFFFFFFFFFFFFFFFFF AND PUSH20 0xFFFFFFFFFFFFFFFFFFFFFFFFFFFFFFFFFFFFFFFF AND PUSH4 0x6352211E DUP4 PUSH1 0x40 MLOAD DUP3 PUSH4 0xFFFFFFFF AND PUSH1 0xE0 SHL DUP2 MSTORE PUSH1 0x4 ADD PUSH2 0xBF3 SWAP2 SWAP1 PUSH2 0x314F JUMP JUMPDEST PUSH1 0x20 PUSH1 0x40 MLOAD DUP1 DUP4 SUB DUP2 DUP7 GAS STATICCALL ISZERO DUP1 ISZERO PUSH2 0xC0E JUMPI RETURNDATASIZE PUSH0 DUP1 RETURNDATACOPY RETURNDATASIZE PUSH0 REVERT JUMPDEST POP POP POP POP PUSH1 0x40 MLOAD RETURNDATASIZE PUSH1 0x1F NOT PUSH1 0x1F DUP3 ADD AND DUP3 ADD DUP1 PUSH1 0x40 MSTORE POP DUP2 ADD SWAP1 PUSH2 0xC32 SWAP2 SWAP1 PUSH2 0x369F JUMP JUMPDEST PUSH20 0xFFFFFFFFFFFFFFFFFFFFFFFFFFFFFFFFFFFFFFFF AND EQ PUSH2 0xC88 JUMPI PUSH1 0x40 MLOAD PUSH32 0x8C379A000000000000000000000000000000000000000000000000000000000 DUP2 MSTORE PUSH1 0x4 ADD PUSH2 0xC7F SWAP1 PUSH2 0x3714 JUMP JUMPDEST PUSH1 0x40 MLOAD DUP1 SWAP2 SUB SWAP1 REVERT JUMPDEST PUSH0 PUSH1 0x12 PUSH0 CALLER PUSH20 0xFFFFFFFFFFFFFFFFFFFFFFFFFFFFFFFFFFFFFFFF AND PUSH20 0xFFFFFFFFFFFFFFFFFFFFFFFFFFFFFFFFFFFFFFFF AND DUP2 MSTORE PUSH1 0x20 ADD SWAP1 DUP2 MSTORE PUSH1 0x20 ADD PUSH0 KECCAK256 SLOAD GT PUSH2 0xD07 JUMPI PUSH1 0x40 MLOAD PUSH32 0x8C379A000000000000000000000000000000000000000000000000000000000 DUP2 MSTORE PUSH1 0x4 ADD PUSH2 0xCFE SWAP1 PUSH2 0x377C JUMP JUMPDEST PUSH1 0x40 MLOAD DUP1 SWAP2 SUB SWAP1 REVERT JUMPDEST PUSH0 PUSH1 0xA PUSH1 0x1 SWAP1 SLOAD SWAP1 PUSH2 0x100 EXP SWAP1 DIV PUSH20 0xFFFFFFFFFFFFFFFFFFFFFFFFFFFFFFFFFFFFFFFF AND PUSH20 0xFFFFFFFFFFFFFFFFFFFFFFFFFFFFFFFFFFFFFFFF AND PUSH4 0x53BBC5EA DUP4 PUSH1 0x12 PUSH0 CALLER PUSH20 0xFFFFFFFFFFFFFFFFFFFFFFFFFFFFFFFFFFFFFFFF AND PUSH20 0xFFFFFFFFFFFFFFFFFFFFFFFFFFFFFFFFFFFFFFFF AND DUP2 MSTORE PUSH1 0x20 ADD SWAP1 DUP2 MSTORE PUSH1 0x20 ADD PUSH0 KECCAK256 SLOAD PUSH1 0x40 MLOAD DUP4 PUSH4 0xFFFFFFFF AND PUSH1 0xE0 SHL DUP2 MSTORE PUSH1 0x4 ADD PUSH2 0xDA2 SWAP3 SWAP2 SWAP1 PUSH2 0x3237 JUMP JUMPDEST PUSH1 0x20 PUSH1 0x40 MLOAD DUP1 DUP4 SUB DUP2 PUSH0 DUP8 GAS CALL ISZERO DUP1 ISZERO PUSH2 0xDBE JUMPI RETURNDATASIZE PUSH0 DUP1 RETURNDATACOPY RETURNDATASIZE PUSH0 REVERT JUMPDEST POP POP POP POP PUSH1 0x40 MLOAD RETURNDATASIZE PUSH1 0x1F NOT PUSH1 0x1F DUP3 ADD AND DUP3 ADD DUP1 PUSH1 0x40 MSTORE POP DUP2 ADD SWAP1 PUSH2 0xDE2 SWAP2 SWAP1 PUSH2 0x37AE JUMP JUMPDEST SWAP1 POP DUP1 PUSH2 0xDED JUMPI PUSH0 DUP1 REVERT JUMPDEST PUSH0 PUSH1 0x12 PUSH0 CALLER PUSH20 0xFFFFFFFFFFFFFFFFFFFFFFFFFFFFFFFFFFFFFFFF AND PUSH20 0xFFFFFFFFFFFFFFFFFFFFFFFFFFFFFFFFFFFFFFFF AND DUP2 MSTORE PUSH1 0x20 ADD SWAP1 DUP2 MSTORE PUSH1 0x20 ADD PUSH0 KECCAK256 DUP2 SWAP1 SSTORE POP POP POP JUMP JUMPDEST PUSH2 0xE3B PUSH2 0x260B JUMP JUMPDEST ADDRESS PUSH20 0xFFFFFFFFFFFFFFFFFFFFFFFFFFFFFFFFFFFFFFFF AND DUP3 PUSH20 0xFFFFFFFFFFFFFFFFFFFFFFFFFFFFFFFFFFFFFFFF AND PUSH4 0x6352211E DUP4 PUSH1 0x40 MLOAD DUP3 PUSH4 0xFFFFFFFF AND PUSH1 0xE0 SHL DUP2 MSTORE PUSH1 0x4 ADD PUSH2 0xE8B SWAP2 SWAP1 PUSH2 0x314F JUMP JUMPDEST PUSH1 0x20 PUSH1 0x40 MLOAD DUP1 DUP4 SUB DUP2 DUP7 GAS STATICCALL ISZERO DUP1 ISZERO PUSH2 0xEA6 JUMPI RETURNDATASIZE PUSH0 DUP1 RETURNDATACOPY RETURNDATASIZE PUSH0 REVERT JUMPDEST POP POP POP POP PUSH1 0x40 MLOAD RETURNDATASIZE PUSH1 0x1F NOT PUSH1 0x1F DUP3 ADD AND DUP3 ADD DUP1 PUSH1 0x40 MSTORE POP DUP2 ADD SWAP1 PUSH2 0xECA SWAP2 SWAP1 PUSH2 0x369F JUMP JUMPDEST PUSH20 0xFFFFFFFFFFFFFFFFFFFFFFFFFFFFFFFFFFFFFFFF AND EQ PUSH2 0xF20 JUMPI PUSH1 0x40 MLOAD PUSH32 0x8C379A000000000000000000000000000000000000000000000000000000000 DUP2 MSTORE PUSH1 0x4 ADD PUSH2 0xF17 SWAP1 PUSH2 0x3823 JUMP JUMPDEST PUSH1 0x40 MLOAD DUP1 SWAP2 SUB SWAP1 REVERT JUMPDEST DUP2 PUSH20 0xFFFFFFFFFFFFFFFFFFFFFFFFFFFFFFFFFFFFFFFF AND PUSH4 0x42842E0E ADDRESS CALLER DUP5 PUSH1 0x40 MLOAD DUP5 PUSH4 0xFFFFFFFF AND PUSH1 0xE0 SHL DUP2 MSTORE PUSH1 0x4 ADD PUSH2 0xF5D SWAP4 SWAP3 SWAP2 SWAP1 PUSH2 0x3841 JUMP JUMPDEST PUSH0 PUSH1 0x40 MLOAD DUP1 DUP4 SUB DUP2 PUSH0 DUP8 DUP1 EXTCODESIZE ISZERO DUP1 ISZERO PUSH2 0xF74 JUMPI PUSH0 DUP1 REVERT JUMPDEST POP GAS CALL ISZERO DUP1 ISZERO PUSH2 0xF86 JUMPI RETURNDATASIZE PUSH0 DUP1 RETURNDATACOPY RETURNDATASIZE PUSH0 REVERT JUMPDEST POP POP POP POP POP POP JUMP JUMPDEST PUSH0 PUSH1 0xC PUSH0 DUP4 PUSH20 0xFFFFFFFFFFFFFFFFFFFFFFFFFFFFFFFFFFFFFFFF AND PUSH20 0xFFFFFFFFFFFFFFFFFFFFFFFFFFFFFFFFFFFFFFFF AND DUP2 MSTORE PUSH1 0x20 ADD SWAP1 DUP2 MSTORE PUSH1 0x20 ADD PUSH0 KECCAK256 PUSH1 0x1 ADD PUSH0 DUP1 PUSH20 0xFFFFFFFFFFFFFFFFFFFFFFFFFFFFFFFFFFFFFFFF AND PUSH20 0xFFFFFFFFFFFFFFFFFFFFFFFFFFFFFFFFFFFFFFFF AND DUP2 MSTORE PUSH1 0x20 ADD SWAP1 DUP2 MSTORE PUSH1 0x20 ADD PUSH0 KECCAK256 SLOAD SWAP1 POP SWAP2 SWAP1 POP JUMP JUMPDEST PUSH0 DUP1 PUSH1 0x3 SLOAD SUB PUSH2 0x102A JUMPI PUSH6 0x886C98B76000 SWAP1 POP PUSH2 0x1054 JUMP JUMPDEST PUSH1 0x64 PUSH1 0x6E PUSH1 0x3 SLOAD PUSH2 0x103B SWAP2 SWAP1 PUSH2 0x3876 JUMP JUMPDEST PUSH2 0x1045 SWAP2 SWAP1 PUSH2 0x38E4 JUMP JUMPDEST PUSH1 0x3 SLOAD PUSH2 0x1052 SWAP2 SWAP1 PUSH2 0x2D85 JUMP JUMPDEST POP JUMPDEST SWAP1 JUMP JUMPDEST PUSH0 DUP2 SWAP1 POP PUSH0 PUSH1 0xE PUSH0 CALLER PUSH20 0xFFFFFFFFFFFFFFFFFFFFFFFFFFFFFFFFFFFFFFFF AND PUSH20 0xFFFFFFFFFFFFFFFFFFFFFFFFFFFFFFFFFFFFFFFF AND DUP2 MSTORE PUSH1 0x20 ADD SWAP1 DUP2 MSTORE PUSH1 0x20 ADD PUSH0 KECCAK256 PUSH1 0x1 ADD PUSH0 SWAP1 SLOAD SWAP1 PUSH2 0x100 EXP SWAP1 DIV PUSH1 0xFF AND PUSH2 0x10BA JUMPI PUSH2 0x10B5 PUSH2 0x2194 JUMP JUMPDEST PUSH2 0x10BC JUMP JUMPDEST PUSH0 JUMPDEST SWAP1 POP PUSH1 0x2 PUSH0 SWAP1 SLOAD SWAP1 PUSH2 0x100 EXP SWAP1 DIV PUSH1 0xFF AND PUSH1 0xFF AND PUSH1 0xB PUSH0 CALLER PUSH20 0xFFFFFFFFFFFFFFFFFFFFFFFFFFFFFFFFFFFFFFFF AND PUSH20 0xFFFFFFFFFFFFFFFFFFFFFFFFFFFFFFFFFFFFFFFF AND DUP2 MSTORE PUSH1 0x20 ADD SWAP1 DUP2 MSTORE PUSH1 0x20 ADD PUSH0 KECCAK256 PUSH1 0x1 ADD PUSH0 SWAP1 SLOAD SWAP1 PUSH2 0x100 EXP SWAP1 DIV PUSH1 0xFF AND PUSH1 0xFF AND LT PUSH2 0x1160 JUMPI PUSH1 0x40 MLOAD PUSH32 0x8C379A000000000000000000000000000000000000000000000000000000000 DUP2 MSTORE PUSH1 0x4 ADD PUSH2 0x1157 SWAP1 PUSH2 0x395E JUMP JUMPDEST PUSH1 0x40 MLOAD DUP1 SWAP2 SUB SWAP1 REVERT JUMPDEST DUP1 CALLVALUE EQ PUSH2 0x11A2 JUMPI PUSH1 0x40 MLOAD PUSH32 0x8C379A000000000000000000000000000000000000000000000000000000000 DUP2 MSTORE PUSH1 0x4 ADD PUSH2 0x1199 SWAP1 PUSH2 0x39C6 JUMP JUMPDEST PUSH1 0x40 MLOAD DUP1 SWAP2 SUB SWAP1 REVERT JUMPDEST PUSH2 0x2711 PUSH1 0x1 SLOAD LT DUP1 ISZERO PUSH2 0x11C0 JUMPI POP PUSH1 0xA PUSH0 SWAP1 SLOAD SWAP1 PUSH2 0x100 EXP SWAP1 DIV PUSH1 0xFF AND JUMPDEST PUSH2 0x11FF JUMPI PUSH1 0x40 MLOAD PUSH32 0x8C379A000000000000000000000000000000000000000000000000000000000 DUP2 MSTORE PUSH1 0x4 ADD PUSH2 0x11F6 SWAP1 PUSH2 0x3A2E JUMP JUMPDEST PUSH1 0x40 MLOAD DUP1 SWAP2 SUB SWAP1 REVERT JUMPDEST PUSH0 PUSH20 0xFFFFFFFFFFFFFFFFFFFFFFFFFFFFFFFFFFFFFFFF AND DUP3 PUSH20 0xFFFFFFFFFFFFFFFFFFFFFFFFFFFFFFFFFFFFFFFF AND EQ PUSH2 0x12B3 JUMPI PUSH2 0x123B DUP3 PUSH2 0x99C JUMP JUMPDEST DUP1 ISZERO PUSH2 0x1273 JUMPI POP CALLER PUSH20 0xFFFFFFFFFFFFFFFFFFFFFFFFFFFFFFFFFFFFFFFF AND DUP3 PUSH20 0xFFFFFFFFFFFFFFFFFFFFFFFFFFFFFFFFFFFFFFFF AND EQ ISZERO JUMPDEST PUSH2 0x12B2 JUMPI PUSH1 0x40 MLOAD PUSH32 0x8C379A000000000000000000000000000000000000000000000000000000000 DUP2 MSTORE PUSH1 0x4 ADD PUSH2 0x12A9 SWAP1 PUSH2 0x3A96 JUMP JUMPDEST PUSH1 0x40 MLOAD DUP1 SWAP2 SUB SWAP1 REVERT JUMPDEST JUMPDEST PUSH0 PUSH1 0x1 SLOAD SWAP1 POP PUSH0 PUSH1 0x6 PUSH0 SWAP1 SLOAD SWAP1 PUSH2 0x100 EXP SWAP1 DIV PUSH2 0xFFFF AND SWAP1 POP PUSH1 0xE PUSH0 CALLER PUSH20 0xFFFFFFFFFFFFFFFFFFFFFFFFFFFFFFFFFFFFFFFF AND PUSH20 0xFFFFFFFFFFFFFFFFFFFFFFFFFFFFFFFFFFFFFFFF AND DUP2 MSTORE PUSH1 0x20 ADD SWAP1 DUP2 MSTORE PUSH1 0x20 ADD PUSH0 KECCAK256 PUSH1 0x1 ADD PUSH0 SWAP1 SLOAD SWAP1 PUSH2 0x100 EXP SWAP1 DIV PUSH1 0xFF AND PUSH2 0x1B9A JUMPI PUSH0 PUSH1 0x64 PUSH1 0x8 PUSH0 SWAP1 SLOAD SWAP1 PUSH2 0x100 EXP SWAP1 DIV PUSH1 0xFF AND PUSH1 0xFF AND DUP6 PUSH2 0x133D SWAP2 SWAP1 PUSH2 0x3876 JUMP JUMPDEST PUSH2 0x1347 SWAP2 SWAP1 PUSH2 0x38E4 JUMP JUMPDEST SWAP1 POP PUSH0 PUSH1 0x64 PUSH1 0x7 SLOAD DUP7 PUSH2 0x135A SWAP2 SWAP1 PUSH2 0x3876 JUMP JUMPDEST PUSH2 0x1364 SWAP2 SWAP1 PUSH2 0x38E4 JUMP JUMPDEST SWAP1 POP PUSH1 0xA PUSH1 0x1 SWAP1 SLOAD SWAP1 PUSH2 0x100 EXP SWAP1 DIV PUSH20 0xFFFFFFFFFFFFFFFFFFFFFFFFFFFFFFFFFFFFFFFF AND PUSH20 0xFFFFFFFFFFFFFFFFFFFFFFFFFFFFFFFFFFFFFFFF AND PUSH4 0xCD279C7C CALLER DUP7 PUSH2 0x13AF DUP9 PUSH2 0x2692 JUMP JUMPDEST PUSH1 0x40 MLOAD DUP5 PUSH4 0xFFFFFFFF AND PUSH1 0xE0 SHL DUP2 MSTORE PUSH1 0x4 ADD PUSH2 0x13CD SWAP4 SWAP3 SWAP2 SWAP1 PUSH2 0x3B1E JUMP JUMPDEST PUSH0 PUSH1 0x40 MLOAD DUP1 DUP4 SUB DUP2 PUSH0 DUP8 DUP1 EXTCODESIZE ISZERO DUP1 ISZERO PUSH2 0x13E4 JUMPI PUSH0 DUP1 REVERT JUMPDEST POP GAS CALL ISZERO DUP1 ISZERO PUSH2 0x13F6 JUMPI RETURNDATASIZE PUSH0 DUP1 RETURNDATACOPY RETURNDATASIZE PUSH0 REVERT JUMPDEST POP POP POP POP PUSH2 0x1404 DUP4 DUP3 PUSH2 0x26C3 JUMP JUMPDEST PUSH2 0x140E DUP4 DUP6 PUSH2 0x2736 JUMP JUMPDEST PUSH1 0x1 DUP1 PUSH0 DUP3 DUP3 SLOAD PUSH2 0x141F SWAP2 SWAP1 PUSH2 0x2D85 JUMP JUMPDEST SWAP3 POP POP DUP2 SWAP1 SSTORE POP PUSH1 0x1 PUSH1 0xB PUSH0 CALLER PUSH20 0xFFFFFFFFFFFFFFFFFFFFFFFFFFFFFFFFFFFFFFFF AND PUSH20 0xFFFFFFFFFFFFFFFFFFFFFFFFFFFFFFFFFFFFFFFF AND DUP2 MSTORE PUSH1 0x20 ADD SWAP1 DUP2 MSTORE PUSH1 0x20 ADD PUSH0 KECCAK256 PUSH1 0x1 ADD PUSH0 DUP3 DUP3 DUP3 SWAP1 SLOAD SWAP1 PUSH2 0x100 EXP SWAP1 DIV PUSH1 0xFF AND PUSH2 0x1482 SWAP2 SWAP1 PUSH2 0x3657 JUMP JUMPDEST SWAP3 POP PUSH2 0x100 EXP DUP2 SLOAD DUP2 PUSH1 0xFF MUL NOT AND SWAP1 DUP4 PUSH1 0xFF AND MUL OR SWAP1 SSTORE POP PUSH1 0x1 PUSH1 0x9 PUSH0 DUP3 DUP3 SLOAD PUSH2 0x14AC SWAP2 SWAP1 PUSH2 0x2D85 JUMP JUMPDEST SWAP3 POP POP DUP2 SWAP1 SSTORE POP PUSH0 PUSH20 0xFFFFFFFFFFFFFFFFFFFFFFFFFFFFFFFFFFFFFFFF AND DUP7 PUSH20 0xFFFFFFFFFFFFFFFFFFFFFFFFFFFFFFFFFFFFFFFF AND EQ PUSH2 0x17C6 JUMPI PUSH0 PUSH1 0xB PUSH0 DUP9 PUSH20 0xFFFFFFFFFFFFFFFFFFFFFFFFFFFFFFFFFFFFFFFF AND PUSH20 0xFFFFFFFFFFFFFFFFFFFFFFFFFFFFFFFFFFFFFFFF AND DUP2 MSTORE PUSH1 0x20 ADD SWAP1 DUP2 MSTORE PUSH1 0x20 ADD PUSH0 KECCAK256 PUSH0 ADD SLOAD SWAP1 POP PUSH1 0x1 PUSH1 0xB PUSH0 DUP10 PUSH20 0xFFFFFFFFFFFFFFFFFFFFFFFFFFFFFFFFFFFFFFFF AND PUSH20 0xFFFFFFFFFFFFFFFFFFFFFFFFFFFFFFFFFFFFFFFF AND DUP2 MSTORE PUSH1 0x20 ADD SWAP1 DUP2 MSTORE PUSH1 0x20 ADD PUSH0 KECCAK256 PUSH0 ADD PUSH0 DUP3 DUP3 SLOAD PUSH2 0x1578 SWAP2 SWAP1 PUSH2 0x2D85 JUMP JUMPDEST SWAP3 POP POP DUP2 SWAP1 SSTORE POP DUP3 PUSH1 0xC PUSH0 DUP10 PUSH20 0xFFFFFFFFFFFFFFFFFFFFFFFFFFFFFFFFFFFFFFFF AND PUSH20 0xFFFFFFFFFFFFFFFFFFFFFFFFFFFFFFFFFFFFFFFF AND DUP2 MSTORE PUSH1 0x20 ADD SWAP1 DUP2 MSTORE PUSH1 0x20 ADD PUSH0 KECCAK256 PUSH1 0x1 ADD PUSH0 DUP1 PUSH20 0xFFFFFFFFFFFFFFFFFFFFFFFFFFFFFFFFFFFFFFFF AND PUSH20 0xFFFFFFFFFFFFFFFFFFFFFFFFFFFFFFFFFFFFFFFF AND DUP2 MSTORE PUSH1 0x20 ADD SWAP1 DUP2 MSTORE PUSH1 0x20 ADD PUSH0 KECCAK256 PUSH0 DUP3 DUP3 SLOAD PUSH2 0x1609 SWAP2 SWAP1 PUSH2 0x2D85 JUMP JUMPDEST SWAP3 POP POP DUP2 SWAP1 SSTORE POP CALLER PUSH1 0xC PUSH0 DUP10 PUSH20 0xFFFFFFFFFFFFFFFFFFFFFFFFFFFFFFFFFFFFFFFF AND PUSH20 0xFFFFFFFFFFFFFFFFFFFFFFFFFFFFFFFFFFFFFFFF AND DUP2 MSTORE PUSH1 0x20 ADD SWAP1 DUP2 MSTORE PUSH1 0x20 ADD PUSH0 KECCAK256 PUSH1 0x2 ADD PUSH0 DUP4 DUP2 MSTORE PUSH1 0x20 ADD SWAP1 DUP2 MSTORE PUSH1 0x20 ADD PUSH0 KECCAK256 PUSH0 PUSH2 0x100 EXP DUP2 SLOAD DUP2 PUSH20 0xFFFFFFFFFFFFFFFFFFFFFFFFFFFFFFFFFFFFFFFF MUL NOT AND SWAP1 DUP4 PUSH20 0xFFFFFFFFFFFFFFFFFFFFFFFFFFFFFFFFFFFFFFFF AND MUL OR SWAP1 SSTORE POP DUP7 PUSH1 0xC PUSH0 CALLER PUSH20 0xFFFFFFFFFFFFFFFFFFFFFFFFFFFFFFFFFFFFFFFF AND PUSH20 0xFFFFFFFFFFFFFFFFFFFFFFFFFFFFFFFFFFFFFFFF AND DUP2 MSTORE PUSH1 0x20 ADD SWAP1 DUP2 MSTORE PUSH1 0x20 ADD PUSH0 KECCAK256 PUSH0 ADD PUSH0 PUSH2 0x100 EXP DUP2 SLOAD DUP2 PUSH20 0xFFFFFFFFFFFFFFFFFFFFFFFFFFFFFFFFFFFFFFFF MUL NOT AND SWAP1 DUP4 PUSH20 0xFFFFFFFFFFFFFFFFFFFFFFFFFFFFFFFFFFFFFFFF AND MUL OR SWAP1 SSTORE POP PUSH1 0x5 SLOAD PUSH1 0x12 PUSH0 DUP10 PUSH20 0xFFFFFFFFFFFFFFFFFFFFFFFFFFFFFFFFFFFFFFFF AND PUSH20 0xFFFFFFFFFFFFFFFFFFFFFFFFFFFFFFFFFFFFFFFF AND DUP2 MSTORE PUSH1 0x20 ADD SWAP1 DUP2 MSTORE PUSH1 0x20 ADD PUSH0 KECCAK256 PUSH0 DUP3 DUP3 SLOAD PUSH2 0x1768 SWAP2 SWAP1 PUSH2 0x2D85 JUMP JUMPDEST SWAP3 POP POP DUP2 SWAP1 SSTORE POP PUSH1 0x5 SLOAD PUSH1 0x12 PUSH0 CALLER PUSH20 0xFFFFFFFFFFFFFFFFFFFFFFFFFFFFFFFFFFFFFFFF AND PUSH20 0xFFFFFFFFFFFFFFFFFFFFFFFFFFFFFFFFFFFFFFFF AND DUP2 MSTORE PUSH1 0x20 ADD SWAP1 DUP2 MSTORE PUSH1 0x20 ADD PUSH0 KECCAK256 PUSH0 DUP3 DUP3 SLOAD PUSH2 0x17BD SWAP2 SWAP1 PUSH2 0x2D85 JUMP JUMPDEST SWAP3 POP POP DUP2 SWAP1 SSTORE POP POP JUMPDEST PUSH0 PUSH20 0xFFFFFFFFFFFFFFFFFFFFFFFFFFFFFFFFFFFFFFFF AND DUP7 PUSH20 0xFFFFFFFFFFFFFFFFFFFFFFFFFFFFFFFFFFFFFFFF AND EQ DUP1 ISZERO PUSH2 0x188B JUMPI POP PUSH0 PUSH20 0xFFFFFFFFFFFFFFFFFFFFFFFFFFFFFFFFFFFFFFFF AND PUSH1 0xC PUSH0 CALLER PUSH20 0xFFFFFFFFFFFFFFFFFFFFFFFFFFFFFFFFFFFFFFFF AND PUSH20 0xFFFFFFFFFFFFFFFFFFFFFFFFFFFFFFFFFFFFFFFF AND DUP2 MSTORE PUSH1 0x20 ADD SWAP1 DUP2 MSTORE PUSH1 0x20 ADD PUSH0 KECCAK256 PUSH0 ADD PUSH0 SWAP1 SLOAD SWAP1 PUSH2 0x100 EXP SWAP1 DIV PUSH20 0xFFFFFFFFFFFFFFFFFFFFFFFFFFFFFFFFFFFFFFFF AND PUSH20 0xFFFFFFFFFFFFFFFFFFFFFFFFFFFFFFFFFFFFFFFF AND EQ ISZERO JUMPDEST ISZERO PUSH2 0x1A2D JUMPI PUSH1 0xC PUSH0 CALLER PUSH20 0xFFFFFFFFFFFFFFFFFFFFFFFFFFFFFFFFFFFFFFFF AND PUSH20 0xFFFFFFFFFFFFFFFFFFFFFFFFFFFFFFFFFFFFFFFF AND DUP2 MSTORE PUSH1 0x20 ADD SWAP1 DUP2 MSTORE PUSH1 0x20 ADD PUSH0 KECCAK256 PUSH0 ADD PUSH0 SWAP1 SLOAD SWAP1 PUSH2 0x100 EXP SWAP1 DIV PUSH20 0xFFFFFFFFFFFFFFFFFFFFFFFFFFFFFFFFFFFFFFFF AND SWAP6 POP DUP2 PUSH1 0xC PUSH0 DUP9 PUSH20 0xFFFFFFFFFFFFFFFFFFFFFFFFFFFFFFFFFFFFFFFF AND PUSH20 0xFFFFFFFFFFFFFFFFFFFFFFFFFFFFFFFFFFFFFFFF AND DUP2 MSTORE PUSH1 0x20 ADD SWAP1 DUP2 MSTORE PUSH1 0x20 ADD PUSH0 KECCAK256 PUSH1 0x1 ADD PUSH0 DUP1 PUSH20 0xFFFFFFFFFFFFFFFFFFFFFFFFFFFFFFFFFFFFFFFF AND PUSH20 0xFFFFFFFFFFFFFFFFFFFFFFFFFFFFFFFFFFFFFFFF AND DUP2 MSTORE PUSH1 0x20 ADD SWAP1 DUP2 MSTORE PUSH1 0x20 ADD PUSH0 KECCAK256 PUSH0 DUP3 DUP3 SLOAD PUSH2 0x197B SWAP2 SWAP1 PUSH2 0x2D85 JUMP JUMPDEST SWAP3 POP POP DUP2 SWAP1 SSTORE POP PUSH1 0x5 SLOAD PUSH1 0x12 PUSH0 DUP9 PUSH20 0xFFFFFFFFFFFFFFFFFFFFFFFFFFFFFFFFFFFFFFFF AND PUSH20 0xFFFFFFFFFFFFFFFFFFFFFFFFFFFFFFFFFFFFFFFF AND DUP2 MSTORE PUSH1 0x20 ADD SWAP1 DUP2 MSTORE PUSH1 0x20 ADD PUSH0 KECCAK256 PUSH0 DUP3 DUP3 SLOAD PUSH2 0x19D0 SWAP2 SWAP1 PUSH2 0x2D85 JUMP JUMPDEST SWAP3 POP POP DUP2 SWAP1 SSTORE POP PUSH1 0x5 SLOAD PUSH1 0x12 PUSH0 CALLER PUSH20 0xFFFFFFFFFFFFFFFFFFFFFFFFFFFFFFFFFFFFFFFF AND PUSH20 0xFFFFFFFFFFFFFFFFFFFFFFFFFFFFFFFFFFFFFFFF AND DUP2 MSTORE PUSH1 0x20 ADD SWAP1 DUP2 MSTORE PUSH1 0x20 ADD PUSH0 KECCAK256 PUSH0 DUP3 DUP3 SLOAD PUSH2 0x1A25 SWAP2 SWAP1 PUSH2 0x2D85 JUMP JUMPDEST SWAP3 POP POP DUP2 SWAP1 SSTORE POP JUMPDEST PUSH0 PUSH1 0x40 MLOAD DUP1 PUSH1 0x60 ADD PUSH1 0x40 MSTORE DUP1 DUP7 DUP2 MSTORE PUSH1 0x20 ADD DUP6 PUSH2 0xFFFF AND DUP2 MSTORE PUSH1 0x20 ADD CALLVALUE DUP2 MSTORE POP SWAP1 POP PUSH1 0xB PUSH0 CALLER PUSH20 0xFFFFFFFFFFFFFFFFFFFFFFFFFFFFFFFFFFFFFFFF AND PUSH20 0xFFFFFFFFFFFFFFFFFFFFFFFFFFFFFFFFFFFFFFFF AND DUP2 MSTORE PUSH1 0x20 ADD SWAP1 DUP2 MSTORE PUSH1 0x20 ADD PUSH0 KECCAK256 PUSH1 0x2 ADD DUP2 SWAP1 DUP1 PUSH1 0x1 DUP2 SLOAD ADD DUP1 DUP3 SSTORE DUP1 SWAP2 POP POP PUSH1 0x1 SWAP1 SUB SWAP1 PUSH0 MSTORE PUSH1 0x20 PUSH0 KECCAK256 SWAP1 PUSH1 0x3 MUL ADD PUSH0 SWAP1 SWAP2 SWAP1 SWAP2 SWAP1 SWAP2 POP PUSH0 DUP3 ADD MLOAD DUP2 PUSH0 ADD SSTORE PUSH1 0x20 DUP3 ADD MLOAD DUP2 PUSH1 0x1 ADD PUSH0 PUSH2 0x100 EXP DUP2 SLOAD DUP2 PUSH2 0xFFFF MUL NOT AND SWAP1 DUP4 PUSH2 0xFFFF AND MUL OR SWAP1 SSTORE POP PUSH1 0x40 DUP3 ADD MLOAD DUP2 PUSH1 0x2 ADD SSTORE POP POP DUP2 DUP7 PUSH2 0x1AF8 SWAP2 SWAP1 PUSH2 0x3B5A JUMP JUMPDEST SWAP6 POP PUSH0 PUSH20 0xFFFFFFFFFFFFFFFFFFFFFFFFFFFFFFFFFFFFFFFF AND DUP8 PUSH20 0xFFFFFFFFFFFFFFFFFFFFFFFFFFFFFFFFFFFFFFFF AND EQ PUSH2 0x1B3E JUMPI DUP3 DUP7 PUSH2 0x1B39 SWAP2 SWAP1 PUSH2 0x3B5A JUMP JUMPDEST PUSH2 0x1B40 JUMP JUMPDEST DUP6 JUMPDEST PUSH1 0xD PUSH0 DUP1 PUSH20 0xFFFFFFFFFFFFFFFFFFFFFFFFFFFFFFFFFFFFFFFF AND PUSH20 0xFFFFFFFFFFFFFFFFFFFFFFFFFFFFFFFFFFFFFFFF AND DUP2 MSTORE PUSH1 0x20 ADD SWAP1 DUP2 MSTORE PUSH1 0x20 ADD PUSH0 KECCAK256 PUSH0 DUP3 DUP3 SLOAD PUSH2 0x1B8B SWAP2 SWAP1 PUSH2 0x2D85 JUMP JUMPDEST SWAP3 POP POP DUP2 SWAP1 SSTORE POP POP POP POP PUSH2 0x1D9E JUMP JUMPDEST PUSH1 0xA PUSH1 0x1 SWAP1 SLOAD SWAP1 PUSH2 0x100 EXP SWAP1 DIV PUSH20 0xFFFFFFFFFFFFFFFFFFFFFFFFFFFFFFFFFFFFFFFF AND PUSH20 0xFFFFFFFFFFFFFFFFFFFFFFFFFFFFFFFFFFFFFFFF AND PUSH4 0xCD279C7C CALLER DUP5 PUSH2 0x1BE3 DUP7 PUSH2 0x2692 JUMP JUMPDEST PUSH1 0x40 MLOAD DUP5 PUSH4 0xFFFFFFFF AND PUSH1 0xE0 SHL DUP2 MSTORE PUSH1 0x4 ADD PUSH2 0x1C01 SWAP4 SWAP3 SWAP2 SWAP1 PUSH2 0x3B1E JUMP JUMPDEST PUSH0 PUSH1 0x40 MLOAD DUP1 DUP4 SUB DUP2 PUSH0 DUP8 DUP1 EXTCODESIZE ISZERO DUP1 ISZERO PUSH2 0x1C18 JUMPI PUSH0 DUP1 REVERT JUMPDEST POP GAS CALL ISZERO DUP1 ISZERO PUSH2 0x1C2A JUMPI RETURNDATASIZE PUSH0 DUP1 RETURNDATACOPY RETURNDATASIZE PUSH0 REVERT JUMPDEST POP POP POP POP PUSH2 0x1C38 DUP2 DUP4 PUSH2 0x2736 JUMP JUMPDEST PUSH1 0x1 DUP1 PUSH0 DUP3 DUP3 SLOAD PUSH2 0x1C49 SWAP2 SWAP1 PUSH2 0x2D85 JUMP JUMPDEST SWAP3 POP POP DUP2 SWAP1 SSTORE POP PUSH1 0x1 PUSH1 0xB PUSH0 CALLER PUSH20 0xFFFFFFFFFFFFFFFFFFFFFFFFFFFFFFFFFFFFFFFF AND PUSH20 0xFFFFFFFFFFFFFFFFFFFFFFFFFFFFFFFFFFFFFFFF AND DUP2 MSTORE PUSH1 0x20 ADD SWAP1 DUP2 MSTORE PUSH1 0x20 ADD PUSH0 KECCAK256 PUSH1 0x1 ADD PUSH0 DUP3 DUP3 DUP3 SWAP1 SLOAD SWAP1 PUSH2 0x100 EXP SWAP1 DIV PUSH1 0xFF AND PUSH2 0x1CAC SWAP2 SWAP1 PUSH2 0x3657 JUMP JUMPDEST SWAP3 POP PUSH2 0x100 EXP DUP2 SLOAD DUP2 PUSH1 0xFF MUL NOT AND SWAP1 DUP4 PUSH1 0xFF AND MUL OR SWAP1 SSTORE POP PUSH1 0x1 PUSH1 0x9 PUSH0 DUP3 DUP3 SLOAD PUSH2 0x1CD6 SWAP2 SWAP1 PUSH2 0x2D85 JUMP JUMPDEST SWAP3 POP POP DUP2 SWAP1 SSTORE POP PUSH0 PUSH1 0x40 MLOAD DUP1 PUSH1 0x60 ADD PUSH1 0x40 MSTORE DUP1 DUP5 DUP2 MSTORE PUSH1 0x20 ADD DUP4 PUSH2 0xFFFF AND DUP2 MSTORE PUSH1 0x20 ADD CALLVALUE DUP2 MSTORE POP SWAP1 POP PUSH1 0xB PUSH0 CALLER PUSH20 0xFFFFFFFFFFFFFFFFFFFFFFFFFFFFFFFFFFFFFFFF AND PUSH20 0xFFFFFFFFFFFFFFFFFFFFFFFFFFFFFFFFFFFFFFFF AND DUP2 MSTORE PUSH1 0x20 ADD SWAP1 DUP2 MSTORE PUSH1 0x20 ADD PUSH0 KECCAK256 PUSH1 0x2 ADD DUP2 SWAP1 DUP1 PUSH1 0x1 DUP2 SLOAD ADD DUP1 DUP3 SSTORE DUP1 SWAP2 POP POP PUSH1 0x1 SWAP1 SUB SWAP1 PUSH0 MSTORE PUSH1 0x20 PUSH0 KECCAK256 SWAP1 PUSH1 0x3 MUL ADD PUSH0 SWAP1 SWAP2 SWAP1 SWAP2 SWAP1 SWAP2 POP PUSH0 DUP3 ADD MLOAD DUP2 PUSH0 ADD SSTORE PUSH1 0x20 DUP3 ADD MLOAD DUP2 PUSH1 0x1 ADD PUSH0 PUSH2 0x100 EXP DUP2 SLOAD DUP2 PUSH2 0xFFFF MUL NOT AND SWAP1 DUP4 PUSH2 0xFFFF AND MUL OR SWAP1 SSTORE POP PUSH1 0x40 DUP3 ADD MLOAD DUP2 PUSH1 0x2 ADD SSTORE POP POP POP JUMPDEST PUSH1 0x4 SLOAD PUSH1 0x9 SLOAD LT PUSH2 0x1E1E JUMPI PUSH2 0x1DCF DUP2 PUSH1 0x10 PUSH0 DUP5 PUSH2 0xFFFF AND PUSH2 0xFFFF AND DUP2 MSTORE PUSH1 0x20 ADD SWAP1 DUP2 MSTORE PUSH1 0x20 ADD PUSH0 KECCAK256 PUSH1 0x2 ADD SLOAD PUSH2 0x2780 JUMP JUMPDEST PUSH0 PUSH1 0x9 DUP2 SWAP1 SSTORE POP PUSH1 0x1 PUSH1 0x6 PUSH0 DUP3 DUP3 DUP3 SWAP1 SLOAD SWAP1 PUSH2 0x100 EXP SWAP1 DIV PUSH2 0xFFFF AND PUSH2 0x1DF5 SWAP2 SWAP1 PUSH2 0x3B8D JUMP JUMPDEST SWAP3 POP PUSH2 0x100 EXP DUP2 SLOAD DUP2 PUSH2 0xFFFF MUL NOT AND SWAP1 DUP4 PUSH2 0xFFFF AND MUL OR SWAP1 SSTORE POP PUSH2 0x1E17 PUSH2 0x1012 JUMP JUMPDEST PUSH1 0x3 DUP2 SWAP1 SSTORE POP JUMPDEST POP POP POP POP POP JUMP JUMPDEST PUSH0 DUP1 PUSH1 0x10 PUSH0 DUP5 PUSH2 0xFFFF AND PUSH2 0xFFFF AND DUP2 MSTORE PUSH1 0x20 ADD SWAP1 DUP2 MSTORE PUSH1 0x20 ADD PUSH0 KECCAK256 PUSH1 0x2 ADD SLOAD PUSH1 0x10 PUSH0 DUP6 PUSH2 0xFFFF AND PUSH2 0xFFFF AND DUP2 MSTORE PUSH1 0x20 ADD SWAP1 DUP2 MSTORE PUSH1 0x20 ADD PUSH0 KECCAK256 PUSH1 0x3 ADD SLOAD SWAP2 POP SWAP2 POP SWAP2 POP SWAP2 JUMP JUMPDEST PUSH2 0x1E72 PUSH2 0x260B JUMP JUMPDEST PUSH2 0x1E7B PUSH0 PUSH2 0x2891 JUMP JUMPDEST JUMP JUMPDEST PUSH0 DUP1 PUSH0 SWAP1 SLOAD SWAP1 PUSH2 0x100 EXP SWAP1 DIV PUSH20 0xFFFFFFFFFFFFFFFFFFFFFFFFFFFFFFFFFFFFFFFF AND SWAP1 POP SWAP1 JUMP JUMPDEST PUSH0 PUSH1 0x1 DUP1 SLOAD PUSH2 0x1EB3 SWAP2 SWAP1 PUSH2 0x3B5A JUMP JUMPDEST SWAP1 POP SWAP1 JUMP JUMPDEST PUSH0 PUSH1 0x6 PUSH0 SWAP1 SLOAD SWAP1 PUSH2 0x100 EXP SWAP1 DIV PUSH2 0xFFFF AND SWAP1 POP SWAP1 JUMP JUMPDEST PUSH0 PUSH1 0xC PUSH0 DUP5 PUSH20 0xFFFFFFFFFFFFFFFFFFFFFFFFFFFFFFFFFFFFFFFF AND PUSH20 0xFFFFFFFFFFFFFFFFFFFFFFFFFFFFFFFFFFFFFFFF AND DUP2 MSTORE PUSH1 0x20 ADD SWAP1 DUP2 MSTORE PUSH1 0x20 ADD PUSH0 KECCAK256 PUSH1 0x2 ADD PUSH0 DUP4 DUP2 MSTORE PUSH1 0x20 ADD SWAP1 DUP2 MSTORE PUSH1 0x20 ADD PUSH0 KECCAK256 PUSH0 SWAP1 SLOAD SWAP1 PUSH2 0x100 EXP SWAP1 DIV PUSH20 0xFFFFFFFFFFFFFFFFFFFFFFFFFFFFFFFFFFFFFFFF AND SWAP1 POP SWAP3 SWAP2 POP POP JUMP JUMPDEST PUSH1 0x9 SLOAD DUP2 JUMP JUMPDEST PUSH1 0xA PUSH0 SWAP1 SLOAD SWAP1 PUSH2 0x100 EXP SWAP1 DIV PUSH1 0xFF AND DUP2 JUMP JUMPDEST PUSH0 PUSH1 0xA PUSH1 0x1 SWAP1 SLOAD SWAP1 PUSH2 0x100 EXP SWAP1 DIV PUSH20 0xFFFFFFFFFFFFFFFFFFFFFFFFFFFFFFFFFFFFFFFF AND SWAP1 POP SWAP1 JUMP JUMPDEST PUSH0 DUP2 PUSH1 0xC PUSH0 CALLER PUSH20 0xFFFFFFFFFFFFFFFFFFFFFFFFFFFFFFFFFFFFFFFF AND PUSH20 0xFFFFFFFFFFFFFFFFFFFFFFFFFFFFFFFFFFFFFFFF AND DUP2 MSTORE PUSH1 0x20 ADD SWAP1 DUP2 MSTORE PUSH1 0x20 ADD PUSH0 KECCAK256 PUSH1 0x1 ADD PUSH0 DUP1 PUSH20 0xFFFFFFFFFFFFFFFFFFFFFFFFFFFFFFFFFFFFFFFF AND PUSH20 0xFFFFFFFFFFFFFFFFFFFFFFFFFFFFFFFFFFFFFFFF AND DUP2 MSTORE PUSH1 0x20 ADD SWAP1 DUP2 MSTORE PUSH1 0x20 ADD PUSH0 KECCAK256 SLOAD LT ISZERO PUSH2 0x200F JUMPI PUSH0 DUP1 REVERT JUMPDEST PUSH0 CALLER PUSH20 0xFFFFFFFFFFFFFFFFFFFFFFFFFFFFFFFFFFFFFFFF AND PUSH2 0x8FC DUP5 SWAP1 DUP2 ISZERO MUL SWAP1 PUSH1 0x40 MLOAD PUSH0 PUSH1 0x40 MLOAD DUP1 DUP4 SUB DUP2 DUP6 DUP9 DUP9 CALL SWAP4 POP POP POP POP SWAP1 POP DUP1 ISZERO PUSH2 0x20E7 JUMPI DUP3 PUSH1 0xC PUSH0 CALLER PUSH20 0xFFFFFFFFFFFFFFFFFFFFFFFFFFFFFFFFFFFFFFFF AND PUSH20 0xFFFFFFFFFFFFFFFFFFFFFFFFFFFFFFFFFFFFFFFF AND DUP2 MSTORE PUSH1 0x20 ADD SWAP1 DUP2 MSTORE PUSH1 0x20 ADD PUSH0 KECCAK256 PUSH1 0x1 ADD PUSH0 DUP1 PUSH20 0xFFFFFFFFFFFFFFFFFFFFFFFFFFFFFFFFFFFFFFFF AND PUSH20 0xFFFFFFFFFFFFFFFFFFFFFFFFFFFFFFFFFFFFFFFF AND DUP2 MSTORE PUSH1 0x20 ADD SWAP1 DUP2 MSTORE PUSH1 0x20 ADD PUSH0 KECCAK256 PUSH0 DUP3 DUP3 SLOAD PUSH2 0x20D6 SWAP2 SWAP1 PUSH2 0x3B5A JUMP JUMPDEST SWAP3 POP POP DUP2 SWAP1 SSTORE POP PUSH1 0x1 SWAP2 POP POP PUSH2 0x20EC JUMP JUMPDEST PUSH0 SWAP2 POP POP JUMPDEST SWAP2 SWAP1 POP JUMP JUMPDEST PUSH1 0x12 PUSH1 0x20 MSTORE DUP1 PUSH0 MSTORE PUSH1 0x40 PUSH0 KECCAK256 PUSH0 SWAP2 POP SWAP1 POP SLOAD DUP2 JUMP JUMPDEST PUSH0 PUSH2 0x210F PUSH2 0x260B JUMP JUMPDEST DUP3 PUSH1 0xD PUSH0 DUP1 PUSH20 0xFFFFFFFFFFFFFFFFFFFFFFFFFFFFFFFFFFFFFFFF AND PUSH20 0xFFFFFFFFFFFFFFFFFFFFFFFFFFFFFFFFFFFFFFFF AND DUP2 MSTORE PUSH1 0x20 ADD SWAP1 DUP2 MSTORE PUSH1 0x20 ADD PUSH0 KECCAK256 SLOAD LT ISZERO PUSH2 0x2158 JUMPI PUSH0 DUP1 REVERT JUMPDEST DUP2 PUSH20 0xFFFFFFFFFFFFFFFFFFFFFFFFFFFFFFFFFFFFFFFF AND PUSH2 0x8FC DUP5 SWAP1 DUP2 ISZERO MUL SWAP1 PUSH1 0x40 MLOAD PUSH0 PUSH1 0x40 MLOAD DUP1 DUP4 SUB DUP2 DUP6 DUP9 DUP9 CALL SWAP4 POP POP POP POP SWAP1 POP SWAP3 SWAP2 POP POP JUMP JUMPDEST PUSH0 PUSH1 0x3 SLOAD SWAP1 POP SWAP1 JUMP JUMPDEST CALLER PUSH20 0xFFFFFFFFFFFFFFFFFFFFFFFFFFFFFFFFFFFFFFFF AND PUSH1 0xA PUSH1 0x1 SWAP1 SLOAD SWAP1 PUSH2 0x100 EXP SWAP1 DIV PUSH20 0xFFFFFFFFFFFFFFFFFFFFFFFFFFFFFFFFFFFFFFFF AND PUSH20 0xFFFFFFFFFFFFFFFFFFFFFFFFFFFFFFFFFFFFFFFF AND PUSH4 0x6352211E DUP4 PUSH1 0x40 MLOAD DUP3 PUSH4 0xFFFFFFFF AND PUSH1 0xE0 SHL DUP2 MSTORE PUSH1 0x4 ADD PUSH2 0x220F SWAP2 SWAP1 PUSH2 0x314F JUMP JUMPDEST PUSH1 0x20 PUSH1 0x40 MLOAD DUP1 DUP4 SUB DUP2 DUP7 GAS STATICCALL ISZERO DUP1 ISZERO PUSH2 0x222A JUMPI RETURNDATASIZE PUSH0 DUP1 RETURNDATACOPY RETURNDATASIZE PUSH0 REVERT JUMPDEST POP POP POP POP PUSH1 0x40 MLOAD RETURNDATASIZE PUSH1 0x1F NOT PUSH1 0x1F DUP3 ADD AND DUP3 ADD DUP1 PUSH1 0x40 MSTORE POP DUP2 ADD SWAP1 PUSH2 0x224E SWAP2 SWAP1 PUSH2 0x369F JUMP JUMPDEST PUSH20 0xFFFFFFFFFFFFFFFFFFFFFFFFFFFFFFFFFFFFFFFF AND EQ PUSH2 0x22A4 JUMPI PUSH1 0x40 MLOAD PUSH32 0x8C379A000000000000000000000000000000000000000000000000000000000 DUP2 MSTORE PUSH1 0x4 ADD PUSH2 0x229B SWAP1 PUSH2 0x3C0C JUMP JUMPDEST PUSH1 0x40 MLOAD DUP1 SWAP2 SUB SWAP1 REVERT JUMPDEST PUSH0 PUSH1 0x11 PUSH0 DUP4 DUP2 MSTORE PUSH1 0x20 ADD SWAP1 DUP2 MSTORE PUSH1 0x20 ADD PUSH0 KECCAK256 SLOAD GT PUSH2 0x22F7 JUMPI PUSH1 0x40 MLOAD PUSH32 0x8C379A000000000000000000000000000000000000000000000000000000000 DUP2 MSTORE PUSH1 0x4 ADD PUSH2 0x22EE SWAP1 PUSH2 0x3C74 JUMP JUMPDEST PUSH1 0x40 MLOAD DUP1 SWAP2 SUB SWAP1 REVERT JUMPDEST PUSH0 CALLER PUSH20 0xFFFFFFFFFFFFFFFFFFFFFFFFFFFFFFFFFFFFFFFF AND PUSH2 0x8FC PUSH1 0x11 PUSH0 DUP6 DUP2 MSTORE PUSH1 0x20 ADD SWAP1 DUP2 MSTORE PUSH1 0x20 ADD PUSH0 KECCAK256 SLOAD SWAP1 DUP2 ISZERO MUL SWAP1 PUSH1 0x40 MLOAD PUSH0 PUSH1 0x40 MLOAD DUP1 DUP4 SUB DUP2 DUP6 DUP9 DUP9 CALL SWAP4 POP POP POP POP SWAP1 POP DUP1 PUSH2 0x237F JUMPI PUSH1 0x40 MLOAD PUSH32 0x8C379A000000000000000000000000000000000000000000000000000000000 DUP2 MSTORE PUSH1 0x4 ADD PUSH2 0x2376 SWAP1 PUSH2 0x3CDC JUMP JUMPDEST PUSH1 0x40 MLOAD DUP1 SWAP2 SUB SWAP1 REVERT JUMPDEST PUSH0 PUSH1 0x11 PUSH0 DUP5 DUP2 MSTORE PUSH1 0x20 ADD SWAP1 DUP2 MSTORE PUSH1 0x20 ADD PUSH0 KECCAK256 DUP2 SWAP1 SSTORE POP POP POP JUMP JUMPDEST PUSH2 0x23A1 PUSH2 0x260B JUMP JUMPDEST PUSH0 PUSH20 0xFFFFFFFFFFFFFFFFFFFFFFFFFFFFFFFFFFFFFFFF AND DUP2 PUSH20 0xFFFFFFFFFFFFFFFFFFFFFFFFFFFFFFFFFFFFFFFF AND SUB PUSH2 0x2411 JUMPI PUSH0 PUSH1 0x40 MLOAD PUSH32 0x1E4FBDF700000000000000000000000000000000000000000000000000000000 DUP2 MSTORE PUSH1 0x4 ADD PUSH2 0x2408 SWAP2 SWAP1 PUSH2 0x326D JUMP JUMPDEST PUSH1 0x40 MLOAD DUP1 SWAP2 SUB SWAP1 REVERT JUMPDEST PUSH2 0x241A DUP2 PUSH2 0x2891 JUMP JUMPDEST POP JUMP JUMPDEST PUSH0 PUSH1 0x1 SLOAD PUSH2 0x2711 PUSH2 0x242E SWAP2 SWAP1 PUSH2 0x3B5A JUMP JUMPDEST SWAP1 POP SWAP1 JUMP JUMPDEST PUSH1 0x60 PUSH1 0xB PUSH0 DUP4 PUSH20 0xFFFFFFFFFFFFFFFFFFFFFFFFFFFFFFFFFFFFFFFF AND PUSH20 0xFFFFFFFFFFFFFFFFFFFFFFFFFFFFFFFFFFFFFFFF AND DUP2 MSTORE PUSH1 0x20 ADD SWAP1 DUP2 MSTORE PUSH1 0x20 ADD PUSH0 KECCAK256 PUSH1 0x2 ADD DUP1 SLOAD DUP1 PUSH1 0x20 MUL PUSH1 0x20 ADD PUSH1 0x40 MLOAD SWAP1 DUP2 ADD PUSH1 0x40 MSTORE DUP1 SWAP3 SWAP2 SWAP1 DUP2 DUP2 MSTORE PUSH1 0x20 ADD PUSH0 SWAP1 JUMPDEST DUP3 DUP3 LT ISZERO PUSH2 0x24F6 JUMPI DUP4 DUP3 SWAP1 PUSH0 MSTORE PUSH1 0x20 PUSH0 KECCAK256 SWAP1 PUSH1 0x3 MUL ADD PUSH1 0x40 MLOAD DUP1 PUSH1 0x60 ADD PUSH1 0x40 MSTORE SWAP1 DUP2 PUSH0 DUP3 ADD SLOAD DUP2 MSTORE PUSH1 0x20 ADD PUSH1 0x1 DUP3 ADD PUSH0 SWAP1 SLOAD SWAP1 PUSH2 0x100 EXP SWAP1 DIV PUSH2 0xFFFF AND PUSH2 0xFFFF AND PUSH2 0xFFFF AND DUP2 MSTORE PUSH1 0x20 ADD PUSH1 0x2 DUP3 ADD SLOAD DUP2 MSTORE POP POP DUP2 MSTORE PUSH1 0x20 ADD SWAP1 PUSH1 0x1 ADD SWAP1 PUSH2 0x2494 JUMP JUMPDEST POP POP POP POP SWAP1 POP SWAP2 SWAP1 POP JUMP JUMPDEST PUSH2 0x2509 PUSH2 0x2D2D JUMP JUMPDEST PUSH1 0xB PUSH0 DUP4 PUSH20 0xFFFFFFFFFFFFFFFFFFFFFFFFFFFFFFFFFFFFFFFF AND PUSH20 0xFFFFFFFFFFFFFFFFFFFFFFFFFFFFFFFFFFFFFFFF AND DUP2 MSTORE PUSH1 0x20 ADD SWAP1 DUP2 MSTORE PUSH1 0x20 ADD PUSH0 KECCAK256 PUSH1 0x40 MLOAD DUP1 PUSH1 0x60 ADD PUSH1 0x40 MSTORE SWAP1 DUP2 PUSH0 DUP3 ADD SLOAD DUP2 MSTORE PUSH1 0x20 ADD PUSH1 0x1 DUP3 ADD PUSH0 SWAP1 SLOAD SWAP1 PUSH2 0x100 EXP SWAP1 DIV PUSH1 0xFF AND PUSH1 0xFF AND PUSH1 0xFF AND DUP2 MSTORE PUSH1 0x20 ADD PUSH1 0x2 DUP3 ADD DUP1 SLOAD DUP1 PUSH1 0x20 MUL PUSH1 0x20 ADD PUSH1 0x40 MLOAD SWAP1 DUP2 ADD PUSH1 0x40 MSTORE DUP1 SWAP3 SWAP2 SWAP1 DUP2 DUP2 MSTORE PUSH1 0x20 ADD PUSH0 SWAP1 JUMPDEST DUP3 DUP3 LT ISZERO PUSH2 0x25FC JUMPI DUP4 DUP3 SWAP1 PUSH0 MSTORE PUSH1 0x20 PUSH0 KECCAK256 SWAP1 PUSH1 0x3 MUL ADD PUSH1 0x40 MLOAD DUP1 PUSH1 0x60 ADD PUSH1 0x40 MSTORE SWAP1 DUP2 PUSH0 DUP3 ADD SLOAD DUP2 MSTORE PUSH1 0x20 ADD PUSH1 0x1 DUP3 ADD PUSH0 SWAP1 SLOAD SWAP1 PUSH2 0x100 EXP SWAP1 DIV PUSH2 0xFFFF AND PUSH2 0xFFFF AND PUSH2 0xFFFF AND DUP2 MSTORE PUSH1 0x20 ADD PUSH1 0x2 DUP3 ADD SLOAD DUP2 MSTORE POP POP DUP2 MSTORE PUSH1 0x20 ADD SWAP1 PUSH1 0x1 ADD SWAP1 PUSH2 0x259A JUMP JUMPDEST POP POP POP POP DUP2 MSTORE POP POP SWAP1 POP SWAP2 SWAP1 POP JUMP JUMPDEST PUSH2 0x2613 PUSH2 0x2952 JUMP JUMPDEST PUSH20 0xFFFFFFFFFFFFFFFFFFFFFFFFFFFFFFFFFFFFFFFF AND PUSH2 0x2631 PUSH2 0x1E7D JUMP JUMPDEST PUSH20 0xFFFFFFFFFFFFFFFFFFFFFFFFFFFFFFFFFFFFFFFF AND EQ PUSH2 0x2690 JUMPI PUSH2 0x2654 PUSH2 0x2952 JUMP JUMPDEST PUSH1 0x40 MLOAD PUSH32 0x118CDAA700000000000000000000000000000000000000000000000000000000 DUP2 MSTORE PUSH1 0x4 ADD PUSH2 0x2687 SWAP2 SWAP1 PUSH2 0x326D JUMP JUMPDEST PUSH1 0x40 MLOAD DUP1 SWAP2 SUB SWAP1 REVERT JUMPDEST JUMP JUMPDEST PUSH1 0x60 PUSH2 0x269D DUP3 PUSH2 0x2959 JUMP JUMPDEST PUSH1 0x40 MLOAD PUSH1 0x20 ADD PUSH2 0x26AD SWAP2 SWAP1 PUSH2 0x3D80 JUMP JUMPDEST PUSH1 0x40 MLOAD PUSH1 0x20 DUP2 DUP4 SUB SUB DUP2 MSTORE SWAP1 PUSH1 0x40 MSTORE SWAP1 POP SWAP2 SWAP1 POP JUMP JUMPDEST PUSH0 PUSH1 0x3 SLOAD GT ISZERO PUSH2 0x2732 JUMPI DUP1 PUSH1 0x10 PUSH0 DUP5 PUSH2 0xFFFF AND PUSH2 0xFFFF AND DUP2 MSTORE PUSH1 0x20 ADD SWAP1 DUP2 MSTORE PUSH1 0x20 ADD PUSH0 KECCAK256 PUSH1 0x2 ADD PUSH0 DUP3 DUP3 SLOAD PUSH2 0x26F8 SWAP2 SWAP1 PUSH2 0x2D85 JUMP JUMPDEST SWAP3 POP POP DUP2 SWAP1 SSTORE POP DUP1 PUSH1 0x10 PUSH0 DUP5 PUSH2 0xFFFF AND PUSH2 0xFFFF AND DUP2 MSTORE PUSH1 0x20 ADD SWAP1 DUP2 MSTORE PUSH1 0x20 ADD PUSH0 KECCAK256 PUSH1 0x3 ADD PUSH0 DUP3 DUP3 SLOAD PUSH2 0x272A SWAP2 SWAP1 PUSH2 0x2D85 JUMP JUMPDEST SWAP3 POP POP DUP2 SWAP1 SSTORE POP JUMPDEST POP POP JUMP JUMPDEST PUSH0 PUSH1 0x3 SLOAD GT ISZERO PUSH2 0x277C JUMPI PUSH0 PUSH2 0x2749 PUSH2 0x2A23 JUMP JUMPDEST SWAP1 POP DUP2 PUSH1 0x10 PUSH0 DUP6 PUSH2 0xFFFF AND PUSH2 0xFFFF AND DUP2 MSTORE PUSH1 0x20 ADD SWAP1 DUP2 MSTORE PUSH1 0x20 ADD PUSH0 KECCAK256 PUSH0 ADD PUSH0 DUP4 DUP2 MSTORE PUSH1 0x20 ADD SWAP1 DUP2 MSTORE PUSH1 0x20 ADD PUSH0 KECCAK256 DUP2 SWAP1 SSTORE POP POP JUMPDEST POP POP JUMP JUMPDEST PUSH0 JUMPDEST PUSH1 0x6 PUSH1 0x2 SWAP1 SLOAD SWAP1 PUSH2 0x100 EXP SWAP1 DIV PUSH1 0xFF AND PUSH1 0xFF AND DUP2 LT ISZERO PUSH2 0x2819 JUMPI PUSH1 0x10 PUSH0 DUP5 PUSH2 0xFFFF AND PUSH2 0xFFFF AND DUP2 MSTORE PUSH1 0x20 ADD SWAP1 DUP2 MSTORE PUSH1 0x20 ADD PUSH0 KECCAK256 PUSH1 0x1 ADD PUSH1 0x10 PUSH0 DUP6 PUSH2 0xFFFF AND PUSH2 0xFFFF AND DUP2 MSTORE PUSH1 0x20 ADD SWAP1 DUP2 MSTORE PUSH1 0x20 ADD PUSH0 KECCAK256 PUSH0 ADD PUSH0 DUP4 DUP2 MSTORE PUSH1 0x20 ADD SWAP1 DUP2 MSTORE PUSH1 0x20 ADD PUSH0 KECCAK256 SLOAD SWAP1 DUP1 PUSH1 0x1 DUP2 SLOAD ADD DUP1 DUP3 SSTORE DUP1 SWAP2 POP POP PUSH1 0x1 SWAP1 SUB SWAP1 PUSH0 MSTORE PUSH1 0x20 PUSH0 KECCAK256 ADD PUSH0 SWAP1 SWAP2 SWAP1 SWAP2 SWAP1 SWAP2 POP SSTORE DUP1 DUP1 PUSH2 0x2811 SWAP1 PUSH2 0x3DB4 JUMP JUMPDEST SWAP2 POP POP PUSH2 0x2782 JUMP JUMPDEST POP PUSH2 0x288D DUP3 DUP3 PUSH1 0x10 PUSH0 DUP7 PUSH2 0xFFFF AND PUSH2 0xFFFF AND DUP2 MSTORE PUSH1 0x20 ADD SWAP1 DUP2 MSTORE PUSH1 0x20 ADD PUSH0 KECCAK256 PUSH1 0x1 ADD DUP1 SLOAD DUP1 PUSH1 0x20 MUL PUSH1 0x20 ADD PUSH1 0x40 MLOAD SWAP1 DUP2 ADD PUSH1 0x40 MSTORE DUP1 SWAP3 SWAP2 SWAP1 DUP2 DUP2 MSTORE PUSH1 0x20 ADD DUP3 DUP1 SLOAD DUP1 ISZERO PUSH2 0x2883 JUMPI PUSH1 0x20 MUL DUP3 ADD SWAP2 SWAP1 PUSH0 MSTORE PUSH1 0x20 PUSH0 KECCAK256 SWAP1 JUMPDEST DUP2 SLOAD DUP2 MSTORE PUSH1 0x20 ADD SWAP1 PUSH1 0x1 ADD SWAP1 DUP1 DUP4 GT PUSH2 0x286F JUMPI JUMPDEST POP POP POP POP POP PUSH2 0x2A76 JUMP JUMPDEST POP POP JUMP JUMPDEST PUSH0 DUP1 PUSH0 SWAP1 SLOAD SWAP1 PUSH2 0x100 EXP SWAP1 DIV PUSH20 0xFFFFFFFFFFFFFFFFFFFFFFFFFFFFFFFFFFFFFFFF AND SWAP1 POP DUP2 PUSH0 DUP1 PUSH2 0x100 EXP DUP2 SLOAD DUP2 PUSH20 0xFFFFFFFFFFFFFFFFFFFFFFFFFFFFFFFFFFFFFFFF MUL NOT AND SWAP1 DUP4 PUSH20 0xFFFFFFFFFFFFFFFFFFFFFFFFFFFFFFFFFFFFFFFF AND MUL OR SWAP1 SSTORE POP DUP2 PUSH20 0xFFFFFFFFFFFFFFFFFFFFFFFFFFFFFFFFFFFFFFFF AND DUP2 PUSH20 0xFFFFFFFFFFFFFFFFFFFFFFFFFFFFFFFFFFFFFFFF AND PUSH32 0x8BE0079C531659141344CD1FD0A4F28419497F9722A3DAAFE3B4186F6B6457E0 PUSH1 0x40 MLOAD PUSH1 0x40 MLOAD DUP1 SWAP2 SUB SWAP1 LOG3 POP POP JUMP JUMPDEST PUSH0 CALLER SWAP1 POP SWAP1 JUMP JUMPDEST PUSH1 0x60 PUSH0 PUSH1 0x1 PUSH2 0x2967 DUP5 PUSH2 0x2BDC JUMP JUMPDEST ADD SWAP1 POP PUSH0 DUP2 PUSH8 0xFFFFFFFFFFFFFFFF DUP2 GT ISZERO PUSH2 0x2985 JUMPI PUSH2 0x2984 PUSH2 0x3DFB JUMP JUMPDEST JUMPDEST PUSH1 0x40 MLOAD SWAP1 DUP1 DUP3 MSTORE DUP1 PUSH1 0x1F ADD PUSH1 0x1F NOT AND PUSH1 0x20 ADD DUP3 ADD PUSH1 0x40 MSTORE DUP1 ISZERO PUSH2 0x29B7 JUMPI DUP2 PUSH1 0x20 ADD PUSH1 0x1 DUP3 MUL DUP1 CALLDATASIZE DUP4 CALLDATACOPY DUP1 DUP3 ADD SWAP2 POP POP SWAP1 POP JUMPDEST POP SWAP1 POP PUSH0 DUP3 PUSH1 0x20 ADD DUP3 ADD SWAP1 POP JUMPDEST PUSH1 0x1 ISZERO PUSH2 0x2A18 JUMPI DUP1 DUP1 PUSH1 0x1 SWAP1 SUB SWAP2 POP POP PUSH32 0x3031323334353637383961626364656600000000000000000000000000000000 PUSH1 0xA DUP7 MOD BYTE DUP2 MSTORE8 PUSH1 0xA DUP6 DUP2 PUSH2 0x2A0D JUMPI PUSH2 0x2A0C PUSH2 0x38B7 JUMP JUMPDEST JUMPDEST DIV SWAP5 POP PUSH0 DUP6 SUB PUSH2 0x29C4 JUMPI JUMPDEST DUP2 SWAP4 POP POP POP POP SWAP2 SWAP1 POP JUMP JUMPDEST PUSH0 DUP1 PUSH1 0x1 SLOAD CALLER TIMESTAMP PUSH1 0x40 MLOAD PUSH1 0x20 ADD PUSH2 0x2A3C SWAP4 SWAP3 SWAP2 SWAP1 PUSH2 0x3E8D JUMP JUMPDEST PUSH1 0x40 MLOAD PUSH1 0x20 DUP2 DUP4 SUB SUB DUP2 MSTORE SWAP1 PUSH1 0x40 MSTORE DUP1 MLOAD SWAP1 PUSH1 0x20 ADD KECCAK256 PUSH0 SHR SWAP1 POP PUSH1 0x1 PUSH1 0x4 SLOAD DUP3 PUSH2 0x2A66 SWAP2 SWAP1 PUSH2 0x3EC9 JUMP JUMPDEST PUSH2 0x2A70 SWAP2 SWAP1 PUSH2 0x2D85 JUMP JUMPDEST SWAP2 POP POP SWAP1 JUMP JUMPDEST PUSH0 PUSH1 0x6 PUSH1 0x2 SWAP1 SLOAD SWAP1 PUSH2 0x100 EXP SWAP1 DIV PUSH1 0xFF AND PUSH1 0xFF AND DUP4 PUSH2 0x2A95 SWAP2 SWAP1 PUSH2 0x38E4 JUMP JUMPDEST SWAP1 POP PUSH0 JUMPDEST DUP3 MLOAD DUP2 LT ISZERO PUSH2 0x2BD5 JUMPI PUSH0 DUP4 DUP3 DUP2 MLOAD DUP2 LT PUSH2 0x2AB6 JUMPI PUSH2 0x2AB5 PUSH2 0x3EF9 JUMP JUMPDEST JUMPDEST PUSH1 0x20 MUL PUSH1 0x20 ADD ADD MLOAD SWAP1 POP DUP3 PUSH1 0x11 PUSH0 DUP4 DUP2 MSTORE PUSH1 0x20 ADD SWAP1 DUP2 MSTORE PUSH1 0x20 ADD PUSH0 KECCAK256 PUSH0 DUP3 DUP3 SLOAD PUSH2 0x2AE0 SWAP2 SWAP1 PUSH2 0x2D85 JUMP JUMPDEST SWAP3 POP POP DUP2 SWAP1 SSTORE POP PUSH1 0xA PUSH1 0x1 SWAP1 SLOAD SWAP1 PUSH2 0x100 EXP SWAP1 DIV PUSH20 0xFFFFFFFFFFFFFFFFFFFFFFFFFFFFFFFFFFFFFFFF AND PUSH20 0xFFFFFFFFFFFFFFFFFFFFFFFFFFFFFFFFFFFFFFFF AND PUSH4 0x53BBC5EA DUP3 PUSH10 0x54B40B1F852BDA00000 PUSH1 0x40 MLOAD DUP4 PUSH4 0xFFFFFFFF AND PUSH1 0xE0 SHL DUP2 MSTORE PUSH1 0x4 ADD PUSH2 0x2B4E SWAP3 SWAP2 SWAP1 PUSH2 0x3F68 JUMP JUMPDEST PUSH1 0x20 PUSH1 0x40 MLOAD DUP1 DUP4 SUB DUP2 PUSH0 DUP8 GAS CALL ISZERO DUP1 ISZERO PUSH2 0x2B6A JUMPI RETURNDATASIZE PUSH0 DUP1 RETURNDATACOPY RETURNDATASIZE PUSH0 REVERT JUMPDEST POP POP POP POP PUSH1 0x40 MLOAD RETURNDATASIZE PUSH1 0x1F NOT PUSH1 0x1F DUP3 ADD AND DUP3 ADD DUP1 PUSH1 0x40 MSTORE POP DUP2 ADD SWAP1 PUSH2 0x2B8E SWAP2 SWAP1 PUSH2 0x37AE JUMP JUMPDEST POP DUP3 PUSH1 0x10 PUSH0 DUP9 PUSH2 0xFFFF AND PUSH2 0xFFFF AND DUP2 MSTORE PUSH1 0x20 ADD SWAP1 DUP2 MSTORE PUSH1 0x20 ADD PUSH0 KECCAK256 PUSH1 0x3 ADD PUSH0 DUP3 DUP3 SLOAD PUSH2 0x2BBA SWAP2 SWAP1 PUSH2 0x3B5A JUMP JUMPDEST SWAP3 POP POP DUP2 SWAP1 SSTORE POP POP DUP1 DUP1 PUSH2 0x2BCD SWAP1 PUSH2 0x3DB4 JUMP JUMPDEST SWAP2 POP POP PUSH2 0x2A99 JUMP JUMPDEST POP POP POP POP POP JUMP JUMPDEST PUSH0 DUP1 PUSH0 SWAP1 POP PUSH27 0x184F03E93FF9F4DAA797ED6E38ED64BF6A1F010000000000000000 DUP4 LT PUSH2 0x2C38 JUMPI PUSH27 0x184F03E93FF9F4DAA797ED6E38ED64BF6A1F010000000000000000 DUP4 DUP2 PUSH2 0x2C2E JUMPI PUSH2 0x2C2D PUSH2 0x38B7 JUMP JUMPDEST JUMPDEST DIV SWAP3 POP PUSH1 0x40 DUP2 ADD SWAP1 POP JUMPDEST PUSH14 0x4EE2D6D415B85ACEF8100000000 DUP4 LT PUSH2 0x2C75 JUMPI PUSH14 0x4EE2D6D415B85ACEF8100000000 DUP4 DUP2 PUSH2 0x2C6B JUMPI PUSH2 0x2C6A PUSH2 0x38B7 JUMP JUMPDEST JUMPDEST DIV SWAP3 POP PUSH1 0x20 DUP2 ADD SWAP1 POP JUMPDEST PUSH7 0x2386F26FC10000 DUP4 LT PUSH2 0x2CA4 JUMPI PUSH7 0x2386F26FC10000 DUP4 DUP2 PUSH2 0x2C9A JUMPI PUSH2 0x2C99 PUSH2 0x38B7 JUMP JUMPDEST JUMPDEST DIV SWAP3 POP PUSH1 0x10 DUP2 ADD SWAP1 POP JUMPDEST PUSH4 0x5F5E100 DUP4 LT PUSH2 0x2CCD JUMPI PUSH4 0x5F5E100 DUP4 DUP2 PUSH2 0x2CC3 JUMPI PUSH2 0x2CC2 PUSH2 0x38B7 JUMP JUMPDEST JUMPDEST DIV SWAP3 POP PUSH1 0x8 DUP2 ADD SWAP1 POP JUMPDEST PUSH2 0x2710 DUP4 LT PUSH2 0x2CF2 JUMPI PUSH2 0x2710 DUP4 DUP2 PUSH2 0x2CE8 JUMPI PUSH2 0x2CE7 PUSH2 0x38B7 JUMP JUMPDEST JUMPDEST DIV SWAP3 POP PUSH1 0x4 DUP2 ADD SWAP1 POP JUMPDEST PUSH1 0x64 DUP4 LT PUSH2 0x2D15 JUMPI PUSH1 0x64 DUP4 DUP2 PUSH2 0x2D0B JUMPI PUSH2 0x2D0A PUSH2 0x38B7 JUMP JUMPDEST JUMPDEST DIV SWAP3 POP PUSH1 0x2 DUP2 ADD SWAP1 POP JUMPDEST PUSH1 0xA DUP4 LT PUSH2 0x2D24 JUMPI PUSH1 0x1 DUP2 ADD SWAP1 POP JUMPDEST DUP1 SWAP2 POP POP SWAP2 SWAP1 POP JUMP JUMPDEST PUSH1 0x40 MLOAD DUP1 PUSH1 0x60 ADD PUSH1 0x40 MSTORE DUP1 PUSH0 DUP2 MSTORE PUSH1 0x20 ADD PUSH0 PUSH1 0xFF AND DUP2 MSTORE PUSH1 0x20 ADD PUSH1 0x60 DUP2 MSTORE POP SWAP1 JUMP JUMPDEST PUSH0 DUP2 SWAP1 POP SWAP2 SWAP1 POP JUMP JUMPDEST PUSH32 0x4E487B7100000000000000000000000000000000000000000000000000000000 PUSH0 MSTORE PUSH1 0x11 PUSH1 0x4 MSTORE PUSH1 0x24 PUSH0 REVERT JUMPDEST PUSH0 PUSH2 0x2D8F DUP3 PUSH2 0x2D4F JUMP JUMPDEST SWAP2 POP PUSH2 0x2D9A DUP4 PUSH2 0x2D4F JUMP JUMPDEST SWAP3 POP DUP3 DUP3 ADD SWAP1 POP DUP1 DUP3 GT ISZERO PUSH2 0x2DB2 JUMPI PUSH2 0x2DB1 PUSH2 0x2D58 JUMP JUMPDEST JUMPDEST SWAP3 SWAP2 POP POP JUMP JUMPDEST PUSH0 DUP1 REVERT JUMPDEST PUSH0 DUP1 REVERT JUMPDEST PUSH0 PUSH2 0xFFFF DUP3 AND SWAP1 POP SWAP2 SWAP1 POP JUMP JUMPDEST PUSH2 0x2DD6 DUP2 PUSH2 0x2DC0 JUMP JUMPDEST DUP2 EQ PUSH2 0x2DE0 JUMPI PUSH0 DUP1 REVERT JUMPDEST POP JUMP JUMPDEST PUSH0 DUP2 CALLDATALOAD SWAP1 POP PUSH2 0x2DF1 DUP2 PUSH2 0x2DCD JUMP JUMPDEST SWAP3 SWAP2 POP POP JUMP JUMPDEST PUSH0 PUSH1 0x20 DUP3 DUP5 SUB SLT ISZERO PUSH2 0x2E0C JUMPI PUSH2 0x2E0B PUSH2 0x2DB8 JUMP JUMPDEST JUMPDEST PUSH0 PUSH2 0x2E19 DUP5 DUP3 DUP6 ADD PUSH2 0x2DE3 JUMP JUMPDEST SWAP2 POP POP SWAP3 SWAP2 POP POP JUMP JUMPDEST PUSH0 DUP2 MLOAD SWAP1 POP SWAP2 SWAP1 POP JUMP JUMPDEST PUSH0 DUP3 DUP3 MSTORE PUSH1 0x20 DUP3 ADD SWAP1 POP SWAP3 SWAP2 POP POP JUMP JUMPDEST PUSH0 DUP2 SWAP1 POP PUSH1 0x20 DUP3 ADD SWAP1 POP SWAP2 SWAP1 POP JUMP JUMPDEST PUSH2 0x2E54 DUP2 PUSH2 0x2D4F JUMP JUMPDEST DUP3 MSTORE POP POP JUMP JUMPDEST PUSH0 PUSH2 0x2E65 DUP4 DUP4 PUSH2 0x2E4B JUMP JUMPDEST PUSH1 0x20 DUP4 ADD SWAP1 POP SWAP3 SWAP2 POP POP JUMP JUMPDEST PUSH0 PUSH1 0x20 DUP3 ADD SWAP1 POP SWAP2 SWAP1 POP JUMP JUMPDEST PUSH0 PUSH2 0x2E87 DUP3 PUSH2 0x2E22 JUMP JUMPDEST PUSH2 0x2E91 DUP2 DUP6 PUSH2 0x2E2C JUMP JUMPDEST SWAP4 POP PUSH2 0x2E9C DUP4 PUSH2 0x2E3C JUMP JUMPDEST DUP1 PUSH0 JUMPDEST DUP4 DUP2 LT ISZERO PUSH2 0x2ECC JUMPI DUP2 MLOAD PUSH2 0x2EB3 DUP9 DUP3 PUSH2 0x2E5A JUMP JUMPDEST SWAP8 POP PUSH2 0x2EBE DUP4 PUSH2 0x2E71 JUMP JUMPDEST SWAP3 POP POP PUSH1 0x1 DUP2 ADD SWAP1 POP PUSH2 0x2E9F JUMP JUMPDEST POP DUP6 SWAP4 POP POP POP POP SWAP3 SWAP2 POP POP JUMP JUMPDEST PUSH0 PUSH1 0x20 DUP3 ADD SWAP1 POP DUP2 DUP2 SUB PUSH0 DUP4 ADD MSTORE PUSH2 0x2EF1 DUP2 DUP5 PUSH2 0x2E7D JUMP JUMPDEST SWAP1 POP SWAP3 SWAP2 POP POP JUMP JUMPDEST PUSH0 PUSH20 0xFFFFFFFFFFFFFFFFFFFFFFFFFFFFFFFFFFFFFFFF DUP3 AND SWAP1 POP SWAP2 SWAP1 POP JUMP JUMPDEST PUSH0 PUSH2 0x2F22 DUP3 PUSH2 0x2EF9 JUMP JUMPDEST SWAP1 POP SWAP2 SWAP1 POP JUMP JUMPDEST PUSH2 0x2F32 DUP2 PUSH2 0x2F18 JUMP JUMPDEST DUP2 EQ PUSH2 0x2F3C JUMPI PUSH0 DUP1 REVERT JUMPDEST POP JUMP JUMPDEST PUSH0 DUP2 CALLDATALOAD SWAP1 POP PUSH2 0x2F4D DUP2 PUSH2 0x2F29 JUMP JUMPDEST SWAP3 SWAP2 POP POP JUMP JUMPDEST PUSH2 0x2F5C DUP2 PUSH2 0x2D4F JUMP JUMPDEST DUP2 EQ PUSH2 0x2F66 JUMPI PUSH0 DUP1 REVERT JUMPDEST POP JUMP JUMPDEST PUSH0 DUP2 CALLDATALOAD SWAP1 POP PUSH2 0x2F77 DUP2 PUSH2 0x2F53 JUMP JUMPDEST SWAP3 SWAP2 POP POP JUMP JUMPDEST PUSH0 DUP1 REVERT JUMPDEST PUSH0 DUP1 REVERT JUMPDEST PUSH0 DUP1 REVERT JUMPDEST PUSH0 DUP1 DUP4 PUSH1 0x1F DUP5 ADD SLT PUSH2 0x2F9E JUMPI PUSH2 0x2F9D PUSH2 0x2F7D JUMP JUMPDEST JUMPDEST DUP3 CALLDATALOAD SWAP1 POP PUSH8 0xFFFFFFFFFFFFFFFF DUP2 GT ISZERO PUSH2 0x2FBB JUMPI PUSH2 0x2FBA PUSH2 0x2F81 JUMP JUMPDEST JUMPDEST PUSH1 0x20 DUP4 ADD SWAP2 POP DUP4 PUSH1 0x1 DUP3 MUL DUP4 ADD GT ISZERO PUSH2 0x2FD7 JUMPI PUSH2 0x2FD6 PUSH2 0x2F85 JUMP JUMPDEST JUMPDEST SWAP3 POP SWAP3 SWAP1 POP JUMP JUMPDEST PUSH0 DUP1 PUSH0 DUP1 PUSH0 PUSH1 0x80 DUP7 DUP9 SUB SLT ISZERO PUSH2 0x2FF7 JUMPI PUSH2 0x2FF6 PUSH2 0x2DB8 JUMP JUMPDEST JUMPDEST PUSH0 PUSH2 0x3004 DUP9 DUP3 DUP10 ADD PUSH2 0x2F3F JUMP JUMPDEST SWAP6 POP POP PUSH1 0x20 PUSH2 0x3015 DUP9 DUP3 DUP10 ADD PUSH2 0x2F3F JUMP JUMPDEST SWAP5 POP POP PUSH1 0x40 PUSH2 0x3026 DUP9 DUP3 DUP10 ADD PUSH2 0x2F69 JUMP JUMPDEST SWAP4 POP POP PUSH1 0x60 DUP7 ADD CALLDATALOAD PUSH8 0xFFFFFFFFFFFFFFFF DUP2 GT ISZERO PUSH2 0x3047 JUMPI PUSH2 0x3046 PUSH2 0x2DBC JUMP JUMPDEST JUMPDEST PUSH2 0x3053 DUP9 DUP3 DUP10 ADD PUSH2 0x2F89 JUMP JUMPDEST SWAP3 POP SWAP3 POP POP SWAP3 SWAP6 POP SWAP3 SWAP6 SWAP1 SWAP4 POP JUMP JUMPDEST PUSH0 PUSH32 0xFFFFFFFF00000000000000000000000000000000000000000000000000000000 DUP3 AND SWAP1 POP SWAP2 SWAP1 POP JUMP JUMPDEST PUSH2 0x3096 DUP2 PUSH2 0x3062 JUMP JUMPDEST DUP3 MSTORE POP POP JUMP JUMPDEST PUSH0 PUSH1 0x20 DUP3 ADD SWAP1 POP PUSH2 0x30AF PUSH0 DUP4 ADD DUP5 PUSH2 0x308D JUMP JUMPDEST SWAP3 SWAP2 POP POP JUMP JUMPDEST PUSH0 DUP2 ISZERO ISZERO SWAP1 POP SWAP2 SWAP1 POP JUMP JUMPDEST PUSH2 0x30C9 DUP2 PUSH2 0x30B5 JUMP JUMPDEST DUP2 EQ PUSH2 0x30D3 JUMPI PUSH0 DUP1 REVERT JUMPDEST POP JUMP JUMPDEST PUSH0 DUP2 CALLDATALOAD SWAP1 POP PUSH2 0x30E4 DUP2 PUSH2 0x30C0 JUMP JUMPDEST SWAP3 SWAP2 POP POP JUMP JUMPDEST PUSH0 PUSH1 0x20 DUP3 DUP5 SUB SLT ISZERO PUSH2 0x30FF JUMPI PUSH2 0x30FE PUSH2 0x2DB8 JUMP JUMPDEST JUMPDEST PUSH0 PUSH2 0x310C DUP5 DUP3 DUP6 ADD PUSH2 0x30D6 JUMP JUMPDEST SWAP2 POP POP SWAP3 SWAP2 POP POP JUMP JUMPDEST PUSH0 PUSH1 0x20 DUP3 DUP5 SUB SLT ISZERO PUSH2 0x312A JUMPI PUSH2 0x3129 PUSH2 0x2DB8 JUMP JUMPDEST JUMPDEST PUSH0 PUSH2 0x3137 DUP5 DUP3 DUP6 ADD PUSH2 0x2F3F JUMP JUMPDEST SWAP2 POP POP SWAP3 SWAP2 POP POP JUMP JUMPDEST PUSH2 0x3149 DUP2 PUSH2 0x2D4F JUMP JUMPDEST DUP3 MSTORE POP POP JUMP JUMPDEST PUSH0 PUSH1 0x20 DUP3 ADD SWAP1 POP PUSH2 0x3162 PUSH0 DUP4 ADD DUP5 PUSH2 0x3140 JUMP JUMPDEST SWAP3 SWAP2 POP POP JUMP JUMPDEST PUSH2 0x3171 DUP2 PUSH2 0x30B5 JUMP JUMPDEST DUP3 MSTORE POP POP JUMP JUMPDEST PUSH0 PUSH1 0x20 DUP3 ADD SWAP1 POP PUSH2 0x318A PUSH0 DUP4 ADD DUP5 PUSH2 0x3168 JUMP JUMPDEST SWAP3 SWAP2 POP POP JUMP JUMPDEST PUSH0 DUP1 PUSH1 0x40 DUP4 DUP6 SUB SLT ISZERO PUSH2 0x31A6 JUMPI PUSH2 0x31A5 PUSH2 0x2DB8 JUMP JUMPDEST JUMPDEST PUSH0 PUSH2 0x31B3 DUP6 DUP3 DUP7 ADD PUSH2 0x2F3F JUMP JUMPDEST SWAP3 POP POP PUSH1 0x20 PUSH2 0x31C4 DUP6 DUP3 DUP7 ADD PUSH2 0x30D6 JUMP JUMPDEST SWAP2 POP POP SWAP3 POP SWAP3 SWAP1 POP JUMP JUMPDEST PUSH0 PUSH1 0x20 DUP3 DUP5 SUB SLT ISZERO PUSH2 0x31E3 JUMPI PUSH2 0x31E2 PUSH2 0x2DB8 JUMP JUMPDEST JUMPDEST PUSH0 PUSH2 0x31F0 DUP5 DUP3 DUP6 ADD PUSH2 0x2F69 JUMP JUMPDEST SWAP2 POP POP SWAP3 SWAP2 POP POP JUMP JUMPDEST PUSH0 DUP1 PUSH1 0x40 DUP4 DUP6 SUB SLT ISZERO PUSH2 0x320F JUMPI PUSH2 0x320E PUSH2 0x2DB8 JUMP JUMPDEST JUMPDEST PUSH0 PUSH2 0x321C DUP6 DUP3 DUP7 ADD PUSH2 0x2F3F JUMP JUMPDEST SWAP3 POP POP PUSH1 0x20 PUSH2 0x322D DUP6 DUP3 DUP7 ADD PUSH2 0x2F69 JUMP JUMPDEST SWAP2 POP POP SWAP3 POP SWAP3 SWAP1 POP JUMP JUMPDEST PUSH0 PUSH1 0x40 DUP3 ADD SWAP1 POP PUSH2 0x324A PUSH0 DUP4 ADD DUP6 PUSH2 0x3140 JUMP JUMPDEST PUSH2 0x3257 PUSH1 0x20 DUP4 ADD DUP5 PUSH2 0x3140 JUMP JUMPDEST SWAP4 SWAP3 POP POP POP JUMP JUMPDEST PUSH2 0x3267 DUP2 PUSH2 0x2F18 JUMP JUMPDEST DUP3 MSTORE POP POP JUMP JUMPDEST PUSH0 PUSH1 0x20 DUP3 ADD SWAP1 POP PUSH2 0x3280 PUSH0 DUP4 ADD DUP5 PUSH2 0x325E JUMP JUMPDEST SWAP3 SWAP2 POP POP JUMP JUMPDEST PUSH2 0x328F DUP2 PUSH2 0x2DC0 JUMP JUMPDEST DUP3 MSTORE POP POP JUMP JUMPDEST PUSH0 PUSH1 0x20 DUP3 ADD SWAP1 POP PUSH2 0x32A8 PUSH0 DUP4 ADD DUP5 PUSH2 0x3286 JUMP JUMPDEST SWAP3 SWAP2 POP POP JUMP JUMPDEST PUSH0 DUP1 PUSH1 0x40 DUP4 DUP6 SUB SLT ISZERO PUSH2 0x32C4 JUMPI PUSH2 0x32C3 PUSH2 0x2DB8 JUMP JUMPDEST JUMPDEST PUSH0 PUSH2 0x32D1 DUP6 DUP3 DUP7 ADD PUSH2 0x2F69 JUMP JUMPDEST SWAP3 POP POP PUSH1 0x20 PUSH2 0x32E2 DUP6 DUP3 DUP7 ADD PUSH2 0x2F3F JUMP JUMPDEST SWAP2 POP POP SWAP3 POP SWAP3 SWAP1 POP JUMP JUMPDEST PUSH0 DUP2 MLOAD SWAP1 POP SWAP2 SWAP1 POP JUMP JUMPDEST PUSH0 DUP3 DUP3 MSTORE PUSH1 0x20 DUP3 ADD SWAP1 POP SWAP3 SWAP2 POP POP JUMP JUMPDEST PUSH0 DUP2 SWAP1 POP PUSH1 0x20 DUP3 ADD SWAP1 POP SWAP2 SWAP1 POP JUMP JUMPDEST PUSH2 0x331E DUP2 PUSH2 0x2DC0 JUMP JUMPDEST DUP3 MSTORE POP POP JUMP JUMPDEST PUSH1 0x60 DUP3 ADD PUSH0 DUP3 ADD MLOAD PUSH2 0x3338 PUSH0 DUP6 ADD DUP3 PUSH2 0x2E4B JUMP JUMPDEST POP PUSH1 0x20 DUP3 ADD MLOAD PUSH2 0x334B PUSH1 0x20 DUP6 ADD DUP3 PUSH2 0x3315 JUMP JUMPDEST POP PUSH1 0x40 DUP3 ADD MLOAD PUSH2 0x335E PUSH1 0x40 DUP6 ADD DUP3 PUSH2 0x2E4B JUMP JUMPDEST POP POP POP POP JUMP JUMPDEST PUSH0 PUSH2 0x336F DUP4 DUP4 PUSH2 0x3324 JUMP JUMPDEST PUSH1 0x60 DUP4 ADD SWAP1 POP SWAP3 SWAP2 POP POP JUMP JUMPDEST PUSH0 PUSH1 0x20 DUP3 ADD SWAP1 POP SWAP2 SWAP1 POP JUMP JUMPDEST PUSH0 PUSH2 0x3391 DUP3 PUSH2 0x32EC JUMP JUMPDEST PUSH2 0x339B DUP2 DUP6 PUSH2 0x32F6 JUMP JUMPDEST SWAP4 POP PUSH2 0x33A6 DUP4 PUSH2 0x3306 JUMP JUMPDEST DUP1 PUSH0 JUMPDEST DUP4 DUP2 LT ISZERO PUSH2 0x33D6 JUMPI DUP2 MLOAD PUSH2 0x33BD DUP9 DUP3 PUSH2 0x3364 JUMP JUMPDEST SWAP8 POP PUSH2 0x33C8 DUP4 PUSH2 0x337B JUMP JUMPDEST SWAP3 POP POP PUSH1 0x1 DUP2 ADD SWAP1 POP PUSH2 0x33A9 JUMP JUMPDEST POP DUP6 SWAP4 POP POP POP POP SWAP3 SWAP2 POP POP JUMP JUMPDEST PUSH0 PUSH1 0x20 DUP3 ADD SWAP1 POP DUP2 DUP2 SUB PUSH0 DUP4 ADD MSTORE PUSH2 0x33FB DUP2 DUP5 PUSH2 0x3387 JUMP JUMPDEST SWAP1 POP SWAP3 SWAP2 POP POP JUMP JUMPDEST PUSH0 PUSH1 0xFF DUP3 AND SWAP1 POP SWAP2 SWAP1 POP JUMP JUMPDEST PUSH2 0x3418 DUP2 PUSH2 0x3403 JUMP JUMPDEST DUP3 MSTORE POP POP JUMP JUMPDEST PUSH0 DUP3 DUP3 MSTORE PUSH1 0x20 DUP3 ADD SWAP1 POP SWAP3 SWAP2 POP POP JUMP JUMPDEST PUSH0 PUSH2 0x3438 DUP3 PUSH2 0x32EC JUMP JUMPDEST PUSH2 0x3442 DUP2 DUP6 PUSH2 0x341E JUMP JUMPDEST SWAP4 POP PUSH2 0x344D DUP4 PUSH2 0x3306 JUMP JUMPDEST DUP1 PUSH0 JUMPDEST DUP4 DUP2 LT ISZERO PUSH2 0x347D JUMPI DUP2 MLOAD PUSH2 0x3464 DUP9 DUP3 PUSH2 0x3364 JUMP JUMPDEST SWAP8 POP PUSH2 0x346F DUP4 PUSH2 0x337B JUMP JUMPDEST SWAP3 POP POP PUSH1 0x1 DUP2 ADD SWAP1 POP PUSH2 0x3450 JUMP JUMPDEST POP DUP6 SWAP4 POP POP POP POP SWAP3 SWAP2 POP POP JUMP JUMPDEST PUSH0 PUSH1 0x60 DUP4 ADD PUSH0 DUP4 ADD MLOAD PUSH2 0x349F PUSH0 DUP7 ADD DUP3 PUSH2 0x2E4B JUMP JUMPDEST POP PUSH1 0x20 DUP4 ADD MLOAD PUSH2 0x34B2 PUSH1 0x20 DUP7 ADD DUP3 PUSH2 0x340F JUMP JUMPDEST POP PUSH1 0x40 DUP4 ADD MLOAD DUP5 DUP3 SUB PUSH1 0x40 DUP7 ADD MSTORE PUSH2 0x34CA DUP3 DUP3 PUSH2 0x342E JUMP JUMPDEST SWAP2 POP POP DUP1 SWAP2 POP POP SWAP3 SWAP2 POP POP JUMP JUMPDEST PUSH0 PUSH1 0x20 DUP3 ADD SWAP1 POP DUP2 DUP2 SUB PUSH0 DUP4 ADD MSTORE PUSH2 0x34EF DUP2 DUP5 PUSH2 0x348A JUMP JUMPDEST SWAP1 POP SWAP3 SWAP2 POP POP JUMP JUMPDEST PUSH0 DUP3 DUP3 MSTORE PUSH1 0x20 DUP3 ADD SWAP1 POP SWAP3 SWAP2 POP POP JUMP JUMPDEST DUP3 DUP2 DUP4 CALLDATACOPY PUSH0 DUP4 DUP4 ADD MSTORE POP POP POP JUMP JUMPDEST PUSH0 PUSH1 0x1F NOT PUSH1 0x1F DUP4 ADD AND SWAP1 POP SWAP2 SWAP1 POP JUMP JUMPDEST PUSH0 PUSH2 0x3530 DUP4 DUP6 PUSH2 0x34F7 JUMP JUMPDEST SWAP4 POP PUSH2 0x353D DUP4 DUP6 DUP5 PUSH2 0x3507 JUMP JUMPDEST PUSH2 0x3546 DUP4 PUSH2 0x3515 JUMP JUMPDEST DUP5 ADD SWAP1 POP SWAP4 SWAP3 POP POP POP JUMP JUMPDEST PUSH0 PUSH1 0xA0 DUP3 ADD SWAP1 POP PUSH2 0x3564 PUSH0 DUP4 ADD DUP10 PUSH2 0x325E JUMP JUMPDEST PUSH2 0x3571 PUSH1 0x20 DUP4 ADD DUP9 PUSH2 0x325E JUMP JUMPDEST PUSH2 0x357E PUSH1 0x40 DUP4 ADD DUP8 PUSH2 0x3140 JUMP JUMPDEST PUSH2 0x358B PUSH1 0x60 DUP4 ADD DUP7 PUSH2 0x3140 JUMP JUMPDEST DUP2 DUP2 SUB PUSH1 0x80 DUP4 ADD MSTORE PUSH2 0x359E DUP2 DUP5 DUP7 PUSH2 0x3525 JUMP JUMPDEST SWAP1 POP SWAP8 SWAP7 POP POP POP POP POP POP POP JUMP JUMPDEST PUSH0 DUP3 DUP3 MSTORE PUSH1 0x20 DUP3 ADD SWAP1 POP SWAP3 SWAP2 POP POP JUMP JUMPDEST PUSH32 0x776C2073706F7473206F76657200000000000000000000000000000000000000 PUSH0 DUP3 ADD MSTORE POP JUMP JUMPDEST PUSH0 PUSH2 0x35EF PUSH1 0xD DUP4 PUSH2 0x35AB JUMP JUMPDEST SWAP2 POP PUSH2 0x35FA DUP3 PUSH2 0x35BB JUMP JUMPDEST PUSH1 0x20 DUP3 ADD SWAP1 POP SWAP2 SWAP1 POP JUMP JUMPDEST PUSH0 PUSH1 0x20 DUP3 ADD SWAP1 POP DUP2 DUP2 SUB PUSH0 DUP4 ADD MSTORE PUSH2 0x361C DUP2 PUSH2 0x35E3 JUMP JUMPDEST SWAP1 POP SWAP2 SWAP1 POP JUMP JUMPDEST PUSH0 PUSH2 0x362D DUP3 PUSH2 0x3403 JUMP JUMPDEST SWAP2 POP PUSH2 0x3638 DUP4 PUSH2 0x3403 JUMP JUMPDEST SWAP3 POP DUP3 DUP3 SUB SWAP1 POP PUSH1 0xFF DUP2 GT ISZERO PUSH2 0x3651 JUMPI PUSH2 0x3650 PUSH2 0x2D58 JUMP JUMPDEST JUMPDEST SWAP3 SWAP2 POP POP JUMP JUMPDEST PUSH0 PUSH2 0x3661 DUP3 PUSH2 0x3403 JUMP JUMPDEST SWAP2 POP PUSH2 0x366C DUP4 PUSH2 0x3403 JUMP JUMPDEST SWAP3 POP DUP3 DUP3 ADD SWAP1 POP PUSH1 0xFF DUP2 GT ISZERO PUSH2 0x3685 JUMPI PUSH2 0x3684 PUSH2 0x2D58 JUMP JUMPDEST JUMPDEST SWAP3 SWAP2 POP POP JUMP JUMPDEST PUSH0 DUP2 MLOAD SWAP1 POP PUSH2 0x3699 DUP2 PUSH2 0x2F29 JUMP JUMPDEST SWAP3 SWAP2 POP POP JUMP JUMPDEST PUSH0 PUSH1 0x20 DUP3 DUP5 SUB SLT ISZERO PUSH2 0x36B4 JUMPI PUSH2 0x36B3 PUSH2 0x2DB8 JUMP JUMPDEST JUMPDEST PUSH0 PUSH2 0x36C1 DUP5 DUP3 DUP6 ADD PUSH2 0x368B JUMP JUMPDEST SWAP2 POP POP SWAP3 SWAP2 POP POP JUMP JUMPDEST PUSH32 0x6E6F74206F776E6572206F6620696420746F2062696E64000000000000000000 PUSH0 DUP3 ADD MSTORE POP JUMP JUMPDEST PUSH0 PUSH2 0x36FE PUSH1 0x17 DUP4 PUSH2 0x35AB JUMP JUMPDEST SWAP2 POP PUSH2 0x3709 DUP3 PUSH2 0x36CA JUMP JUMPDEST PUSH1 0x20 DUP3 ADD SWAP1 POP SWAP2 SWAP1 POP JUMP JUMPDEST PUSH0 PUSH1 0x20 DUP3 ADD SWAP1 POP DUP2 DUP2 SUB PUSH0 DUP4 ADD MSTORE PUSH2 0x372B DUP2 PUSH2 0x36F2 JUMP JUMPDEST SWAP1 POP SWAP2 SWAP1 POP JUMP JUMPDEST PUSH32 0x616C726561647920626F756E6400000000000000000000000000000000000000 PUSH0 DUP3 ADD MSTORE POP JUMP JUMPDEST PUSH0 PUSH2 0x3766 PUSH1 0xD DUP4 PUSH2 0x35AB JUMP JUMPDEST SWAP2 POP PUSH2 0x3771 DUP3 PUSH2 0x3732 JUMP JUMPDEST PUSH1 0x20 DUP3 ADD SWAP1 POP SWAP2 SWAP1 POP JUMP JUMPDEST PUSH0 PUSH1 0x20 DUP3 ADD SWAP1 POP DUP2 DUP2 SUB PUSH0 DUP4 ADD MSTORE PUSH2 0x3793 DUP2 PUSH2 0x375A JUMP JUMPDEST SWAP1 POP SWAP2 SWAP1 POP JUMP JUMPDEST PUSH0 DUP2 MLOAD SWAP1 POP PUSH2 0x37A8 DUP2 PUSH2 0x30C0 JUMP JUMPDEST SWAP3 SWAP2 POP POP JUMP JUMPDEST PUSH0 PUSH1 0x20 DUP3 DUP5 SUB SLT ISZERO PUSH2 0x37C3 JUMPI PUSH2 0x37C2 PUSH2 0x2DB8 JUMP JUMPDEST JUMPDEST PUSH0 PUSH2 0x37D0 DUP5 DUP3 DUP6 ADD PUSH2 0x379A JUMP JUMPDEST SWAP2 POP POP SWAP3 SWAP2 POP POP JUMP JUMPDEST PUSH32 0x6E6F742072656369657665640000000000000000000000000000000000000000 PUSH0 DUP3 ADD MSTORE POP JUMP JUMPDEST PUSH0 PUSH2 0x380D PUSH1 0xC DUP4 PUSH2 0x35AB JUMP JUMPDEST SWAP2 POP PUSH2 0x3818 DUP3 PUSH2 0x37D9 JUMP JUMPDEST PUSH1 0x20 DUP3 ADD SWAP1 POP SWAP2 SWAP1 POP JUMP JUMPDEST PUSH0 PUSH1 0x20 DUP3 ADD SWAP1 POP DUP2 DUP2 SUB PUSH0 DUP4 ADD MSTORE PUSH2 0x383A DUP2 PUSH2 0x3801 JUMP JUMPDEST SWAP1 POP SWAP2 SWAP1 POP JUMP JUMPDEST PUSH0 PUSH1 0x60 DUP3 ADD SWAP1 POP PUSH2 0x3854 PUSH0 DUP4 ADD DUP7 PUSH2 0x325E JUMP JUMPDEST PUSH2 0x3861 PUSH1 0x20 DUP4 ADD DUP6 PUSH2 0x325E JUMP JUMPDEST PUSH2 0x386E PUSH1 0x40 DUP4 ADD DUP5 PUSH2 0x3140 JUMP JUMPDEST SWAP5 SWAP4 POP POP POP POP JUMP JUMPDEST PUSH0 PUSH2 0x3880 DUP3 PUSH2 0x2D4F JUMP JUMPDEST SWAP2 POP PUSH2 0x388B DUP4 PUSH2 0x2D4F JUMP JUMPDEST SWAP3 POP DUP3 DUP3 MUL PUSH2 0x3899 DUP2 PUSH2 0x2D4F JUMP JUMPDEST SWAP2 POP DUP3 DUP3 DIV DUP5 EQ DUP4 ISZERO OR PUSH2 0x38B0 JUMPI PUSH2 0x38AF PUSH2 0x2D58 JUMP JUMPDEST JUMPDEST POP SWAP3 SWAP2 POP POP JUMP JUMPDEST PUSH32 0x4E487B7100000000000000000000000000000000000000000000000000000000 PUSH0 MSTORE PUSH1 0x12 PUSH1 0x4 MSTORE PUSH1 0x24 PUSH0 REVERT JUMPDEST PUSH0 PUSH2 0x38EE DUP3 PUSH2 0x2D4F JUMP JUMPDEST SWAP2 POP PUSH2 0x38F9 DUP4 PUSH2 0x2D4F JUMP JUMPDEST SWAP3 POP DUP3 PUSH2 0x3909 JUMPI PUSH2 0x3908 PUSH2 0x38B7 JUMP JUMPDEST JUMPDEST DUP3 DUP3 DIV SWAP1 POP SWAP3 SWAP2 POP POP JUMP JUMPDEST PUSH32 0x6D696E74206C696D697420726561636865640000000000000000000000000000 PUSH0 DUP3 ADD MSTORE POP JUMP JUMPDEST PUSH0 PUSH2 0x3948 PUSH1 0x12 DUP4 PUSH2 0x35AB JUMP JUMPDEST SWAP2 POP PUSH2 0x3953 DUP3 PUSH2 0x3914 JUMP JUMPDEST PUSH1 0x20 DUP3 ADD SWAP1 POP SWAP2 SWAP1 POP JUMP JUMPDEST PUSH0 PUSH1 0x20 DUP3 ADD SWAP1 POP DUP2 DUP2 SUB PUSH0 DUP4 ADD MSTORE PUSH2 0x3975 DUP2 PUSH2 0x393C JUMP JUMPDEST SWAP1 POP SWAP2 SWAP1 POP JUMP JUMPDEST PUSH32 0x696E636F7272656374206D696E742066656520616D6F756E7400000000000000 PUSH0 DUP3 ADD MSTORE POP JUMP JUMPDEST PUSH0 PUSH2 0x39B0 PUSH1 0x19 DUP4 PUSH2 0x35AB JUMP JUMPDEST SWAP2 POP PUSH2 0x39BB DUP3 PUSH2 0x397C JUMP JUMPDEST PUSH1 0x20 DUP3 ADD SWAP1 POP SWAP2 SWAP1 POP JUMP JUMPDEST PUSH0 PUSH1 0x20 DUP3 ADD SWAP1 POP DUP2 DUP2 SUB PUSH0 DUP4 ADD MSTORE PUSH2 0x39DD DUP2 PUSH2 0x39A4 JUMP JUMPDEST SWAP1 POP SWAP2 SWAP1 POP JUMP JUMPDEST PUSH32 0x6D696E74206F766572206F72206E6F7420737461727465640000000000000000 PUSH0 DUP3 ADD MSTORE POP JUMP JUMPDEST PUSH0 PUSH2 0x3A18 PUSH1 0x18 DUP4 PUSH2 0x35AB JUMP JUMPDEST SWAP2 POP PUSH2 0x3A23 DUP3 PUSH2 0x39E4 JUMP JUMPDEST PUSH1 0x20 DUP3 ADD SWAP1 POP SWAP2 SWAP1 POP JUMP JUMPDEST PUSH0 PUSH1 0x20 DUP3 ADD SWAP1 POP DUP2 DUP2 SUB PUSH0 DUP4 ADD MSTORE PUSH2 0x3A45 DUP2 PUSH2 0x3A0C JUMP JUMPDEST SWAP1 POP SWAP2 SWAP1 POP JUMP JUMPDEST PUSH32 0x72656665726572206D757374206D696E74206669727374000000000000000000 PUSH0 DUP3 ADD MSTORE POP JUMP JUMPDEST PUSH0 PUSH2 0x3A80 PUSH1 0x17 DUP4 PUSH2 0x35AB JUMP JUMPDEST SWAP2 POP PUSH2 0x3A8B DUP3 PUSH2 0x3A4C JUMP JUMPDEST PUSH1 0x20 DUP3 ADD SWAP1 POP SWAP2 SWAP1 POP JUMP JUMPDEST PUSH0 PUSH1 0x20 DUP3 ADD SWAP1 POP DUP2 DUP2 SUB PUSH0 DUP4 ADD MSTORE PUSH2 0x3AAD DUP2 PUSH2 0x3A74 JUMP JUMPDEST SWAP1 POP SWAP2 SWAP1 POP JUMP JUMPDEST PUSH0 DUP2 MLOAD SWAP1 POP SWAP2 SWAP1 POP JUMP JUMPDEST PUSH0 JUMPDEST DUP4 DUP2 LT ISZERO PUSH2 0x3ADB JUMPI DUP1 DUP3 ADD MLOAD DUP2 DUP5 ADD MSTORE PUSH1 0x20 DUP2 ADD SWAP1 POP PUSH2 0x3AC0 JUMP JUMPDEST PUSH0 DUP5 DUP5 ADD MSTORE POP POP POP POP JUMP JUMPDEST PUSH0 PUSH2 0x3AF0 DUP3 PUSH2 0x3AB4 JUMP JUMPDEST PUSH2 0x3AFA DUP2 DUP6 PUSH2 0x35AB JUMP JUMPDEST SWAP4 POP PUSH2 0x3B0A DUP2 DUP6 PUSH1 0x20 DUP7 ADD PUSH2 0x3ABE JUMP JUMPDEST PUSH2 0x3B13 DUP2 PUSH2 0x3515 JUMP JUMPDEST DUP5 ADD SWAP2 POP POP SWAP3 SWAP2 POP POP JUMP JUMPDEST PUSH0 PUSH1 0x60 DUP3 ADD SWAP1 POP PUSH2 0x3B31 PUSH0 DUP4 ADD DUP7 PUSH2 0x325E JUMP JUMPDEST PUSH2 0x3B3E PUSH1 0x20 DUP4 ADD DUP6 PUSH2 0x3140 JUMP JUMPDEST DUP2 DUP2 SUB PUSH1 0x40 DUP4 ADD MSTORE PUSH2 0x3B50 DUP2 DUP5 PUSH2 0x3AE6 JUMP JUMPDEST SWAP1 POP SWAP5 SWAP4 POP POP POP POP JUMP JUMPDEST PUSH0 PUSH2 0x3B64 DUP3 PUSH2 0x2D4F JUMP JUMPDEST SWAP2 POP PUSH2 0x3B6F DUP4 PUSH2 0x2D4F JUMP JUMPDEST SWAP3 POP DUP3 DUP3 SUB SWAP1 POP DUP2 DUP2 GT ISZERO PUSH2 0x3B87 JUMPI PUSH2 0x3B86 PUSH2 0x2D58 JUMP JUMPDEST JUMPDEST SWAP3 SWAP2 POP POP JUMP JUMPDEST PUSH0 PUSH2 0x3B97 DUP3 PUSH2 0x2DC0 JUMP JUMPDEST SWAP2 POP PUSH2 0x3BA2 DUP4 PUSH2 0x2DC0 JUMP JUMPDEST SWAP3 POP DUP3 DUP3 ADD SWAP1 POP PUSH2 0xFFFF DUP2 GT ISZERO PUSH2 0x3BBC JUMPI PUSH2 0x3BBB PUSH2 0x2D58 JUMP JUMPDEST JUMPDEST SWAP3 SWAP2 POP POP JUMP JUMPDEST PUSH32 0x6E6F74206F776E6572206F6620696420746F20636C61696D0000000000000000 PUSH0 DUP3 ADD MSTORE POP JUMP JUMPDEST PUSH0 PUSH2 0x3BF6 PUSH1 0x18 DUP4 PUSH2 0x35AB JUMP JUMPDEST SWAP2 POP PUSH2 0x3C01 DUP3 PUSH2 0x3BC2 JUMP JUMPDEST PUSH1 0x20 DUP3 ADD SWAP1 POP SWAP2 SWAP1 POP JUMP JUMPDEST PUSH0 PUSH1 0x20 DUP3 ADD SWAP1 POP DUP2 DUP2 SUB PUSH0 DUP4 ADD MSTORE PUSH2 0x3C23 DUP2 PUSH2 0x3BEA JUMP JUMPDEST SWAP1 POP SWAP2 SWAP1 POP JUMP JUMPDEST PUSH32 0x616C72656164792077697468647261776E000000000000000000000000000000 PUSH0 DUP3 ADD MSTORE POP JUMP JUMPDEST PUSH0 PUSH2 0x3C5E PUSH1 0x11 DUP4 PUSH2 0x35AB JUMP JUMPDEST SWAP2 POP PUSH2 0x3C69 DUP3 PUSH2 0x3C2A JUMP JUMPDEST PUSH1 0x20 DUP3 ADD SWAP1 POP SWAP2 SWAP1 POP JUMP JUMPDEST PUSH0 PUSH1 0x20 DUP3 ADD SWAP1 POP DUP2 DUP2 SUB PUSH0 DUP4 ADD MSTORE PUSH2 0x3C8B DUP2 PUSH2 0x3C52 JUMP JUMPDEST SWAP1 POP SWAP2 SWAP1 POP JUMP JUMPDEST PUSH32 0x3078000000000000000000000000000000000000000000000000000000000000 PUSH0 DUP3 ADD MSTORE POP JUMP JUMPDEST PUSH0 PUSH2 0x3CC6 PUSH1 0x2 DUP4 PUSH2 0x35AB JUMP JUMPDEST SWAP2 POP PUSH2 0x3CD1 DUP3 PUSH2 0x3C92 JUMP JUMPDEST PUSH1 0x20 DUP3 ADD SWAP1 POP SWAP2 SWAP1 POP JUMP JUMPDEST PUSH0 PUSH1 0x20 DUP3 ADD SWAP1 POP DUP2 DUP2 SUB PUSH0 DUP4 ADD MSTORE PUSH2 0x3CF3 DUP2 PUSH2 0x3CBA JUMP JUMPDEST SWAP1 POP SWAP2 SWAP1 POP JUMP JUMPDEST PUSH32 0x2F6A736F6E2F0000000000000000000000000000000000000000000000000000 DUP2 MSTORE POP JUMP JUMPDEST PUSH0 DUP2 SWAP1 POP SWAP3 SWAP2 POP POP JUMP JUMPDEST PUSH0 PUSH2 0x3D34 DUP3 PUSH2 0x3AB4 JUMP JUMPDEST PUSH2 0x3D3E DUP2 DUP6 PUSH2 0x3D20 JUMP JUMPDEST SWAP4 POP PUSH2 0x3D4E DUP2 DUP6 PUSH1 0x20 DUP7 ADD PUSH2 0x3ABE JUMP JUMPDEST DUP1 DUP5 ADD SWAP2 POP POP SWAP3 SWAP2 POP POP JUMP JUMPDEST PUSH32 0x2E6A736F6E000000000000000000000000000000000000000000000000000000 DUP2 MSTORE POP JUMP JUMPDEST PUSH0 PUSH2 0x3D8A DUP3 PUSH2 0x3CFA JUMP JUMPDEST PUSH1 0x6 DUP3 ADD SWAP2 POP PUSH2 0x3D9A DUP3 DUP5 PUSH2 0x3D2A JUMP JUMPDEST SWAP2 POP PUSH2 0x3DA5 DUP3 PUSH2 0x3D5A JUMP JUMPDEST PUSH1 0x5 DUP3 ADD SWAP2 POP DUP2 SWAP1 POP SWAP3 SWAP2 POP POP JUMP JUMPDEST PUSH0 PUSH2 0x3DBE DUP3 PUSH2 0x2D4F JUMP JUMPDEST SWAP2 POP PUSH32 0xFFFFFFFFFFFFFFFFFFFFFFFFFFFFFFFFFFFFFFFFFFFFFFFFFFFFFFFFFFFFFFFF DUP3 SUB PUSH2 0x3DF0 JUMPI PUSH2 0x3DEF PUSH2 0x2D58 JUMP JUMPDEST JUMPDEST PUSH1 0x1 DUP3 ADD SWAP1 POP SWAP2 SWAP1 POP JUMP JUMPDEST PUSH32 0x4E487B7100000000000000000000000000000000000000000000000000000000 PUSH0 MSTORE PUSH1 0x41 PUSH1 0x4 MSTORE PUSH1 0x24 PUSH0 REVERT JUMPDEST PUSH0 DUP2 SWAP1 POP SWAP2 SWAP1 POP JUMP JUMPDEST PUSH2 0x3E42 PUSH2 0x3E3D DUP3 PUSH2 0x2D4F JUMP JUMPDEST PUSH2 0x3E28 JUMP JUMPDEST DUP3 MSTORE POP POP JUMP JUMPDEST PUSH0 DUP2 PUSH1 0x60 SHL SWAP1 POP SWAP2 SWAP1 POP JUMP JUMPDEST PUSH0 PUSH2 0x3E5E DUP3 PUSH2 0x3E48 JUMP JUMPDEST SWAP1 POP SWAP2 SWAP1 POP JUMP JUMPDEST PUSH0 PUSH2 0x3E6F DUP3 PUSH2 0x3E54 JUMP JUMPDEST SWAP1 POP SWAP2 SWAP1 POP JUMP JUMPDEST PUSH2 0x3E87 PUSH2 0x3E82 DUP3 PUSH2 0x2F18 JUMP JUMPDEST PUSH2 0x3E65 JUMP JUMPDEST DUP3 MSTORE POP POP JUMP JUMPDEST PUSH0 PUSH2 0x3E98 DUP3 DUP7 PUSH2 0x3E31 JUMP JUMPDEST PUSH1 0x20 DUP3 ADD SWAP2 POP PUSH2 0x3EA8 DUP3 DUP6 PUSH2 0x3E76 JUMP JUMPDEST PUSH1 0x14 DUP3 ADD SWAP2 POP PUSH2 0x3EB8 DUP3 DUP5 PUSH2 0x3E31 JUMP JUMPDEST PUSH1 0x20 DUP3 ADD SWAP2 POP DUP2 SWAP1 POP SWAP5 SWAP4 POP POP POP POP JUMP JUMPDEST PUSH0 PUSH2 0x3ED3 DUP3 PUSH2 0x2D4F JUMP JUMPDEST SWAP2 POP PUSH2 0x3EDE DUP4 PUSH2 0x2D4F JUMP JUMPDEST SWAP3 POP DUP3 PUSH2 0x3EEE JUMPI PUSH2 0x3EED PUSH2 0x38B7 JUMP JUMPDEST JUMPDEST DUP3 DUP3 MOD SWAP1 POP SWAP3 SWAP2 POP POP JUMP JUMPDEST PUSH32 0x4E487B7100000000000000000000000000000000000000000000000000000000 PUSH0 MSTORE PUSH1 0x32 PUSH1 0x4 MSTORE PUSH1 0x24 PUSH0 REVERT JUMPDEST PUSH0 DUP2 SWAP1 POP SWAP2 SWAP1 POP JUMP JUMPDEST PUSH0 DUP2 SWAP1 POP SWAP2 SWAP1 POP JUMP JUMPDEST PUSH0 PUSH2 0x3F52 PUSH2 0x3F4D PUSH2 0x3F48 DUP5 PUSH2 0x3F26 JUMP JUMPDEST PUSH2 0x3F2F JUMP JUMPDEST PUSH2 0x2D4F JUMP JUMPDEST SWAP1 POP SWAP2 SWAP1 POP JUMP JUMPDEST PUSH2 0x3F62 DUP2 PUSH2 0x3F38 JUMP JUMPDEST DUP3 MSTORE POP POP JUMP JUMPDEST PUSH0 PUSH1 0x40 DUP3 ADD SWAP1 POP PUSH2 0x3F7B PUSH0 DUP4 ADD DUP6 PUSH2 0x3140 JUMP JUMPDEST PUSH2 0x3F88 PUSH1 0x20 DUP4 ADD DUP5 PUSH2 0x3F59 JUMP JUMPDEST SWAP4 SWAP3 POP POP POP JUMP INVALID LOG2 PUSH5 0x6970667358 0x22 SLT KECCAK256 DUP8 0xCC AND 0xE9 0xD2 0xE 0xC3 DUP11 0xEF 0xCC 0xE2 MUL 0xCC 0x4D 0xBF BLOCKHASH XOR PUSH4 0x720C6EF0 STATICCALL LOG4 0xC0 0xF6 0x4E 0xA8 0xF6 PUSH25 0xDF5164736F6C634300081400336080604052612710600A5560 EXP SLOAD PUSH11 0x1C89A8BF5E9E0632800000 PUSH3 0x25 SWAP2 SWAP1 PUSH3 0x437 JUMP JUMPDEST PUSH1 0xB SSTORE CALLVALUE DUP1 ISZERO PUSH3 0x34 JUMPI PUSH0 DUP1 REVERT JUMPDEST POP PUSH1 0x40 MLOAD PUSH3 0x3FA6 CODESIZE SUB DUP1 PUSH3 0x3FA6 DUP4 CODECOPY DUP2 DUP2 ADD PUSH1 0x40 MSTORE DUP2 ADD SWAP1 PUSH3 0x5A SWAP2 SWAP1 PUSH3 0x4D3 JUMP JUMPDEST DUP1 PUSH1 0x40 MLOAD DUP1 PUSH1 0x40 ADD PUSH1 0x40 MSTORE DUP1 PUSH1 0x18 DUP2 MSTORE PUSH1 0x20 ADD PUSH32 0x424F4F4253204F4620424954434F494E20544553544E45540000000000000000 DUP2 MSTORE POP PUSH1 0x40 MLOAD DUP1 PUSH1 0x40 ADD PUSH1 0x40 MSTORE DUP1 PUSH1 0x8 DUP2 MSTORE PUSH1 0x20 ADD PUSH32 0x424F422054455354000000000000000000000000000000000000000000000000 DUP2 MSTORE POP DUP2 PUSH0 SWAP1 DUP2 PUSH3 0xD7 SWAP2 SWAP1 PUSH3 0x75E JUMP JUMPDEST POP DUP1 PUSH1 0x1 SWAP1 DUP2 PUSH3 0xE9 SWAP2 SWAP1 PUSH3 0x75E JUMP JUMPDEST POP POP POP PUSH0 PUSH20 0xFFFFFFFFFFFFFFFFFFFFFFFFFFFFFFFFFFFFFFFF AND DUP2 PUSH20 0xFFFFFFFFFFFFFFFFFFFFFFFFFFFFFFFFFFFFFFFF AND SUB PUSH3 0x15F JUMPI PUSH0 PUSH1 0x40 MLOAD PUSH32 0x1E4FBDF700000000000000000000000000000000000000000000000000000000 DUP2 MSTORE PUSH1 0x4 ADD PUSH3 0x156 SWAP2 SWAP1 PUSH3 0x853 JUMP JUMPDEST PUSH1 0x40 MLOAD DUP1 SWAP2 SUB SWAP1 REVERT JUMPDEST PUSH3 0x170 DUP2 PUSH3 0x18C PUSH1 0x20 SHL PUSH1 0x20 SHR JUMP JUMPDEST POP PUSH3 0x185 DUP2 PUSH2 0x2B2 PUSH3 0x24F PUSH1 0x20 SHL PUSH1 0x20 SHR JUMP JUMPDEST POP PUSH3 0x8F9 JUMP JUMPDEST PUSH0 PUSH1 0x7 PUSH0 SWAP1 SLOAD SWAP1 PUSH2 0x100 EXP SWAP1 DIV PUSH20 0xFFFFFFFFFFFFFFFFFFFFFFFFFFFFFFFFFFFFFFFF AND SWAP1 POP DUP2 PUSH1 0x7 PUSH0 PUSH2 0x100 EXP DUP2 SLOAD DUP2 PUSH20 0xFFFFFFFFFFFFFFFFFFFFFFFFFFFFFFFFFFFFFFFF MUL NOT AND SWAP1 DUP4 PUSH20 0xFFFFFFFFFFFFFFFFFFFFFFFFFFFFFFFFFFFFFFFF AND MUL OR SWAP1 SSTORE POP DUP2 PUSH20 0xFFFFFFFFFFFFFFFFFFFFFFFFFFFFFFFFFFFFFFFF AND DUP2 PUSH20 0xFFFFFFFFFFFFFFFFFFFFFFFFFFFFFFFFFFFFFFFF AND PUSH32 0x8BE0079C531659141344CD1FD0A4F28419497F9722A3DAAFE3B4186F6B6457E0 PUSH1 0x40 MLOAD PUSH1 0x40 MLOAD DUP1 SWAP2 SUB SWAP1 LOG3 POP POP JUMP JUMPDEST PUSH0 PUSH3 0x260 PUSH3 0x3F8 PUSH1 0x20 SHL PUSH1 0x20 SHR JUMP JUMPDEST PUSH12 0xFFFFFFFFFFFFFFFFFFFFFFFF AND SWAP1 POP DUP1 DUP3 PUSH12 0xFFFFFFFFFFFFFFFFFFFFFFFF AND GT ISZERO PUSH3 0x2C8 JUMPI DUP2 DUP2 PUSH1 0x40 MLOAD PUSH32 0x6F483D0900000000000000000000000000000000000000000000000000000000 DUP2 MSTORE PUSH1 0x4 ADD PUSH3 0x2BF SWAP3 SWAP2 SWAP1 PUSH3 0x8CE JUMP JUMPDEST PUSH1 0x40 MLOAD DUP1 SWAP2 SUB SWAP1 REVERT JUMPDEST PUSH0 PUSH20 0xFFFFFFFFFFFFFFFFFFFFFFFFFFFFFFFFFFFFFFFF AND DUP4 PUSH20 0xFFFFFFFFFFFFFFFFFFFFFFFFFFFFFFFFFFFFFFFF AND SUB PUSH3 0x33B JUMPI PUSH0 PUSH1 0x40 MLOAD PUSH32 0xB6D9900A00000000000000000000000000000000000000000000000000000000 DUP2 MSTORE PUSH1 0x4 ADD PUSH3 0x332 SWAP2 SWAP1 PUSH3 0x853 JUMP JUMPDEST PUSH1 0x40 MLOAD DUP1 SWAP2 SUB SWAP1 REVERT JUMPDEST PUSH1 0x40 MLOAD DUP1 PUSH1 0x40 ADD PUSH1 0x40 MSTORE DUP1 DUP5 PUSH20 0xFFFFFFFFFFFFFFFFFFFFFFFFFFFFFFFFFFFFFFFF AND DUP2 MSTORE PUSH1 0x20 ADD DUP4 PUSH12 0xFFFFFFFFFFFFFFFFFFFFFFFF AND DUP2 MSTORE POP PUSH1 0x8 PUSH0 DUP3 ADD MLOAD DUP2 PUSH0 ADD PUSH0 PUSH2 0x100 EXP DUP2 SLOAD DUP2 PUSH20 0xFFFFFFFFFFFFFFFFFFFFFFFFFFFFFFFFFFFFFFFF MUL NOT AND SWAP1 DUP4 PUSH20 0xFFFFFFFFFFFFFFFFFFFFFFFFFFFFFFFFFFFFFFFF AND MUL OR SWAP1 SSTORE POP PUSH1 0x20 DUP3 ADD MLOAD DUP2 PUSH0 ADD PUSH1 0x14 PUSH2 0x100 EXP DUP2 SLOAD DUP2 PUSH12 0xFFFFFFFFFFFFFFFFFFFFFFFF MUL NOT AND SWAP1 DUP4 PUSH12 0xFFFFFFFFFFFFFFFFFFFFFFFF AND MUL OR SWAP1 SSTORE POP SWAP1 POP POP POP POP POP JUMP JUMPDEST PUSH0 PUSH2 0x2710 SWAP1 POP SWAP1 JUMP JUMPDEST PUSH0 DUP2 SWAP1 POP SWAP2 SWAP1 POP JUMP JUMPDEST PUSH32 0x4E487B7100000000000000000000000000000000000000000000000000000000 PUSH0 MSTORE PUSH1 0x12 PUSH1 0x4 MSTORE PUSH1 0x24 PUSH0 REVERT JUMPDEST PUSH0 PUSH3 0x443 DUP3 PUSH3 0x401 JUMP JUMPDEST SWAP2 POP PUSH3 0x450 DUP4 PUSH3 0x401 JUMP JUMPDEST SWAP3 POP DUP3 PUSH3 0x463 JUMPI PUSH3 0x462 PUSH3 0x40A JUMP JUMPDEST JUMPDEST DUP3 DUP3 DIV SWAP1 POP SWAP3 SWAP2 POP POP JUMP JUMPDEST PUSH0 DUP1 REVERT JUMPDEST PUSH0 PUSH20 0xFFFFFFFFFFFFFFFFFFFFFFFFFFFFFFFFFFFFFFFF DUP3 AND SWAP1 POP SWAP2 SWAP1 POP JUMP JUMPDEST PUSH0 PUSH3 0x49D DUP3 PUSH3 0x472 JUMP JUMPDEST SWAP1 POP SWAP2 SWAP1 POP JUMP JUMPDEST PUSH3 0x4AF DUP2 PUSH3 0x491 JUMP JUMPDEST DUP2 EQ PUSH3 0x4BA JUMPI PUSH0 DUP1 REVERT JUMPDEST POP JUMP JUMPDEST PUSH0 DUP2 MLOAD SWAP1 POP PUSH3 0x4CD DUP2 PUSH3 0x4A4 JUMP JUMPDEST SWAP3 SWAP2 POP POP JUMP JUMPDEST PUSH0 PUSH1 0x20 DUP3 DUP5 SUB SLT ISZERO PUSH3 0x4EB JUMPI PUSH3 0x4EA PUSH3 0x46E JUMP JUMPDEST JUMPDEST PUSH0 PUSH3 0x4FA DUP5 DUP3 DUP6 ADD PUSH3 0x4BD JUMP JUMPDEST SWAP2 POP POP SWAP3 SWAP2 POP POP JUMP JUMPDEST PUSH0 DUP2 MLOAD SWAP1 POP SWAP2 SWAP1 POP JUMP JUMPDEST PUSH32 0x4E487B7100000000000000000000000000000000000000000000000000000000 PUSH0 MSTORE PUSH1 0x41 PUSH1 0x4 MSTORE PUSH1 0x24 PUSH0 REVERT JUMPDEST PUSH32 0x4E487B7100000000000000000000000000000000000000000000000000000000 PUSH0 MSTORE PUSH1 0x22 PUSH1 0x4 MSTORE PUSH1 0x24 PUSH0 REVERT JUMPDEST PUSH0 PUSH1 0x2 DUP3 DIV SWAP1 POP PUSH1 0x1 DUP3 AND DUP1 PUSH3 0x57F JUMPI PUSH1 0x7F DUP3 AND SWAP2 POP JUMPDEST PUSH1 0x20 DUP3 LT DUP2 SUB PUSH3 0x595 JUMPI PUSH3 0x594 PUSH3 0x53A JUMP JUMPDEST JUMPDEST POP SWAP2 SWAP1 POP JUMP JUMPDEST PUSH0 DUP2 SWAP1 POP DUP2 PUSH0 MSTORE PUSH1 0x20 PUSH0 KECCAK256 SWAP1 POP SWAP2 SWAP1 POP JUMP JUMPDEST PUSH0 PUSH1 0x20 PUSH1 0x1F DUP4 ADD DIV SWAP1 POP SWAP2 SWAP1 POP JUMP JUMPDEST PUSH0 DUP3 DUP3 SHL SWAP1 POP SWAP3 SWAP2 POP POP JUMP JUMPDEST PUSH0 PUSH1 0x8 DUP4 MUL PUSH3 0x5F9 PUSH32 0xFFFFFFFFFFFFFFFFFFFFFFFFFFFFFFFFFFFFFFFFFFFFFFFFFFFFFFFFFFFFFFFF DUP3 PUSH3 0x5BC JUMP JUMPDEST PUSH3 0x605 DUP7 DUP4 PUSH3 0x5BC JUMP JUMPDEST SWAP6 POP DUP1 NOT DUP5 AND SWAP4 POP DUP1 DUP7 AND DUP5 OR SWAP3 POP POP POP SWAP4 SWAP3 POP POP POP JUMP JUMPDEST PUSH0 DUP2 SWAP1 POP SWAP2 SWAP1 POP JUMP JUMPDEST PUSH0 PUSH3 0x646 PUSH3 0x640 PUSH3 0x63A DUP5 PUSH3 0x401 JUMP JUMPDEST PUSH3 0x61D JUMP JUMPDEST PUSH3 0x401 JUMP JUMPDEST SWAP1 POP SWAP2 SWAP1 POP JUMP JUMPDEST PUSH0 DUP2 SWAP1 POP SWAP2 SWAP1 POP JUMP JUMPDEST PUSH3 0x661 DUP4 PUSH3 0x626 JUMP JUMPDEST PUSH3 0x679 PUSH3 0x670 DUP3 PUSH3 0x64D JUMP JUMPDEST DUP5 DUP5 SLOAD PUSH3 0x5C8 JUMP JUMPDEST DUP3 SSTORE POP POP POP POP JUMP JUMPDEST PUSH0 SWAP1 JUMP JUMPDEST PUSH3 0x68F PUSH3 0x681 JUMP JUMPDEST PUSH3 0x69C DUP2 DUP5 DUP5 PUSH3 0x656 JUMP JUMPDEST POP POP POP JUMP JUMPDEST JUMPDEST DUP2 DUP2 LT ISZERO PUSH3 0x6C3 JUMPI PUSH3 0x6B7 PUSH0 DUP3 PUSH3 0x685 JUMP JUMPDEST PUSH1 0x1 DUP2 ADD SWAP1 POP PUSH3 0x6A2 JUMP JUMPDEST POP POP JUMP JUMPDEST PUSH1 0x1F DUP3 GT ISZERO PUSH3 0x712 JUMPI PUSH3 0x6DC DUP2 PUSH3 0x59B JUMP JUMPDEST PUSH3 0x6E7 DUP5 PUSH3 0x5AD JUMP JUMPDEST DUP2 ADD PUSH1 0x20 DUP6 LT ISZERO PUSH3 0x6F7 JUMPI DUP2 SWAP1 POP JUMPDEST PUSH3 0x70F PUSH3 0x706 DUP6 PUSH3 0x5AD JUMP JUMPDEST DUP4 ADD DUP3 PUSH3 0x6A1 JUMP JUMPDEST POP POP JUMPDEST POP POP POP JUMP JUMPDEST PUSH0 DUP3 DUP3 SHR SWAP1 POP SWAP3 SWAP2 POP POP JUMP JUMPDEST PUSH0 PUSH3 0x734 PUSH0 NOT DUP5 PUSH1 0x8 MUL PUSH3 0x717 JUMP JUMPDEST NOT DUP1 DUP4 AND SWAP2 POP POP SWAP3 SWAP2 POP POP JUMP JUMPDEST PUSH0 PUSH3 0x74E DUP4 DUP4 PUSH3 0x723 JUMP JUMPDEST SWAP2 POP DUP3 PUSH1 0x2 MUL DUP3 OR SWAP1 POP SWAP3 SWAP2 POP POP JUMP JUMPDEST PUSH3 0x769 DUP3 PUSH3 0x503 JUMP JUMPDEST PUSH8 0xFFFFFFFFFFFFFFFF DUP2 GT ISZERO PUSH3 0x785 JUMPI PUSH3 0x784 PUSH3 0x50D JUMP JUMPDEST JUMPDEST PUSH3 0x791 DUP3 SLOAD PUSH3 0x567 JUMP JUMPDEST PUSH3 0x79E DUP3 DUP3 DUP6 PUSH3 0x6C7 JUMP JUMPDEST PUSH0 PUSH1 0x20 SWAP1 POP PUSH1 0x1F DUP4 GT PUSH1 0x1 DUP2 EQ PUSH3 0x7D4 JUMPI PUSH0 DUP5 ISZERO PUSH3 0x7BF JUMPI DUP3 DUP8 ADD MLOAD SWAP1 POP JUMPDEST PUSH3 0x7CB DUP6 DUP3 PUSH3 0x741 JUMP JUMPDEST DUP7 SSTORE POP PUSH3 0x83A JUMP JUMPDEST PUSH1 0x1F NOT DUP5 AND PUSH3 0x7E4 DUP7 PUSH3 0x59B JUMP JUMPDEST PUSH0 JUMPDEST DUP3 DUP2 LT ISZERO PUSH3 0x80D JUMPI DUP5 DUP10 ADD MLOAD DUP3 SSTORE PUSH1 0x1 DUP3 ADD SWAP2 POP PUSH1 0x20 DUP6 ADD SWAP5 POP PUSH1 0x20 DUP2 ADD SWAP1 POP PUSH3 0x7E6 JUMP JUMPDEST DUP7 DUP4 LT ISZERO PUSH3 0x82D JUMPI DUP5 DUP10 ADD MLOAD PUSH3 0x829 PUSH1 0x1F DUP10 AND DUP3 PUSH3 0x723 JUMP JUMPDEST DUP4 SSTORE POP JUMPDEST PUSH1 0x1 PUSH1 0x2 DUP9 MUL ADD DUP9 SSTORE POP POP POP JUMPDEST POP POP POP POP POP POP JUMP JUMPDEST PUSH3 0x84D DUP2 PUSH3 0x491 JUMP JUMPDEST DUP3 MSTORE POP POP JUMP JUMPDEST PUSH0 PUSH1 0x20 DUP3 ADD SWAP1 POP PUSH3 0x868 PUSH0 DUP4 ADD DUP5 PUSH3 0x842 JUMP JUMPDEST SWAP3 SWAP2 POP POP JUMP JUMPDEST PUSH0 PUSH12 0xFFFFFFFFFFFFFFFFFFFFFFFF DUP3 AND SWAP1 POP SWAP2 SWAP1 POP JUMP JUMPDEST PUSH0 PUSH3 0x8A5 PUSH3 0x89F PUSH3 0x899 DUP5 PUSH3 0x86E JUMP JUMPDEST PUSH3 0x61D JUMP JUMPDEST PUSH3 0x401 JUMP JUMPDEST SWAP1 POP SWAP2 SWAP1 POP JUMP JUMPDEST PUSH3 0x8B7 DUP2 PUSH3 0x885 JUMP JUMPDEST DUP3 MSTORE POP POP JUMP JUMPDEST PUSH3 0x8C8 DUP2 PUSH3 0x401 JUMP JUMPDEST DUP3 MSTORE POP POP JUMP JUMPDEST PUSH0 PUSH1 0x40 DUP3 ADD SWAP1 POP PUSH3 0x8E3 PUSH0 DUP4 ADD DUP6 PUSH3 0x8AC JUMP JUMPDEST PUSH3 0x8F2 PUSH1 0x20 DUP4 ADD DUP5 PUSH3 0x8BD JUMP JUMPDEST SWAP4 SWAP3 POP POP POP JUMP JUMPDEST PUSH2 0x369F DUP1 PUSH3 0x907 PUSH0 CODECOPY PUSH0 RETURN INVALID PUSH1 0x80 PUSH1 0x40 MSTORE PUSH1 0x4 CALLDATASIZE LT PUSH2 0x19F JUMPI PUSH0 CALLDATALOAD PUSH1 0xE0 SHR DUP1 PUSH4 0x6352211E GT PUSH2 0xEB JUMPI DUP1 PUSH4 0xA22CB465 GT PUSH2 0x89 JUMPI DUP1 PUSH4 0xCD279C7C GT PUSH2 0x63 JUMPI DUP1 PUSH4 0xCD279C7C EQ PUSH2 0x603 JUMPI DUP1 PUSH4 0xCEC26E51 EQ PUSH2 0x62B JUMPI DUP1 PUSH4 0xE985E9C5 EQ PUSH2 0x653 JUMPI DUP1 PUSH4 0xF2FDE38B EQ PUSH2 0x68F JUMPI PUSH2 0x1A6 JUMP JUMPDEST DUP1 PUSH4 0xA22CB465 EQ PUSH2 0x577 JUMPI DUP1 PUSH4 0xB88D4FDE EQ PUSH2 0x59F JUMPI DUP1 PUSH4 0xC87B56DD EQ PUSH2 0x5C7 JUMPI PUSH2 0x1A6 JUMP JUMPDEST DUP1 PUSH4 0x715018A6 GT PUSH2 0xC5 JUMPI DUP1 PUSH4 0x715018A6 EQ PUSH2 0x4E5 JUMPI DUP1 PUSH4 0x8DA5CB5B EQ PUSH2 0x4FB JUMPI DUP1 PUSH4 0x8F2FC60B EQ PUSH2 0x525 JUMPI DUP1 PUSH4 0x95D89B41 EQ PUSH2 0x54D JUMPI PUSH2 0x1A6 JUMP JUMPDEST DUP1 PUSH4 0x6352211E EQ PUSH2 0x443 JUMPI DUP1 PUSH4 0x6EF7F1E7 EQ PUSH2 0x47F JUMPI DUP1 PUSH4 0x70A08231 EQ PUSH2 0x4A9 JUMPI PUSH2 0x1A6 JUMP JUMPDEST DUP1 PUSH4 0x234F052D GT PUSH2 0x158 JUMPI DUP1 PUSH4 0x42842E0E GT PUSH2 0x132 JUMPI DUP1 PUSH4 0x42842E0E EQ PUSH2 0x37B JUMPI DUP1 PUSH4 0x42966C68 EQ PUSH2 0x3A3 JUMPI DUP1 PUSH4 0x4C92DC3F EQ PUSH2 0x3CB JUMPI DUP1 PUSH4 0x53BBC5EA EQ PUSH2 0x407 JUMPI PUSH2 0x1A6 JUMP JUMPDEST DUP1 PUSH4 0x234F052D EQ PUSH2 0x2DA JUMPI DUP1 PUSH4 0x23B872DD EQ PUSH2 0x316 JUMPI DUP1 PUSH4 0x2A55205A EQ PUSH2 0x33E JUMPI PUSH2 0x1A6 JUMP JUMPDEST DUP1 PUSH4 0x1FFC9A7 EQ PUSH2 0x1AA JUMPI DUP1 PUSH4 0x6FDDE03 EQ PUSH2 0x1E6 JUMPI DUP1 PUSH4 0x81812FC EQ PUSH2 0x210 JUMPI DUP1 PUSH4 0x95EA7B3 EQ PUSH2 0x24C JUMPI DUP1 PUSH4 0x18160DDD EQ PUSH2 0x274 JUMPI DUP1 PUSH4 0x2131DEA8 EQ PUSH2 0x29E JUMPI PUSH2 0x1A6 JUMP JUMPDEST CALLDATASIZE PUSH2 0x1A6 JUMPI STOP JUMPDEST PUSH0 DUP1 REVERT JUMPDEST CALLVALUE DUP1 ISZERO PUSH2 0x1B5 JUMPI PUSH0 DUP1 REVERT JUMPDEST POP PUSH2 0x1D0 PUSH1 0x4 DUP1 CALLDATASIZE SUB DUP2 ADD SWAP1 PUSH2 0x1CB SWAP2 SWAP1 PUSH2 0x2838 JUMP JUMPDEST PUSH2 0x6B7 JUMP JUMPDEST PUSH1 0x40 MLOAD PUSH2 0x1DD SWAP2 SWAP1 PUSH2 0x287D JUMP JUMPDEST PUSH1 0x40 MLOAD DUP1 SWAP2 SUB SWAP1 RETURN JUMPDEST CALLVALUE DUP1 ISZERO PUSH2 0x1F1 JUMPI PUSH0 DUP1 REVERT JUMPDEST POP PUSH2 0x1FA PUSH2 0x6C8 JUMP JUMPDEST PUSH1 0x40 MLOAD PUSH2 0x207 SWAP2 SWAP1 PUSH2 0x2920 JUMP JUMPDEST PUSH1 0x40 MLOAD DUP1 SWAP2 SUB SWAP1 RETURN JUMPDEST CALLVALUE DUP1 ISZERO PUSH2 0x21B JUMPI PUSH0 DUP1 REVERT JUMPDEST POP PUSH2 0x236 PUSH1 0x4 DUP1 CALLDATASIZE SUB DUP2 ADD SWAP1 PUSH2 0x231 SWAP2 SWAP1 PUSH2 0x2973 JUMP JUMPDEST PUSH2 0x757 JUMP JUMPDEST PUSH1 0x40 MLOAD PUSH2 0x243 SWAP2 SWAP1 PUSH2 0x29DD JUMP JUMPDEST PUSH1 0x40 MLOAD DUP1 SWAP2 SUB SWAP1 RETURN JUMPDEST CALLVALUE DUP1 ISZERO PUSH2 0x257 JUMPI PUSH0 DUP1 REVERT JUMPDEST POP PUSH2 0x272 PUSH1 0x4 DUP1 CALLDATASIZE SUB DUP2 ADD SWAP1 PUSH2 0x26D SWAP2 SWAP1 PUSH2 0x2A20 JUMP JUMPDEST PUSH2 0x772 JUMP JUMPDEST STOP JUMPDEST CALLVALUE DUP1 ISZERO PUSH2 0x27F JUMPI PUSH0 DUP1 REVERT JUMPDEST POP PUSH2 0x288 PUSH2 0x788 JUMP JUMPDEST PUSH1 0x40 MLOAD PUSH2 0x295 SWAP2 SWAP1 PUSH2 0x2A6D JUMP JUMPDEST PUSH1 0x40 MLOAD DUP1 SWAP2 SUB SWAP1 RETURN JUMPDEST CALLVALUE DUP1 ISZERO PUSH2 0x2A9 JUMPI PUSH0 DUP1 REVERT JUMPDEST POP PUSH2 0x2C4 PUSH1 0x4 DUP1 CALLDATASIZE SUB DUP2 ADD SWAP1 PUSH2 0x2BF SWAP2 SWAP1 PUSH2 0x2973 JUMP JUMPDEST PUSH2 0x78E JUMP JUMPDEST PUSH1 0x40 MLOAD PUSH2 0x2D1 SWAP2 SWAP1 PUSH2 0x2AD1 JUMP JUMPDEST PUSH1 0x40 MLOAD DUP1 SWAP2 SUB SWAP1 RETURN JUMPDEST CALLVALUE DUP1 ISZERO PUSH2 0x2E5 JUMPI PUSH0 DUP1 REVERT JUMPDEST POP PUSH2 0x300 PUSH1 0x4 DUP1 CALLDATASIZE SUB DUP2 ADD SWAP1 PUSH2 0x2FB SWAP2 SWAP1 PUSH2 0x2AEA JUMP JUMPDEST PUSH2 0x817 JUMP JUMPDEST PUSH1 0x40 MLOAD PUSH2 0x30D SWAP2 SWAP1 PUSH2 0x287D JUMP JUMPDEST PUSH1 0x40 MLOAD DUP1 SWAP2 SUB SWAP1 RETURN JUMPDEST CALLVALUE DUP1 ISZERO PUSH2 0x321 JUMPI PUSH0 DUP1 REVERT JUMPDEST POP PUSH2 0x33C PUSH1 0x4 DUP1 CALLDATASIZE SUB DUP2 ADD SWAP1 PUSH2 0x337 SWAP2 SWAP1 PUSH2 0x2B28 JUMP JUMPDEST PUSH2 0x911 JUMP JUMPDEST STOP JUMPDEST CALLVALUE DUP1 ISZERO PUSH2 0x349 JUMPI PUSH0 DUP1 REVERT JUMPDEST POP PUSH2 0x364 PUSH1 0x4 DUP1 CALLDATASIZE SUB DUP2 ADD SWAP1 PUSH2 0x35F SWAP2 SWAP1 PUSH2 0x2AEA JUMP JUMPDEST PUSH2 0xA10 JUMP JUMPDEST PUSH1 0x40 MLOAD PUSH2 0x372 SWAP3 SWAP2 SWAP1 PUSH2 0x2B78 JUMP JUMPDEST PUSH1 0x40 MLOAD DUP1 SWAP2 SUB SWAP1 RETURN JUMPDEST CALLVALUE DUP1 ISZERO PUSH2 0x386 JUMPI PUSH0 DUP1 REVERT JUMPDEST POP PUSH2 0x3A1 PUSH1 0x4 DUP1 CALLDATASIZE SUB DUP2 ADD SWAP1 PUSH2 0x39C SWAP2 SWAP1 PUSH2 0x2B28 JUMP JUMPDEST PUSH2 0xBEC JUMP JUMPDEST STOP JUMPDEST CALLVALUE DUP1 ISZERO PUSH2 0x3AE JUMPI PUSH0 DUP1 REVERT JUMPDEST POP PUSH2 0x3C9 PUSH1 0x4 DUP1 CALLDATASIZE SUB DUP2 ADD SWAP1 PUSH2 0x3C4 SWAP2 SWAP1 PUSH2 0x2973 JUMP JUMPDEST PUSH2 0xC0B JUMP JUMPDEST STOP JUMPDEST CALLVALUE DUP1 ISZERO PUSH2 0x3D6 JUMPI PUSH0 DUP1 REVERT JUMPDEST POP PUSH2 0x3F1 PUSH1 0x4 DUP1 CALLDATASIZE SUB DUP2 ADD SWAP1 PUSH2 0x3EC SWAP2 SWAP1 PUSH2 0x2973 JUMP JUMPDEST PUSH2 0xC9A JUMP JUMPDEST PUSH1 0x40 MLOAD PUSH2 0x3FE SWAP2 SWAP1 PUSH2 0x2A6D JUMP JUMPDEST PUSH1 0x40 MLOAD DUP1 SWAP2 SUB SWAP1 RETURN JUMPDEST CALLVALUE DUP1 ISZERO PUSH2 0x412 JUMPI PUSH0 DUP1 REVERT JUMPDEST POP PUSH2 0x42D PUSH1 0x4 DUP1 CALLDATASIZE SUB DUP2 ADD SWAP1 PUSH2 0x428 SWAP2 SWAP1 PUSH2 0x2AEA JUMP JUMPDEST PUSH2 0xCC8 JUMP JUMPDEST PUSH1 0x40 MLOAD PUSH2 0x43A SWAP2 SWAP1 PUSH2 0x287D JUMP JUMPDEST PUSH1 0x40 MLOAD DUP1 SWAP2 SUB SWAP1 RETURN JUMPDEST CALLVALUE DUP1 ISZERO PUSH2 0x44E JUMPI PUSH0 DUP1 REVERT JUMPDEST POP PUSH2 0x469 PUSH1 0x4 DUP1 CALLDATASIZE SUB DUP2 ADD SWAP1 PUSH2 0x464 SWAP2 SWAP1 PUSH2 0x2973 JUMP JUMPDEST PUSH2 0xDC2 JUMP JUMPDEST PUSH1 0x40 MLOAD PUSH2 0x476 SWAP2 SWAP1 PUSH2 0x29DD JUMP JUMPDEST PUSH1 0x40 MLOAD DUP1 SWAP2 SUB SWAP1 RETURN JUMPDEST CALLVALUE DUP1 ISZERO PUSH2 0x48A JUMPI PUSH0 DUP1 REVERT JUMPDEST POP PUSH2 0x493 PUSH2 0xDD3 JUMP JUMPDEST PUSH1 0x40 MLOAD PUSH2 0x4A0 SWAP2 SWAP1 PUSH2 0x2A6D JUMP JUMPDEST PUSH1 0x40 MLOAD DUP1 SWAP2 SUB SWAP1 RETURN JUMPDEST CALLVALUE DUP1 ISZERO PUSH2 0x4B4 JUMPI PUSH0 DUP1 REVERT JUMPDEST POP PUSH2 0x4CF PUSH1 0x4 DUP1 CALLDATASIZE SUB DUP2 ADD SWAP1 PUSH2 0x4CA SWAP2 SWAP1 PUSH2 0x2B9F JUMP JUMPDEST PUSH2 0xDDC JUMP JUMPDEST PUSH1 0x40 MLOAD PUSH2 0x4DC SWAP2 SWAP1 PUSH2 0x2A6D JUMP JUMPDEST PUSH1 0x40 MLOAD DUP1 SWAP2 SUB SWAP1 RETURN JUMPDEST CALLVALUE DUP1 ISZERO PUSH2 0x4F0 JUMPI PUSH0 DUP1 REVERT JUMPDEST POP PUSH2 0x4F9 PUSH2 0xE92 JUMP JUMPDEST STOP JUMPDEST CALLVALUE DUP1 ISZERO PUSH2 0x506 JUMPI PUSH0 DUP1 REVERT JUMPDEST POP PUSH2 0x50F PUSH2 0xEA5 JUMP JUMPDEST PUSH1 0x40 MLOAD PUSH2 0x51C SWAP2 SWAP1 PUSH2 0x29DD JUMP JUMPDEST PUSH1 0x40 MLOAD DUP1 SWAP2 SUB SWAP1 RETURN JUMPDEST CALLVALUE DUP1 ISZERO PUSH2 0x530 JUMPI PUSH0 DUP1 REVERT JUMPDEST POP PUSH2 0x54B PUSH1 0x4 DUP1 CALLDATASIZE SUB DUP2 ADD SWAP1 PUSH2 0x546 SWAP2 SWAP1 PUSH2 0x2C0B JUMP JUMPDEST PUSH2 0xECD JUMP JUMPDEST STOP JUMPDEST CALLVALUE DUP1 ISZERO PUSH2 0x558 JUMPI PUSH0 DUP1 REVERT JUMPDEST POP PUSH2 0x561 PUSH2 0xEE3 JUMP JUMPDEST PUSH1 0x40 MLOAD PUSH2 0x56E SWAP2 SWAP1 PUSH2 0x2920 JUMP JUMPDEST PUSH1 0x40 MLOAD DUP1 SWAP2 SUB SWAP1 RETURN JUMPDEST CALLVALUE DUP1 ISZERO PUSH2 0x582 JUMPI PUSH0 DUP1 REVERT JUMPDEST POP PUSH2 0x59D PUSH1 0x4 DUP1 CALLDATASIZE SUB DUP2 ADD SWAP1 PUSH2 0x598 SWAP2 SWAP1 PUSH2 0x2C73 JUMP JUMPDEST PUSH2 0xF73 JUMP JUMPDEST STOP JUMPDEST CALLVALUE DUP1 ISZERO PUSH2 0x5AA JUMPI PUSH0 DUP1 REVERT JUMPDEST POP PUSH2 0x5C5 PUSH1 0x4 DUP1 CALLDATASIZE SUB DUP2 ADD SWAP1 PUSH2 0x5C0 SWAP2 SWAP1 PUSH2 0x2DDD JUMP JUMPDEST PUSH2 0xF89 JUMP JUMPDEST STOP JUMPDEST CALLVALUE DUP1 ISZERO PUSH2 0x5D2 JUMPI PUSH0 DUP1 REVERT JUMPDEST POP PUSH2 0x5ED PUSH1 0x4 DUP1 CALLDATASIZE SUB DUP2 ADD SWAP1 PUSH2 0x5E8 SWAP2 SWAP1 PUSH2 0x2973 JUMP JUMPDEST PUSH2 0xFA6 JUMP JUMPDEST PUSH1 0x40 MLOAD PUSH2 0x5FA SWAP2 SWAP1 PUSH2 0x2920 JUMP JUMPDEST PUSH1 0x40 MLOAD DUP1 SWAP2 SUB SWAP1 RETURN JUMPDEST CALLVALUE DUP1 ISZERO PUSH2 0x60E JUMPI PUSH0 DUP1 REVERT JUMPDEST POP PUSH2 0x629 PUSH1 0x4 DUP1 CALLDATASIZE SUB DUP2 ADD SWAP1 PUSH2 0x624 SWAP2 SWAP1 PUSH2 0x2EFB JUMP JUMPDEST PUSH2 0xFB8 JUMP JUMPDEST STOP JUMPDEST CALLVALUE DUP1 ISZERO PUSH2 0x636 JUMPI PUSH0 DUP1 REVERT JUMPDEST POP PUSH2 0x651 PUSH1 0x4 DUP1 CALLDATASIZE SUB DUP2 ADD SWAP1 PUSH2 0x64C SWAP2 SWAP1 PUSH2 0x2C73 JUMP JUMPDEST PUSH2 0x1046 JUMP JUMPDEST STOP JUMPDEST CALLVALUE DUP1 ISZERO PUSH2 0x65E JUMPI PUSH0 DUP1 REVERT JUMPDEST POP PUSH2 0x679 PUSH1 0x4 DUP1 CALLDATASIZE SUB DUP2 ADD SWAP1 PUSH2 0x674 SWAP2 SWAP1 PUSH2 0x2F67 JUMP JUMPDEST PUSH2 0x10A6 JUMP JUMPDEST PUSH1 0x40 MLOAD PUSH2 0x686 SWAP2 SWAP1 PUSH2 0x287D JUMP JUMPDEST PUSH1 0x40 MLOAD DUP1 SWAP2 SUB SWAP1 RETURN JUMPDEST CALLVALUE DUP1 ISZERO PUSH2 0x69A JUMPI PUSH0 DUP1 REVERT JUMPDEST POP PUSH2 0x6B5 PUSH1 0x4 DUP1 CALLDATASIZE SUB DUP2 ADD SWAP1 PUSH2 0x6B0 SWAP2 SWAP1 PUSH2 0x2B9F JUMP JUMPDEST PUSH2 0x1134 JUMP JUMPDEST STOP JUMPDEST PUSH0 PUSH2 0x6C1 DUP3 PUSH2 0x11B8 JUMP JUMPDEST SWAP1 POP SWAP2 SWAP1 POP JUMP JUMPDEST PUSH1 0x60 PUSH0 DUP1 SLOAD PUSH2 0x6D6 SWAP1 PUSH2 0x2FD2 JUMP JUMPDEST DUP1 PUSH1 0x1F ADD PUSH1 0x20 DUP1 SWAP2 DIV MUL PUSH1 0x20 ADD PUSH1 0x40 MLOAD SWAP1 DUP2 ADD PUSH1 0x40 MSTORE DUP1 SWAP3 SWAP2 SWAP1 DUP2 DUP2 MSTORE PUSH1 0x20 ADD DUP3 DUP1 SLOAD PUSH2 0x702 SWAP1 PUSH2 0x2FD2 JUMP JUMPDEST DUP1 ISZERO PUSH2 0x74D JUMPI DUP1 PUSH1 0x1F LT PUSH2 0x724 JUMPI PUSH2 0x100 DUP1 DUP4 SLOAD DIV MUL DUP4 MSTORE SWAP2 PUSH1 0x20 ADD SWAP2 PUSH2 0x74D JUMP JUMPDEST DUP3 ADD SWAP2 SWAP1 PUSH0 MSTORE PUSH1 0x20 PUSH0 KECCAK256 SWAP1 JUMPDEST DUP2 SLOAD DUP2 MSTORE SWAP1 PUSH1 0x1 ADD SWAP1 PUSH1 0x20 ADD DUP1 DUP4 GT PUSH2 0x730 JUMPI DUP3 SWAP1 SUB PUSH1 0x1F AND DUP3 ADD SWAP2 JUMPDEST POP POP POP POP POP SWAP1 POP SWAP1 JUMP JUMPDEST PUSH0 PUSH2 0x761 DUP3 PUSH2 0x1231 JUMP JUMPDEST POP PUSH2 0x76B DUP3 PUSH2 0x12B7 JUMP JUMPDEST SWAP1 POP SWAP2 SWAP1 POP JUMP JUMPDEST PUSH2 0x784 DUP3 DUP3 PUSH2 0x77F PUSH2 0x12F0 JUMP JUMPDEST PUSH2 0x12F7 JUMP JUMPDEST POP POP JUMP JUMPDEST PUSH1 0xA SLOAD DUP2 JUMP JUMPDEST PUSH2 0x796 PUSH2 0x27A4 JUMP JUMPDEST PUSH1 0xD PUSH0 DUP4 DUP2 MSTORE PUSH1 0x20 ADD SWAP1 DUP2 MSTORE PUSH1 0x20 ADD PUSH0 KECCAK256 PUSH1 0x40 MLOAD DUP1 PUSH1 0x40 ADD PUSH1 0x40 MSTORE SWAP1 DUP2 PUSH0 DUP3 ADD SLOAD DUP2 MSTORE PUSH1 0x20 ADD PUSH1 0x1 DUP3 ADD PUSH0 SWAP1 SLOAD SWAP1 PUSH2 0x100 EXP SWAP1 DIV PUSH20 0xFFFFFFFFFFFFFFFFFFFFFFFFFFFFFFFFFFFFFFFF AND PUSH20 0xFFFFFFFFFFFFFFFFFFFFFFFFFFFFFFFFFFFFFFFF AND PUSH20 0xFFFFFFFFFFFFFFFFFFFFFFFFFFFFFFFFFFFFFFFF AND DUP2 MSTORE POP POP SWAP1 POP SWAP2 SWAP1 POP JUMP JUMPDEST PUSH0 PUSH1 0xC PUSH0 CALLER PUSH20 0xFFFFFFFFFFFFFFFFFFFFFFFFFFFFFFFFFFFFFFFF AND PUSH20 0xFFFFFFFFFFFFFFFFFFFFFFFFFFFFFFFFFFFFFFFF AND DUP2 MSTORE PUSH1 0x20 ADD SWAP1 DUP2 MSTORE PUSH1 0x20 ADD PUSH0 KECCAK256 PUSH0 SWAP1 SLOAD SWAP1 PUSH2 0x100 EXP SWAP1 DIV PUSH1 0xFF AND DUP1 PUSH2 0x89F JUMPI POP PUSH2 0x870 PUSH2 0xEA5 JUMP JUMPDEST PUSH20 0xFFFFFFFFFFFFFFFFFFFFFFFFFFFFFFFFFFFFFFFF AND CALLER PUSH20 0xFFFFFFFFFFFFFFFFFFFFFFFFFFFFFFFFFFFFFFFF AND EQ JUMPDEST PUSH2 0x8DE JUMPI PUSH1 0x40 MLOAD PUSH32 0x8C379A000000000000000000000000000000000000000000000000000000000 DUP2 MSTORE PUSH1 0x4 ADD PUSH2 0x8D5 SWAP1 PUSH2 0x304C JUMP JUMPDEST PUSH1 0x40 MLOAD DUP1 SWAP2 SUB SWAP1 REVERT JUMPDEST DUP2 PUSH1 0xD PUSH0 DUP6 DUP2 MSTORE PUSH1 0x20 ADD SWAP1 DUP2 MSTORE PUSH1 0x20 ADD PUSH0 KECCAK256 PUSH0 ADD PUSH0 DUP3 DUP3 SLOAD PUSH2 0x900 SWAP2 SWAP1 PUSH2 0x3097 JUMP JUMPDEST SWAP3 POP POP DUP2 SWAP1 SSTORE POP PUSH1 0x1 SWAP1 POP SWAP3 SWAP2 POP POP JUMP JUMPDEST PUSH0 PUSH20 0xFFFFFFFFFFFFFFFFFFFFFFFFFFFFFFFFFFFFFFFF AND DUP3 PUSH20 0xFFFFFFFFFFFFFFFFFFFFFFFFFFFFFFFFFFFFFFFF AND SUB PUSH2 0x981 JUMPI PUSH0 PUSH1 0x40 MLOAD PUSH32 0x64A0AE9200000000000000000000000000000000000000000000000000000000 DUP2 MSTORE PUSH1 0x4 ADD PUSH2 0x978 SWAP2 SWAP1 PUSH2 0x29DD JUMP JUMPDEST PUSH1 0x40 MLOAD DUP1 SWAP2 SUB SWAP1 REVERT JUMPDEST PUSH0 PUSH2 0x994 DUP4 DUP4 PUSH2 0x98F PUSH2 0x12F0 JUMP JUMPDEST PUSH2 0x1309 JUMP JUMPDEST SWAP1 POP DUP4 PUSH20 0xFFFFFFFFFFFFFFFFFFFFFFFFFFFFFFFFFFFFFFFF AND DUP2 PUSH20 0xFFFFFFFFFFFFFFFFFFFFFFFFFFFFFFFFFFFFFFFF AND EQ PUSH2 0xA0A JUMPI DUP4 DUP3 DUP3 PUSH1 0x40 MLOAD PUSH32 0x64283D7B00000000000000000000000000000000000000000000000000000000 DUP2 MSTORE PUSH1 0x4 ADD PUSH2 0xA01 SWAP4 SWAP3 SWAP2 SWAP1 PUSH2 0x30CA JUMP JUMPDEST PUSH1 0x40 MLOAD DUP1 SWAP2 SUB SWAP1 REVERT JUMPDEST POP POP POP POP JUMP JUMPDEST PUSH0 DUP1 PUSH0 PUSH1 0x9 PUSH0 DUP7 DUP2 MSTORE PUSH1 0x20 ADD SWAP1 DUP2 MSTORE PUSH1 0x20 ADD PUSH0 KECCAK256 PUSH1 0x40 MLOAD DUP1 PUSH1 0x40 ADD PUSH1 0x40 MSTORE SWAP1 DUP2 PUSH0 DUP3 ADD PUSH0 SWAP1 SLOAD SWAP1 PUSH2 0x100 EXP SWAP1 DIV PUSH20 0xFFFFFFFFFFFFFFFFFFFFFFFFFFFFFFFFFFFFFFFF AND PUSH20 0xFFFFFFFFFFFFFFFFFFFFFFFFFFFFFFFFFFFFFFFF AND PUSH20 0xFFFFFFFFFFFFFFFFFFFFFFFFFFFFFFFFFFFFFFFF AND DUP2 MSTORE PUSH1 0x20 ADD PUSH0 DUP3 ADD PUSH1 0x14 SWAP1 SLOAD SWAP1 PUSH2 0x100 EXP SWAP1 DIV PUSH12 0xFFFFFFFFFFFFFFFFFFFFFFFF AND PUSH12 0xFFFFFFFFFFFFFFFFFFFFFFFF AND PUSH12 0xFFFFFFFFFFFFFFFFFFFFFFFF AND DUP2 MSTORE POP POP SWAP1 POP PUSH0 PUSH20 0xFFFFFFFFFFFFFFFFFFFFFFFFFFFFFFFFFFFFFFFF AND DUP2 PUSH0 ADD MLOAD PUSH20 0xFFFFFFFFFFFFFFFFFFFFFFFFFFFFFFFFFFFFFFFF AND SUB PUSH2 0xB99 JUMPI PUSH1 0x8 PUSH1 0x40 MLOAD DUP1 PUSH1 0x40 ADD PUSH1 0x40 MSTORE SWAP1 DUP2 PUSH0 DUP3 ADD PUSH0 SWAP1 SLOAD SWAP1 PUSH2 0x100 EXP SWAP1 DIV PUSH20 0xFFFFFFFFFFFFFFFFFFFFFFFFFFFFFFFFFFFFFFFF AND PUSH20 0xFFFFFFFFFFFFFFFFFFFFFFFFFFFFFFFFFFFFFFFF AND PUSH20 0xFFFFFFFFFFFFFFFFFFFFFFFFFFFFFFFFFFFFFFFF AND DUP2 MSTORE PUSH1 0x20 ADD PUSH0 DUP3 ADD PUSH1 0x14 SWAP1 SLOAD SWAP1 PUSH2 0x100 EXP SWAP1 DIV PUSH12 0xFFFFFFFFFFFFFFFFFFFFFFFF AND PUSH12 0xFFFFFFFFFFFFFFFFFFFFFFFF AND PUSH12 0xFFFFFFFFFFFFFFFFFFFFFFFF AND DUP2 MSTORE POP POP SWAP1 POP JUMPDEST PUSH0 PUSH2 0xBA2 PUSH2 0x1514 JUMP JUMPDEST PUSH12 0xFFFFFFFFFFFFFFFFFFFFFFFF AND DUP3 PUSH1 0x20 ADD MLOAD PUSH12 0xFFFFFFFFFFFFFFFFFFFFFFFF AND DUP7 PUSH2 0xBCE SWAP2 SWAP1 PUSH2 0x30FF JUMP JUMPDEST PUSH2 0xBD8 SWAP2 SWAP1 PUSH2 0x316D JUMP JUMPDEST SWAP1 POP DUP2 PUSH0 ADD MLOAD DUP2 SWAP4 POP SWAP4 POP POP POP SWAP3 POP SWAP3 SWAP1 POP JUMP JUMPDEST PUSH2 0xC06 DUP4 DUP4 DUP4 PUSH1 0x40 MLOAD DUP1 PUSH1 0x20 ADD PUSH1 0x40 MSTORE DUP1 PUSH0 DUP2 MSTORE POP PUSH2 0xF89 JUMP JUMPDEST POP POP POP JUMP JUMPDEST CALLER PUSH20 0xFFFFFFFFFFFFFFFFFFFFFFFFFFFFFFFFFFFFFFFF AND PUSH2 0xC2B DUP3 PUSH2 0x1231 JUMP JUMPDEST PUSH20 0xFFFFFFFFFFFFFFFFFFFFFFFFFFFFFFFFFFFFFFFF AND EQ PUSH2 0xC4A JUMPI PUSH0 DUP1 REVERT JUMPDEST PUSH2 0xC53 DUP2 PUSH2 0x151D JUMP JUMPDEST CALLER PUSH20 0xFFFFFFFFFFFFFFFFFFFFFFFFFFFFFFFFFFFFFFFF AND DUP2 PUSH32 0xF6554C3A5D28E08C120B5A69C7EDBAF52F935BD2596A60B8A18E282CD257CDDB PUSH1 0x40 MLOAD PUSH1 0x40 MLOAD DUP1 SWAP2 SUB SWAP1 LOG3 POP JUMP JUMPDEST PUSH0 PUSH1 0xD PUSH0 DUP4 DUP2 MSTORE PUSH1 0x20 ADD SWAP1 DUP2 MSTORE PUSH1 0x20 ADD PUSH0 KECCAK256 PUSH0 ADD SLOAD PUSH2 0xCB7 PUSH2 0xDD3 JUMP JUMPDEST PUSH2 0xCC1 SWAP2 SWAP1 PUSH2 0x319D JUMP JUMPDEST SWAP1 POP SWAP2 SWAP1 POP JUMP JUMPDEST PUSH0 PUSH1 0xC PUSH0 CALLER PUSH20 0xFFFFFFFFFFFFFFFFFFFFFFFFFFFFFFFFFFFFFFFF AND PUSH20 0xFFFFFFFFFFFFFFFFFFFFFFFFFFFFFFFFFFFFFFFF AND DUP2 MSTORE PUSH1 0x20 ADD SWAP1 DUP2 MSTORE PUSH1 0x20 ADD PUSH0 KECCAK256 PUSH0 SWAP1 SLOAD SWAP1 PUSH2 0x100 EXP SWAP1 DIV PUSH1 0xFF AND DUP1 PUSH2 0xD50 JUMPI POP PUSH2 0xD21 PUSH2 0xEA5 JUMP JUMPDEST PUSH20 0xFFFFFFFFFFFFFFFFFFFFFFFFFFFFFFFFFFFFFFFF AND CALLER PUSH20 0xFFFFFFFFFFFFFFFFFFFFFFFFFFFFFFFFFFFFFFFF AND EQ JUMPDEST PUSH2 0xD8F JUMPI PUSH1 0x40 MLOAD PUSH32 0x8C379A000000000000000000000000000000000000000000000000000000000 DUP2 MSTORE PUSH1 0x4 ADD PUSH2 0xD86 SWAP1 PUSH2 0x304C JUMP JUMPDEST PUSH1 0x40 MLOAD DUP1 SWAP2 SUB SWAP1 REVERT JUMPDEST DUP2 PUSH1 0xD PUSH0 DUP6 DUP2 MSTORE PUSH1 0x20 ADD SWAP1 DUP2 MSTORE PUSH1 0x20 ADD PUSH0 KECCAK256 PUSH0 ADD PUSH0 DUP3 DUP3 SLOAD PUSH2 0xDB1 SWAP2 SWAP1 PUSH2 0x319D JUMP JUMPDEST SWAP3 POP POP DUP2 SWAP1 SSTORE POP PUSH1 0x1 SWAP1 POP SWAP3 SWAP2 POP POP JUMP JUMPDEST PUSH0 PUSH2 0xDCC DUP3 PUSH2 0x1231 JUMP JUMPDEST SWAP1 POP SWAP2 SWAP1 POP JUMP JUMPDEST PUSH0 PUSH1 0xB SLOAD SWAP1 POP SWAP1 JUMP JUMPDEST PUSH0 DUP1 PUSH20 0xFFFFFFFFFFFFFFFFFFFFFFFFFFFFFFFFFFFFFFFF AND DUP3 PUSH20 0xFFFFFFFFFFFFFFFFFFFFFFFFFFFFFFFFFFFFFFFF AND SUB PUSH2 0xE4D JUMPI PUSH0 PUSH1 0x40 MLOAD PUSH32 0x89C62B6400000000000000000000000000000000000000000000000000000000 DUP2 MSTORE PUSH1 0x4 ADD PUSH2 0xE44 SWAP2 SWAP1 PUSH2 0x29DD JUMP JUMPDEST PUSH1 0x40 MLOAD DUP1 SWAP2 SUB SWAP1 REVERT JUMPDEST PUSH1 0x3 PUSH0 DUP4 PUSH20 0xFFFFFFFFFFFFFFFFFFFFFFFFFFFFFFFFFFFFFFFF AND PUSH20 0xFFFFFFFFFFFFFFFFFFFFFFFFFFFFFFFFFFFFFFFF AND DUP2 MSTORE PUSH1 0x20 ADD SWAP1 DUP2 MSTORE PUSH1 0x20 ADD PUSH0 KECCAK256 SLOAD SWAP1 POP SWAP2 SWAP1 POP JUMP JUMPDEST PUSH2 0xE9A PUSH2 0x159F JUMP JUMPDEST PUSH2 0xEA3 PUSH0 PUSH2 0x1626 JUMP JUMPDEST JUMP JUMPDEST PUSH0 PUSH1 0x7 PUSH0 SWAP1 SLOAD SWAP1 PUSH2 0x100 EXP SWAP1 DIV PUSH20 0xFFFFFFFFFFFFFFFFFFFFFFFFFFFFFFFFFFFFFFFF AND SWAP1 POP SWAP1 JUMP JUMPDEST PUSH2 0xED5 PUSH2 0x159F JUMP JUMPDEST PUSH2 0xEDF DUP3 DUP3 PUSH2 0x16E9 JUMP JUMPDEST POP POP JUMP JUMPDEST PUSH1 0x60 PUSH1 0x1 DUP1 SLOAD PUSH2 0xEF2 SWAP1 PUSH2 0x2FD2 JUMP JUMPDEST DUP1 PUSH1 0x1F ADD PUSH1 0x20 DUP1 SWAP2 DIV MUL PUSH1 0x20 ADD PUSH1 0x40 MLOAD SWAP1 DUP2 ADD PUSH1 0x40 MSTORE DUP1 SWAP3 SWAP2 SWAP1 DUP2 DUP2 MSTORE PUSH1 0x20 ADD DUP3 DUP1 SLOAD PUSH2 0xF1E SWAP1 PUSH2 0x2FD2 JUMP JUMPDEST DUP1 ISZERO PUSH2 0xF69 JUMPI DUP1 PUSH1 0x1F LT PUSH2 0xF40 JUMPI PUSH2 0x100 DUP1 DUP4 SLOAD DIV MUL DUP4 MSTORE SWAP2 PUSH1 0x20 ADD SWAP2 PUSH2 0xF69 JUMP JUMPDEST DUP3 ADD SWAP2 SWAP1 PUSH0 MSTORE PUSH1 0x20 PUSH0 KECCAK256 SWAP1 JUMPDEST DUP2 SLOAD DUP2 MSTORE SWAP1 PUSH1 0x1 ADD SWAP1 PUSH1 0x20 ADD DUP1 DUP4 GT PUSH2 0xF4C JUMPI DUP3 SWAP1 SUB PUSH1 0x1F AND DUP3 ADD SWAP2 JUMPDEST POP POP POP POP POP SWAP1 POP SWAP1 JUMP JUMPDEST PUSH2 0xF85 PUSH2 0xF7E PUSH2 0x12F0 JUMP JUMPDEST DUP4 DUP4 PUSH2 0x1884 JUMP JUMPDEST POP POP JUMP JUMPDEST PUSH2 0xF94 DUP5 DUP5 DUP5 PUSH2 0x911 JUMP JUMPDEST PUSH2 0xFA0 DUP5 DUP5 DUP5 DUP5 PUSH2 0x19ED JUMP JUMPDEST POP POP POP POP JUMP JUMPDEST PUSH1 0x60 PUSH2 0xFB1 DUP3 PUSH2 0x1B9F JUMP JUMPDEST SWAP1 POP SWAP2 SWAP1 POP JUMP JUMPDEST PUSH2 0xFC0 PUSH2 0x159F JUMP JUMPDEST PUSH1 0xA SLOAD DUP3 GT ISZERO PUSH2 0xFCE JUMPI PUSH0 DUP1 REVERT JUMPDEST PUSH2 0xFD8 DUP4 DUP4 PUSH2 0x1CAA JUMP JUMPDEST DUP3 PUSH1 0xD PUSH0 DUP5 DUP2 MSTORE PUSH1 0x20 ADD SWAP1 DUP2 MSTORE PUSH1 0x20 ADD PUSH0 KECCAK256 PUSH1 0x1 ADD PUSH0 PUSH2 0x100 EXP DUP2 SLOAD DUP2 PUSH20 0xFFFFFFFFFFFFFFFFFFFFFFFFFFFFFFFFFFFFFFFF MUL NOT AND SWAP1 DUP4 PUSH20 0xFFFFFFFFFFFFFFFFFFFFFFFFFFFFFFFFFFFFFFFF AND MUL OR SWAP1 SSTORE POP PUSH2 0x1034 DUP3 DUP3 PUSH2 0x1CC7 JUMP JUMPDEST PUSH2 0x1041 DUP3 DUP5 PUSH2 0x2B2 PUSH2 0x1D21 JUMP JUMPDEST POP POP POP JUMP JUMPDEST PUSH2 0x104E PUSH2 0x159F JUMP JUMPDEST DUP1 PUSH1 0xC PUSH0 DUP5 PUSH20 0xFFFFFFFFFFFFFFFFFFFFFFFFFFFFFFFFFFFFFFFF AND PUSH20 0xFFFFFFFFFFFFFFFFFFFFFFFFFFFFFFFFFFFFFFFF AND DUP2 MSTORE PUSH1 0x20 ADD SWAP1 DUP2 MSTORE PUSH1 0x20 ADD PUSH0 KECCAK256 PUSH0 PUSH2 0x100 EXP DUP2 SLOAD DUP2 PUSH1 0xFF MUL NOT AND SWAP1 DUP4 ISZERO ISZERO MUL OR SWAP1 SSTORE POP POP POP JUMP JUMPDEST PUSH0 PUSH1 0x5 PUSH0 DUP5 PUSH20 0xFFFFFFFFFFFFFFFFFFFFFFFFFFFFFFFFFFFFFFFF AND PUSH20 0xFFFFFFFFFFFFFFFFFFFFFFFFFFFFFFFFFFFFFFFF AND DUP2 MSTORE PUSH1 0x20 ADD SWAP1 DUP2 MSTORE PUSH1 0x20 ADD PUSH0 KECCAK256 PUSH0 DUP4 PUSH20 0xFFFFFFFFFFFFFFFFFFFFFFFFFFFFFFFFFFFFFFFF AND PUSH20 0xFFFFFFFFFFFFFFFFFFFFFFFFFFFFFFFFFFFFFFFF AND DUP2 MSTORE PUSH1 0x20 ADD SWAP1 DUP2 MSTORE PUSH1 0x20 ADD PUSH0 KECCAK256 PUSH0 SWAP1 SLOAD SWAP1 PUSH2 0x100 EXP SWAP1 DIV PUSH1 0xFF AND SWAP1 POP SWAP3 SWAP2 POP POP JUMP JUMPDEST PUSH2 0x113C PUSH2 0x159F JUMP JUMPDEST PUSH0 PUSH20 0xFFFFFFFFFFFFFFFFFFFFFFFFFFFFFFFFFFFFFFFF AND DUP2 PUSH20 0xFFFFFFFFFFFFFFFFFFFFFFFFFFFFFFFFFFFFFFFF AND SUB PUSH2 0x11AC JUMPI PUSH0 PUSH1 0x40 MLOAD PUSH32 0x1E4FBDF700000000000000000000000000000000000000000000000000000000 DUP2 MSTORE PUSH1 0x4 ADD PUSH2 0x11A3 SWAP2 SWAP1 PUSH2 0x29DD JUMP JUMPDEST PUSH1 0x40 MLOAD DUP1 SWAP2 SUB SWAP1 REVERT JUMPDEST PUSH2 0x11B5 DUP2 PUSH2 0x1626 JUMP JUMPDEST POP JUMP JUMPDEST PUSH0 PUSH32 0x2A55205A00000000000000000000000000000000000000000000000000000000 PUSH28 0xFFFFFFFFFFFFFFFFFFFFFFFFFFFFFFFFFFFFFFFFFFFFFFFFFFFFFFFF NOT AND DUP3 PUSH28 0xFFFFFFFFFFFFFFFFFFFFFFFFFFFFFFFFFFFFFFFFFFFFFFFFFFFFFFFF NOT AND EQ DUP1 PUSH2 0x122A JUMPI POP PUSH2 0x1229 DUP3 PUSH2 0x1ED0 JUMP JUMPDEST JUMPDEST SWAP1 POP SWAP2 SWAP1 POP JUMP JUMPDEST PUSH0 DUP1 PUSH2 0x123C DUP4 PUSH2 0x1F30 JUMP JUMPDEST SWAP1 POP PUSH0 PUSH20 0xFFFFFFFFFFFFFFFFFFFFFFFFFFFFFFFFFFFFFFFF AND DUP2 PUSH20 0xFFFFFFFFFFFFFFFFFFFFFFFFFFFFFFFFFFFFFFFF AND SUB PUSH2 0x12AE JUMPI DUP3 PUSH1 0x40 MLOAD PUSH32 0x7E27328900000000000000000000000000000000000000000000000000000000 DUP2 MSTORE PUSH1 0x4 ADD PUSH2 0x12A5 SWAP2 SWAP1 PUSH2 0x2A6D JUMP JUMPDEST PUSH1 0x40 MLOAD DUP1 SWAP2 SUB SWAP1 REVERT JUMPDEST DUP1 SWAP2 POP POP SWAP2 SWAP1 POP JUMP JUMPDEST PUSH0 PUSH1 0x4 PUSH0 DUP4 DUP2 MSTORE PUSH1 0x20 ADD SWAP1 DUP2 MSTORE PUSH1 0x20 ADD PUSH0 KECCAK256 PUSH0 SWAP1 SLOAD SWAP1 PUSH2 0x100 EXP SWAP1 DIV PUSH20 0xFFFFFFFFFFFFFFFFFFFFFFFFFFFFFFFFFFFFFFFF AND SWAP1 POP SWAP2 SWAP1 POP JUMP JUMPDEST PUSH0 CALLER SWAP1 POP SWAP1 JUMP JUMPDEST PUSH2 0x1304 DUP4 DUP4 DUP4 PUSH1 0x1 PUSH2 0x1F69 JUMP JUMPDEST POP POP POP JUMP JUMPDEST PUSH0 DUP1 PUSH2 0x1314 DUP5 PUSH2 0x1F30 JUMP JUMPDEST SWAP1 POP PUSH0 PUSH20 0xFFFFFFFFFFFFFFFFFFFFFFFFFFFFFFFFFFFFFFFF AND DUP4 PUSH20 0xFFFFFFFFFFFFFFFFFFFFFFFFFFFFFFFFFFFFFFFF AND EQ PUSH2 0x1355 JUMPI PUSH2 0x1354 DUP2 DUP5 DUP7 PUSH2 0x2128 JUMP JUMPDEST JUMPDEST PUSH0 PUSH20 0xFFFFFFFFFFFFFFFFFFFFFFFFFFFFFFFFFFFFFFFF AND DUP2 PUSH20 0xFFFFFFFFFFFFFFFFFFFFFFFFFFFFFFFFFFFFFFFF AND EQ PUSH2 0x13E0 JUMPI PUSH2 0x1394 PUSH0 DUP6 PUSH0 DUP1 PUSH2 0x1F69 JUMP JUMPDEST PUSH1 0x1 PUSH1 0x3 PUSH0 DUP4 PUSH20 0xFFFFFFFFFFFFFFFFFFFFFFFFFFFFFFFFFFFFFFFF AND PUSH20 0xFFFFFFFFFFFFFFFFFFFFFFFFFFFFFFFFFFFFFFFF AND DUP2 MSTORE PUSH1 0x20 ADD SWAP1 DUP2 MSTORE PUSH1 0x20 ADD PUSH0 KECCAK256 PUSH0 DUP3 DUP3 SLOAD SUB SWAP3 POP POP DUP2 SWAP1 SSTORE POP JUMPDEST PUSH0 PUSH20 0xFFFFFFFFFFFFFFFFFFFFFFFFFFFFFFFFFFFFFFFF AND DUP6 PUSH20 0xFFFFFFFFFFFFFFFFFFFFFFFFFFFFFFFFFFFFFFFF AND EQ PUSH2 0x145F JUMPI PUSH1 0x1 PUSH1 0x3 PUSH0 DUP8 PUSH20 0xFFFFFFFFFFFFFFFFFFFFFFFFFFFFFFFFFFFFFFFF AND PUSH20 0xFFFFFFFFFFFFFFFFFFFFFFFFFFFFFFFFFFFFFFFF AND DUP2 MSTORE PUSH1 0x20 ADD SWAP1 DUP2 MSTORE PUSH1 0x20 ADD PUSH0 KECCAK256 PUSH0 DUP3 DUP3 SLOAD ADD SWAP3 POP POP DUP2 SWAP1 SSTORE POP JUMPDEST DUP5 PUSH1 0x2 PUSH0 DUP7 DUP2 MSTORE PUSH1 0x20 ADD SWAP1 DUP2 MSTORE PUSH1 0x20 ADD PUSH0 KECCAK256 PUSH0 PUSH2 0x100 EXP DUP2 SLOAD DUP2 PUSH20 0xFFFFFFFFFFFFFFFFFFFFFFFFFFFFFFFFFFFFFFFF MUL NOT AND SWAP1 DUP4 PUSH20 0xFFFFFFFFFFFFFFFFFFFFFFFFFFFFFFFFFFFFFFFF AND MUL OR SWAP1 SSTORE POP DUP4 DUP6 PUSH20 0xFFFFFFFFFFFFFFFFFFFFFFFFFFFFFFFFFFFFFFFF AND DUP3 PUSH20 0xFFFFFFFFFFFFFFFFFFFFFFFFFFFFFFFFFFFFFFFF AND PUSH32 0xDDF252AD1BE2C89B69C2B068FC378DAA952BA7F163C4A11628F55A4DF523B3EF PUSH1 0x40 MLOAD PUSH1 0x40 MLOAD DUP1 SWAP2 SUB SWAP1 LOG4 DUP1 SWAP2 POP POP SWAP4 SWAP3 POP POP POP JUMP JUMPDEST PUSH0 PUSH2 0x2710 SWAP1 POP SWAP1 JUMP JUMPDEST PUSH0 PUSH2 0x1529 PUSH0 DUP4 PUSH0 PUSH2 0x1309 JUMP JUMPDEST SWAP1 POP PUSH0 PUSH20 0xFFFFFFFFFFFFFFFFFFFFFFFFFFFFFFFFFFFFFFFF AND DUP2 PUSH20 0xFFFFFFFFFFFFFFFFFFFFFFFFFFFFFFFFFFFFFFFF AND SUB PUSH2 0x159B JUMPI DUP2 PUSH1 0x40 MLOAD PUSH32 0x7E27328900000000000000000000000000000000000000000000000000000000 DUP2 MSTORE PUSH1 0x4 ADD PUSH2 0x1592 SWAP2 SWAP1 PUSH2 0x2A6D JUMP JUMPDEST PUSH1 0x40 MLOAD DUP1 SWAP2 SUB SWAP1 REVERT JUMPDEST POP POP JUMP JUMPDEST PUSH2 0x15A7 PUSH2 0x12F0 JUMP JUMPDEST PUSH20 0xFFFFFFFFFFFFFFFFFFFFFFFFFFFFFFFFFFFFFFFF AND PUSH2 0x15C5 PUSH2 0xEA5 JUMP JUMPDEST PUSH20 0xFFFFFFFFFFFFFFFFFFFFFFFFFFFFFFFFFFFFFFFF AND EQ PUSH2 0x1624 JUMPI PUSH2 0x15E8 PUSH2 0x12F0 JUMP JUMPDEST PUSH1 0x40 MLOAD PUSH32 0x118CDAA700000000000000000000000000000000000000000000000000000000 DUP2 MSTORE PUSH1 0x4 ADD PUSH2 0x161B SWAP2 SWAP1 PUSH2 0x29DD JUMP JUMPDEST PUSH1 0x40 MLOAD DUP1 SWAP2 SUB SWAP1 REVERT JUMPDEST JUMP JUMPDEST PUSH0 PUSH1 0x7 PUSH0 SWAP1 SLOAD SWAP1 PUSH2 0x100 EXP SWAP1 DIV PUSH20 0xFFFFFFFFFFFFFFFFFFFFFFFFFFFFFFFFFFFFFFFF AND SWAP1 POP DUP2 PUSH1 0x7 PUSH0 PUSH2 0x100 EXP DUP2 SLOAD DUP2 PUSH20 0xFFFFFFFFFFFFFFFFFFFFFFFFFFFFFFFFFFFFFFFF MUL NOT AND SWAP1 DUP4 PUSH20 0xFFFFFFFFFFFFFFFFFFFFFFFFFFFFFFFFFFFFFFFF AND MUL OR SWAP1 SSTORE POP DUP2 PUSH20 0xFFFFFFFFFFFFFFFFFFFFFFFFFFFFFFFFFFFFFFFF AND DUP2 PUSH20 0xFFFFFFFFFFFFFFFFFFFFFFFFFFFFFFFFFFFFFFFF AND PUSH32 0x8BE0079C531659141344CD1FD0A4F28419497F9722A3DAAFE3B4186F6B6457E0 PUSH1 0x40 MLOAD PUSH1 0x40 MLOAD DUP1 SWAP2 SUB SWAP1 LOG3 POP POP JUMP JUMPDEST PUSH0 PUSH2 0x16F2 PUSH2 0x1514 JUMP JUMPDEST PUSH12 0xFFFFFFFFFFFFFFFFFFFFFFFF AND SWAP1 POP DUP1 DUP3 PUSH12 0xFFFFFFFFFFFFFFFFFFFFFFFF AND GT ISZERO PUSH2 0x1757 JUMPI DUP2 DUP2 PUSH1 0x40 MLOAD PUSH32 0x6F483D0900000000000000000000000000000000000000000000000000000000 DUP2 MSTORE PUSH1 0x4 ADD PUSH2 0x174E SWAP3 SWAP2 SWAP1 PUSH2 0x3209 JUMP JUMPDEST PUSH1 0x40 MLOAD DUP1 SWAP2 SUB SWAP1 REVERT JUMPDEST PUSH0 PUSH20 0xFFFFFFFFFFFFFFFFFFFFFFFFFFFFFFFFFFFFFFFF AND DUP4 PUSH20 0xFFFFFFFFFFFFFFFFFFFFFFFFFFFFFFFFFFFFFFFF AND SUB PUSH2 0x17C7 JUMPI PUSH0 PUSH1 0x40 MLOAD PUSH32 0xB6D9900A00000000000000000000000000000000000000000000000000000000 DUP2 MSTORE PUSH1 0x4 ADD PUSH2 0x17BE SWAP2 SWAP1 PUSH2 0x29DD JUMP JUMPDEST PUSH1 0x40 MLOAD DUP1 SWAP2 SUB SWAP1 REVERT JUMPDEST PUSH1 0x40 MLOAD DUP1 PUSH1 0x40 ADD PUSH1 0x40 MSTORE DUP1 DUP5 PUSH20 0xFFFFFFFFFFFFFFFFFFFFFFFFFFFFFFFFFFFFFFFF AND DUP2 MSTORE PUSH1 0x20 ADD DUP4 PUSH12 0xFFFFFFFFFFFFFFFFFFFFFFFF AND DUP2 MSTORE POP PUSH1 0x8 PUSH0 DUP3 ADD MLOAD DUP2 PUSH0 ADD PUSH0 PUSH2 0x100 EXP DUP2 SLOAD DUP2 PUSH20 0xFFFFFFFFFFFFFFFFFFFFFFFFFFFFFFFFFFFFFFFF MUL NOT AND SWAP1 DUP4 PUSH20 0xFFFFFFFFFFFFFFFFFFFFFFFFFFFFFFFFFFFFFFFF AND MUL OR SWAP1 SSTORE POP PUSH1 0x20 DUP3 ADD MLOAD DUP2 PUSH0 ADD PUSH1 0x14 PUSH2 0x100 EXP DUP2 SLOAD DUP2 PUSH12 0xFFFFFFFFFFFFFFFFFFFFFFFF MUL NOT AND SWAP1 DUP4 PUSH12 0xFFFFFFFFFFFFFFFFFFFFFFFF AND MUL OR SWAP1 SSTORE POP SWAP1 POP POP POP POP POP JUMP JUMPDEST PUSH0 PUSH20 0xFFFFFFFFFFFFFFFFFFFFFFFFFFFFFFFFFFFFFFFF AND DUP3 PUSH20 0xFFFFFFFFFFFFFFFFFFFFFFFFFFFFFFFFFFFFFFFF AND SUB PUSH2 0x18F4 JUMPI DUP2 PUSH1 0x40 MLOAD PUSH32 0x5B08BA1800000000000000000000000000000000000000000000000000000000 DUP2 MSTORE PUSH1 0x4 ADD PUSH2 0x18EB SWAP2 SWAP1 PUSH2 0x29DD JUMP JUMPDEST PUSH1 0x40 MLOAD DUP1 SWAP2 SUB SWAP1 REVERT JUMPDEST DUP1 PUSH1 0x5 PUSH0 DUP6 PUSH20 0xFFFFFFFFFFFFFFFFFFFFFFFFFFFFFFFFFFFFFFFF AND PUSH20 0xFFFFFFFFFFFFFFFFFFFFFFFFFFFFFFFFFFFFFFFF AND DUP2 MSTORE PUSH1 0x20 ADD SWAP1 DUP2 MSTORE PUSH1 0x20 ADD PUSH0 KECCAK256 PUSH0 DUP5 PUSH20 0xFFFFFFFFFFFFFFFFFFFFFFFFFFFFFFFFFFFFFFFF AND PUSH20 0xFFFFFFFFFFFFFFFFFFFFFFFFFFFFFFFFFFFFFFFF AND DUP2 MSTORE PUSH1 0x20 ADD SWAP1 DUP2 MSTORE PUSH1 0x20 ADD PUSH0 KECCAK256 PUSH0 PUSH2 0x100 EXP DUP2 SLOAD DUP2 PUSH1 0xFF MUL NOT AND SWAP1 DUP4 ISZERO ISZERO MUL OR SWAP1 SSTORE POP DUP2 PUSH20 0xFFFFFFFFFFFFFFFFFFFFFFFFFFFFFFFFFFFFFFFF AND DUP4 PUSH20 0xFFFFFFFFFFFFFFFFFFFFFFFFFFFFFFFFFFFFFFFF AND PUSH32 0x17307EAB39AB6107E8899845AD3D59BD9653F200F220920489CA2B5937696C31 DUP4 PUSH1 0x40 MLOAD PUSH2 0x19E0 SWAP2 SWAP1 PUSH2 0x287D JUMP JUMPDEST PUSH1 0x40 MLOAD DUP1 SWAP2 SUB SWAP1 LOG3 POP POP POP JUMP JUMPDEST PUSH0 DUP4 PUSH20 0xFFFFFFFFFFFFFFFFFFFFFFFFFFFFFFFFFFFFFFFF AND EXTCODESIZE GT ISZERO PUSH2 0x1B99 JUMPI DUP3 PUSH20 0xFFFFFFFFFFFFFFFFFFFFFFFFFFFFFFFFFFFFFFFF AND PUSH4 0x150B7A02 PUSH2 0x1A30 PUSH2 0x12F0 JUMP JUMPDEST DUP7 DUP6 DUP6 PUSH1 0x40 MLOAD DUP6 PUSH4 0xFFFFFFFF AND PUSH1 0xE0 SHL DUP2 MSTORE PUSH1 0x4 ADD PUSH2 0x1A52 SWAP5 SWAP4 SWAP3 SWAP2 SWAP1 PUSH2 0x3282 JUMP JUMPDEST PUSH1 0x20 PUSH1 0x40 MLOAD DUP1 DUP4 SUB DUP2 PUSH0 DUP8 GAS CALL SWAP3 POP POP POP DUP1 ISZERO PUSH2 0x1A8D JUMPI POP PUSH1 0x40 MLOAD RETURNDATASIZE PUSH1 0x1F NOT PUSH1 0x1F DUP3 ADD AND DUP3 ADD DUP1 PUSH1 0x40 MSTORE POP DUP2 ADD SWAP1 PUSH2 0x1A8A SWAP2 SWAP1 PUSH2 0x32E0 JUMP JUMPDEST PUSH1 0x1 JUMPDEST PUSH2 0x1B0E JUMPI RETURNDATASIZE DUP1 PUSH0 DUP2 EQ PUSH2 0x1ABB JUMPI PUSH1 0x40 MLOAD SWAP2 POP PUSH1 0x1F NOT PUSH1 0x3F RETURNDATASIZE ADD AND DUP3 ADD PUSH1 0x40 MSTORE RETURNDATASIZE DUP3 MSTORE RETURNDATASIZE PUSH0 PUSH1 0x20 DUP5 ADD RETURNDATACOPY PUSH2 0x1AC0 JUMP JUMPDEST PUSH1 0x60 SWAP2 POP JUMPDEST POP PUSH0 DUP2 MLOAD SUB PUSH2 0x1B06 JUMPI DUP4 PUSH1 0x40 MLOAD PUSH32 0x64A0AE9200000000000000000000000000000000000000000000000000000000 DUP2 MSTORE PUSH1 0x4 ADD PUSH2 0x1AFD SWAP2 SWAP1 PUSH2 0x29DD JUMP JUMPDEST PUSH1 0x40 MLOAD DUP1 SWAP2 SUB SWAP1 REVERT JUMPDEST DUP1 MLOAD DUP2 PUSH1 0x20 ADD REVERT JUMPDEST PUSH4 0x150B7A02 PUSH1 0xE0 SHL PUSH28 0xFFFFFFFFFFFFFFFFFFFFFFFFFFFFFFFFFFFFFFFFFFFFFFFFFFFFFFFF NOT AND DUP2 PUSH28 0xFFFFFFFFFFFFFFFFFFFFFFFFFFFFFFFFFFFFFFFFFFFFFFFFFFFFFFFF NOT AND EQ PUSH2 0x1B97 JUMPI DUP4 PUSH1 0x40 MLOAD PUSH32 0x64A0AE9200000000000000000000000000000000000000000000000000000000 DUP2 MSTORE PUSH1 0x4 ADD PUSH2 0x1B8E SWAP2 SWAP1 PUSH2 0x29DD JUMP JUMPDEST PUSH1 0x40 MLOAD DUP1 SWAP2 SUB SWAP1 REVERT JUMPDEST POP JUMPDEST POP POP POP POP JUMP JUMPDEST PUSH1 0x60 PUSH2 0x1BAA DUP3 PUSH2 0x1231 JUMP JUMPDEST POP PUSH0 PUSH1 0x6 PUSH0 DUP5 DUP2 MSTORE PUSH1 0x20 ADD SWAP1 DUP2 MSTORE PUSH1 0x20 ADD PUSH0 KECCAK256 DUP1 SLOAD PUSH2 0x1BC8 SWAP1 PUSH2 0x2FD2 JUMP JUMPDEST DUP1 PUSH1 0x1F ADD PUSH1 0x20 DUP1 SWAP2 DIV MUL PUSH1 0x20 ADD PUSH1 0x40 MLOAD SWAP1 DUP2 ADD PUSH1 0x40 MSTORE DUP1 SWAP3 SWAP2 SWAP1 DUP2 DUP2 MSTORE PUSH1 0x20 ADD DUP3 DUP1 SLOAD PUSH2 0x1BF4 SWAP1 PUSH2 0x2FD2 JUMP JUMPDEST DUP1 ISZERO PUSH2 0x1C3F JUMPI DUP1 PUSH1 0x1F LT PUSH2 0x1C16 JUMPI PUSH2 0x100 DUP1 DUP4 SLOAD DIV MUL DUP4 MSTORE SWAP2 PUSH1 0x20 ADD SWAP2 PUSH2 0x1C3F JUMP JUMPDEST DUP3 ADD SWAP2 SWAP1 PUSH0 MSTORE PUSH1 0x20 PUSH0 KECCAK256 SWAP1 JUMPDEST DUP2 SLOAD DUP2 MSTORE SWAP1 PUSH1 0x1 ADD SWAP1 PUSH1 0x20 ADD DUP1 DUP4 GT PUSH2 0x1C22 JUMPI DUP3 SWAP1 SUB PUSH1 0x1F AND DUP3 ADD SWAP2 JUMPDEST POP POP POP POP POP SWAP1 POP PUSH0 PUSH2 0x1C4F PUSH2 0x21EB JUMP JUMPDEST SWAP1 POP PUSH0 DUP2 MLOAD SUB PUSH2 0x1C63 JUMPI DUP2 SWAP3 POP POP POP PUSH2 0x1CA5 JUMP JUMPDEST PUSH0 DUP3 MLOAD GT ISZERO PUSH2 0x1C97 JUMPI DUP1 DUP3 PUSH1 0x40 MLOAD PUSH1 0x20 ADD PUSH2 0x1C7F SWAP3 SWAP2 SWAP1 PUSH2 0x3345 JUMP JUMPDEST PUSH1 0x40 MLOAD PUSH1 0x20 DUP2 DUP4 SUB SUB DUP2 MSTORE SWAP1 PUSH1 0x40 MSTORE SWAP3 POP POP POP PUSH2 0x1CA5 JUMP JUMPDEST PUSH2 0x1CA0 DUP5 PUSH2 0x220B JUMP JUMPDEST SWAP3 POP POP POP JUMPDEST SWAP2 SWAP1 POP JUMP JUMPDEST PUSH2 0x1CC3 DUP3 DUP3 PUSH1 0x40 MLOAD DUP1 PUSH1 0x20 ADD PUSH1 0x40 MSTORE DUP1 PUSH0 DUP2 MSTORE POP PUSH2 0x2271 JUMP JUMPDEST POP POP JUMP JUMPDEST DUP1 PUSH1 0x6 PUSH0 DUP5 DUP2 MSTORE PUSH1 0x20 ADD SWAP1 DUP2 MSTORE PUSH1 0x20 ADD PUSH0 KECCAK256 SWAP1 DUP2 PUSH2 0x1CE5 SWAP2 SWAP1 PUSH2 0x34FC JUMP JUMPDEST POP PUSH32 0xF8E1A15ABA9398E019F0B49DF1A4FDE98EE17AE345CB5F6B5E2C27F5033E8CE7 DUP3 PUSH1 0x40 MLOAD PUSH2 0x1D15 SWAP2 SWAP1 PUSH2 0x2A6D JUMP JUMPDEST PUSH1 0x40 MLOAD DUP1 SWAP2 SUB SWAP1 LOG1 POP POP JUMP JUMPDEST PUSH0 PUSH2 0x1D2A PUSH2 0x1514 JUMP JUMPDEST PUSH12 0xFFFFFFFFFFFFFFFFFFFFFFFF AND SWAP1 POP DUP1 DUP3 PUSH12 0xFFFFFFFFFFFFFFFFFFFFFFFF AND GT ISZERO PUSH2 0x1D91 JUMPI DUP4 DUP3 DUP3 PUSH1 0x40 MLOAD PUSH32 0xDFD1FC1B00000000000000000000000000000000000000000000000000000000 DUP2 MSTORE PUSH1 0x4 ADD PUSH2 0x1D88 SWAP4 SWAP3 SWAP2 SWAP1 PUSH2 0x35CB JUMP JUMPDEST PUSH1 0x40 MLOAD DUP1 SWAP2 SUB SWAP1 REVERT JUMPDEST PUSH0 PUSH20 0xFFFFFFFFFFFFFFFFFFFFFFFFFFFFFFFFFFFFFFFF AND DUP4 PUSH20 0xFFFFFFFFFFFFFFFFFFFFFFFFFFFFFFFFFFFFFFFF AND SUB PUSH2 0x1E03 JUMPI DUP4 PUSH0 PUSH1 0x40 MLOAD PUSH32 0x969F085200000000000000000000000000000000000000000000000000000000 DUP2 MSTORE PUSH1 0x4 ADD PUSH2 0x1DFA SWAP3 SWAP2 SWAP1 PUSH2 0x3600 JUMP JUMPDEST PUSH1 0x40 MLOAD DUP1 SWAP2 SUB SWAP1 REVERT JUMPDEST PUSH1 0x40 MLOAD DUP1 PUSH1 0x40 ADD PUSH1 0x40 MSTORE DUP1 DUP5 PUSH20 0xFFFFFFFFFFFFFFFFFFFFFFFFFFFFFFFFFFFFFFFF AND DUP2 MSTORE PUSH1 0x20 ADD DUP4 PUSH12 0xFFFFFFFFFFFFFFFFFFFFFFFF AND DUP2 MSTORE POP PUSH1 0x9 PUSH0 DUP7 DUP2 MSTORE PUSH1 0x20 ADD SWAP1 DUP2 MSTORE PUSH1 0x20 ADD PUSH0 KECCAK256 PUSH0 DUP3 ADD MLOAD DUP2 PUSH0 ADD PUSH0 PUSH2 0x100 EXP DUP2 SLOAD DUP2 PUSH20 0xFFFFFFFFFFFFFFFFFFFFFFFFFFFFFFFFFFFFFFFF MUL NOT AND SWAP1 DUP4 PUSH20 0xFFFFFFFFFFFFFFFFFFFFFFFFFFFFFFFFFFFFFFFF AND MUL OR SWAP1 SSTORE POP PUSH1 0x20 DUP3 ADD MLOAD DUP2 PUSH0 ADD PUSH1 0x14 PUSH2 0x100 EXP DUP2 SLOAD DUP2 PUSH12 0xFFFFFFFFFFFFFFFFFFFFFFFF MUL NOT AND SWAP1 DUP4 PUSH12 0xFFFFFFFFFFFFFFFFFFFFFFFF AND MUL OR SWAP1 SSTORE POP SWAP1 POP POP POP POP POP POP JUMP JUMPDEST PUSH0 PUSH4 0x49064906 PUSH1 0xE0 SHL PUSH28 0xFFFFFFFFFFFFFFFFFFFFFFFFFFFFFFFFFFFFFFFFFFFFFFFFFFFFFFFF NOT AND DUP3 PUSH28 0xFFFFFFFFFFFFFFFFFFFFFFFFFFFFFFFFFFFFFFFFFFFFFFFFFFFFFFFF NOT AND EQ DUP1 PUSH2 0x1F29 JUMPI POP PUSH2 0x1F28 DUP3 PUSH2 0x228C JUMP JUMPDEST JUMPDEST SWAP1 POP SWAP2 SWAP1 POP JUMP JUMPDEST PUSH0 PUSH1 0x2 PUSH0 DUP4 DUP2 MSTORE PUSH1 0x20 ADD SWAP1 DUP2 MSTORE PUSH1 0x20 ADD PUSH0 KECCAK256 PUSH0 SWAP1 SLOAD SWAP1 PUSH2 0x100 EXP SWAP1 DIV PUSH20 0xFFFFFFFFFFFFFFFFFFFFFFFFFFFFFFFFFFFFFFFF AND SWAP1 POP SWAP2 SWAP1 POP JUMP JUMPDEST DUP1 DUP1 PUSH2 0x1FA1 JUMPI POP PUSH0 PUSH20 0xFFFFFFFFFFFFFFFFFFFFFFFFFFFFFFFFFFFFFFFF AND DUP3 PUSH20 0xFFFFFFFFFFFFFFFFFFFFFFFFFFFFFFFFFFFFFFFF AND EQ ISZERO JUMPDEST ISZERO PUSH2 0x20D3 JUMPI PUSH0 PUSH2 0x1FB0 DUP5 PUSH2 0x1231 JUMP JUMPDEST SWAP1 POP PUSH0 PUSH20 0xFFFFFFFFFFFFFFFFFFFFFFFFFFFFFFFFFFFFFFFF AND DUP4 PUSH20 0xFFFFFFFFFFFFFFFFFFFFFFFFFFFFFFFFFFFFFFFF AND EQ ISZERO DUP1 ISZERO PUSH2 0x201A JUMPI POP DUP3 PUSH20 0xFFFFFFFFFFFFFFFFFFFFFFFFFFFFFFFFFFFFFFFF AND DUP2 PUSH20 0xFFFFFFFFFFFFFFFFFFFFFFFFFFFFFFFFFFFFFFFF AND EQ ISZERO JUMPDEST DUP1 ISZERO PUSH2 0x202D JUMPI POP PUSH2 0x202B DUP2 DUP5 PUSH2 0x10A6 JUMP JUMPDEST ISZERO JUMPDEST ISZERO PUSH2 0x206F JUMPI DUP3 PUSH1 0x40 MLOAD PUSH32 0xA9FBF51F00000000000000000000000000000000000000000000000000000000 DUP2 MSTORE PUSH1 0x4 ADD PUSH2 0x2066 SWAP2 SWAP1 PUSH2 0x29DD JUMP JUMPDEST PUSH1 0x40 MLOAD DUP1 SWAP2 SUB SWAP1 REVERT JUMPDEST DUP2 ISZERO PUSH2 0x20D1 JUMPI DUP4 DUP6 PUSH20 0xFFFFFFFFFFFFFFFFFFFFFFFFFFFFFFFFFFFFFFFF AND DUP3 PUSH20 0xFFFFFFFFFFFFFFFFFFFFFFFFFFFFFFFFFFFFFFFF AND PUSH32 0x8C5BE1E5EBEC7D5BD14F71427D1E84F3DD0314C0F7B2291E5B200AC8C7C3B925 PUSH1 0x40 MLOAD PUSH1 0x40 MLOAD DUP1 SWAP2 SUB SWAP1 LOG4 JUMPDEST POP JUMPDEST DUP4 PUSH1 0x4 PUSH0 DUP6 DUP2 MSTORE PUSH1 0x20 ADD SWAP1 DUP2 MSTORE PUSH1 0x20 ADD PUSH0 KECCAK256 PUSH0 PUSH2 0x100 EXP DUP2 SLOAD DUP2 PUSH20 0xFFFFFFFFFFFFFFFFFFFFFFFFFFFFFFFFFFFFFFFF MUL NOT AND SWAP1 DUP4 PUSH20 0xFFFFFFFFFFFFFFFFFFFFFFFFFFFFFFFFFFFFFFFF AND MUL OR SWAP1 SSTORE POP POP POP POP POP JUMP JUMPDEST PUSH2 0x2133 DUP4 DUP4 DUP4 PUSH2 0x236D JUMP JUMPDEST PUSH2 0x21E6 JUMPI PUSH0 PUSH20 0xFFFFFFFFFFFFFFFFFFFFFFFFFFFFFFFFFFFFFFFF AND DUP4 PUSH20 0xFFFFFFFFFFFFFFFFFFFFFFFFFFFFFFFFFFFFFFFF AND SUB PUSH2 0x21A7 JUMPI DUP1 PUSH1 0x40 MLOAD PUSH32 0x7E27328900000000000000000000000000000000000000000000000000000000 DUP2 MSTORE PUSH1 0x4 ADD PUSH2 0x219E SWAP2 SWAP1 PUSH2 0x2A6D JUMP JUMPDEST PUSH1 0x40 MLOAD DUP1 SWAP2 SUB SWAP1 REVERT JUMPDEST DUP2 DUP2 PUSH1 0x40 MLOAD PUSH32 0x177E802F00000000000000000000000000000000000000000000000000000000 DUP2 MSTORE PUSH1 0x4 ADD PUSH2 0x21DD SWAP3 SWAP2 SWAP1 PUSH2 0x2B78 JUMP JUMPDEST PUSH1 0x40 MLOAD DUP1 SWAP2 SUB SWAP1 REVERT JUMPDEST POP POP POP JUMP JUMPDEST PUSH1 0x60 PUSH1 0x40 MLOAD DUP1 PUSH1 0x80 ADD PUSH1 0x40 MSTORE DUP1 PUSH1 0x42 DUP2 MSTORE PUSH1 0x20 ADD PUSH2 0x3628 PUSH1 0x42 SWAP2 CODECOPY SWAP1 POP SWAP1 JUMP JUMPDEST PUSH1 0x60 PUSH2 0x2216 DUP3 PUSH2 0x1231 JUMP JUMPDEST POP PUSH0 PUSH2 0x2220 PUSH2 0x21EB JUMP JUMPDEST SWAP1 POP PUSH0 DUP2 MLOAD GT PUSH2 0x223E JUMPI PUSH1 0x40 MLOAD DUP1 PUSH1 0x20 ADD PUSH1 0x40 MSTORE DUP1 PUSH0 DUP2 MSTORE POP PUSH2 0x2269 JUMP JUMPDEST DUP1 PUSH2 0x2248 DUP5 PUSH2 0x242D JUMP JUMPDEST PUSH1 0x40 MLOAD PUSH1 0x20 ADD PUSH2 0x2259 SWAP3 SWAP2 SWAP1 PUSH2 0x3345 JUMP JUMPDEST PUSH1 0x40 MLOAD PUSH1 0x20 DUP2 DUP4 SUB SUB DUP2 MSTORE SWAP1 PUSH1 0x40 MSTORE JUMPDEST SWAP2 POP POP SWAP2 SWAP1 POP JUMP JUMPDEST PUSH2 0x227B DUP4 DUP4 PUSH2 0x24F7 JUMP JUMPDEST PUSH2 0x2287 PUSH0 DUP5 DUP5 DUP5 PUSH2 0x19ED JUMP JUMPDEST POP POP POP JUMP JUMPDEST PUSH0 PUSH32 0x80AC58CD00000000000000000000000000000000000000000000000000000000 PUSH28 0xFFFFFFFFFFFFFFFFFFFFFFFFFFFFFFFFFFFFFFFFFFFFFFFFFFFFFFFF NOT AND DUP3 PUSH28 0xFFFFFFFFFFFFFFFFFFFFFFFFFFFFFFFFFFFFFFFFFFFFFFFFFFFFFFFF NOT AND EQ DUP1 PUSH2 0x2356 JUMPI POP PUSH32 0x5B5E139F00000000000000000000000000000000000000000000000000000000 PUSH28 0xFFFFFFFFFFFFFFFFFFFFFFFFFFFFFFFFFFFFFFFFFFFFFFFFFFFFFFFF NOT AND DUP3 PUSH28 0xFFFFFFFFFFFFFFFFFFFFFFFFFFFFFFFFFFFFFFFFFFFFFFFFFFFFFFFF NOT AND EQ JUMPDEST DUP1 PUSH2 0x2366 JUMPI POP PUSH2 0x2365 DUP3 PUSH2 0x25EA JUMP JUMPDEST JUMPDEST SWAP1 POP SWAP2 SWAP1 POP JUMP JUMPDEST PUSH0 DUP1 PUSH20 0xFFFFFFFFFFFFFFFFFFFFFFFFFFFFFFFFFFFFFFFF AND DUP4 PUSH20 0xFFFFFFFFFFFFFFFFFFFFFFFFFFFFFFFFFFFFFFFF AND EQ ISZERO DUP1 ISZERO PUSH2 0x2424 JUMPI POP DUP3 PUSH20 0xFFFFFFFFFFFFFFFFFFFFFFFFFFFFFFFFFFFFFFFF AND DUP5 PUSH20 0xFFFFFFFFFFFFFFFFFFFFFFFFFFFFFFFFFFFFFFFF AND EQ DUP1 PUSH2 0x23E5 JUMPI POP PUSH2 0x23E4 DUP5 DUP5 PUSH2 0x10A6 JUMP JUMPDEST JUMPDEST DUP1 PUSH2 0x2423 JUMPI POP DUP3 PUSH20 0xFFFFFFFFFFFFFFFFFFFFFFFFFFFFFFFFFFFFFFFF AND PUSH2 0x240B DUP4 PUSH2 0x12B7 JUMP JUMPDEST PUSH20 0xFFFFFFFFFFFFFFFFFFFFFFFFFFFFFFFFFFFFFFFF AND EQ JUMPDEST JUMPDEST SWAP1 POP SWAP4 SWAP3 POP POP POP JUMP JUMPDEST PUSH1 0x60 PUSH0 PUSH1 0x1 PUSH2 0x243B DUP5 PUSH2 0x2653 JUMP JUMPDEST ADD SWAP1 POP PUSH0 DUP2 PUSH8 0xFFFFFFFFFFFFFFFF DUP2 GT ISZERO PUSH2 0x2459 JUMPI PUSH2 0x2458 PUSH2 0x2CB9 JUMP JUMPDEST JUMPDEST PUSH1 0x40 MLOAD SWAP1 DUP1 DUP3 MSTORE DUP1 PUSH1 0x1F ADD PUSH1 0x1F NOT AND PUSH1 0x20 ADD DUP3 ADD PUSH1 0x40 MSTORE DUP1 ISZERO PUSH2 0x248B JUMPI DUP2 PUSH1 0x20 ADD PUSH1 0x1 DUP3 MUL DUP1 CALLDATASIZE DUP4 CALLDATACOPY DUP1 DUP3 ADD SWAP2 POP POP SWAP1 POP JUMPDEST POP SWAP1 POP PUSH0 DUP3 PUSH1 0x20 ADD DUP3 ADD SWAP1 POP JUMPDEST PUSH1 0x1 ISZERO PUSH2 0x24EC JUMPI DUP1 DUP1 PUSH1 0x1 SWAP1 SUB SWAP2 POP POP PUSH32 0x3031323334353637383961626364656600000000000000000000000000000000 PUSH1 0xA DUP7 MOD BYTE DUP2 MSTORE8 PUSH1 0xA DUP6 DUP2 PUSH2 0x24E1 JUMPI PUSH2 0x24E0 PUSH2 0x3140 JUMP JUMPDEST JUMPDEST DIV SWAP5 POP PUSH0 DUP6 SUB PUSH2 0x2498 JUMPI JUMPDEST DUP2 SWAP4 POP POP POP POP SWAP2 SWAP1 POP JUMP JUMPDEST PUSH0 PUSH20 0xFFFFFFFFFFFFFFFFFFFFFFFFFFFFFFFFFFFFFFFF AND DUP3 PUSH20 0xFFFFFFFFFFFFFFFFFFFFFFFFFFFFFFFFFFFFFFFF AND SUB PUSH2 0x2567 JUMPI PUSH0 PUSH1 0x40 MLOAD PUSH32 0x64A0AE9200000000000000000000000000000000000000000000000000000000 DUP2 MSTORE PUSH1 0x4 ADD PUSH2 0x255E SWAP2 SWAP1 PUSH2 0x29DD JUMP JUMPDEST PUSH1 0x40 MLOAD DUP1 SWAP2 SUB SWAP1 REVERT JUMPDEST PUSH0 PUSH2 0x2573 DUP4 DUP4 PUSH0 PUSH2 0x1309 JUMP JUMPDEST SWAP1 POP PUSH0 PUSH20 0xFFFFFFFFFFFFFFFFFFFFFFFFFFFFFFFFFFFFFFFF AND DUP2 PUSH20 0xFFFFFFFFFFFFFFFFFFFFFFFFFFFFFFFFFFFFFFFF AND EQ PUSH2 0x25E5 JUMPI PUSH0 PUSH1 0x40 MLOAD PUSH32 0x73C6AC6E00000000000000000000000000000000000000000000000000000000 DUP2 MSTORE PUSH1 0x4 ADD PUSH2 0x25DC SWAP2 SWAP1 PUSH2 0x29DD JUMP JUMPDEST PUSH1 0x40 MLOAD DUP1 SWAP2 SUB SWAP1 REVERT JUMPDEST POP POP POP JUMP JUMPDEST PUSH0 PUSH32 0x1FFC9A700000000000000000000000000000000000000000000000000000000 PUSH28 0xFFFFFFFFFFFFFFFFFFFFFFFFFFFFFFFFFFFFFFFFFFFFFFFFFFFFFFFF NOT AND DUP3 PUSH28 0xFFFFFFFFFFFFFFFFFFFFFFFFFFFFFFFFFFFFFFFFFFFFFFFFFFFFFFFF NOT AND EQ SWAP1 POP SWAP2 SWAP1 POP JUMP JUMPDEST PUSH0 DUP1 PUSH0 SWAP1 POP PUSH27 0x184F03E93FF9F4DAA797ED6E38ED64BF6A1F010000000000000000 DUP4 LT PUSH2 0x26AF JUMPI PUSH27 0x184F03E93FF9F4DAA797ED6E38ED64BF6A1F010000000000000000 DUP4 DUP2 PUSH2 0x26A5 JUMPI PUSH2 0x26A4 PUSH2 0x3140 JUMP JUMPDEST JUMPDEST DIV SWAP3 POP PUSH1 0x40 DUP2 ADD SWAP1 POP JUMPDEST PUSH14 0x4EE2D6D415B85ACEF8100000000 DUP4 LT PUSH2 0x26EC JUMPI PUSH14 0x4EE2D6D415B85ACEF8100000000 DUP4 DUP2 PUSH2 0x26E2 JUMPI PUSH2 0x26E1 PUSH2 0x3140 JUMP JUMPDEST JUMPDEST DIV SWAP3 POP PUSH1 0x20 DUP2 ADD SWAP1 POP JUMPDEST PUSH7 0x2386F26FC10000 DUP4 LT PUSH2 0x271B JUMPI PUSH7 0x2386F26FC10000 DUP4 DUP2 PUSH2 0x2711 JUMPI PUSH2 0x2710 PUSH2 0x3140 JUMP JUMPDEST JUMPDEST DIV SWAP3 POP PUSH1 0x10 DUP2 ADD SWAP1 POP JUMPDEST PUSH4 0x5F5E100 DUP4 LT PUSH2 0x2744 JUMPI PUSH4 0x5F5E100 DUP4 DUP2 PUSH2 0x273A JUMPI PUSH2 0x2739 PUSH2 0x3140 JUMP JUMPDEST JUMPDEST DIV SWAP3 POP PUSH1 0x8 DUP2 ADD SWAP1 POP JUMPDEST PUSH2 0x2710 DUP4 LT PUSH2 0x2769 JUMPI PUSH2 0x2710 DUP4 DUP2 PUSH2 0x275F JUMPI PUSH2 0x275E PUSH2 0x3140 JUMP JUMPDEST JUMPDEST DIV SWAP3 POP PUSH1 0x4 DUP2 ADD SWAP1 POP JUMPDEST PUSH1 0x64 DUP4 LT PUSH2 0x278C JUMPI PUSH1 0x64 DUP4 DUP2 PUSH2 0x2782 JUMPI PUSH2 0x2781 PUSH2 0x3140 JUMP JUMPDEST JUMPDEST DIV SWAP3 POP PUSH1 0x2 DUP2 ADD SWAP1 POP JUMPDEST PUSH1 0xA DUP4 LT PUSH2 0x279B JUMPI PUSH1 0x1 DUP2 ADD SWAP1 POP JUMPDEST DUP1 SWAP2 POP POP SWAP2 SWAP1 POP JUMP JUMPDEST PUSH1 0x40 MLOAD DUP1 PUSH1 0x40 ADD PUSH1 0x40 MSTORE DUP1 PUSH0 DUP2 MSTORE PUSH1 0x20 ADD PUSH0 PUSH20 0xFFFFFFFFFFFFFFFFFFFFFFFFFFFFFFFFFFFFFFFF AND DUP2 MSTORE POP SWAP1 JUMP JUMPDEST PUSH0 PUSH1 0x40 MLOAD SWAP1 POP SWAP1 JUMP JUMPDEST PUSH0 DUP1 REVERT JUMPDEST PUSH0 DUP1 REVERT JUMPDEST PUSH0 PUSH32 0xFFFFFFFF00000000000000000000000000000000000000000000000000000000 DUP3 AND SWAP1 POP SWAP2 SWAP1 POP JUMP JUMPDEST PUSH2 0x2817 DUP2 PUSH2 0x27E3 JUMP JUMPDEST DUP2 EQ PUSH2 0x2821 JUMPI PUSH0 DUP1 REVERT JUMPDEST POP JUMP JUMPDEST PUSH0 DUP2 CALLDATALOAD SWAP1 POP PUSH2 0x2832 DUP2 PUSH2 0x280E JUMP JUMPDEST SWAP3 SWAP2 POP POP JUMP JUMPDEST PUSH0 PUSH1 0x20 DUP3 DUP5 SUB SLT ISZERO PUSH2 0x284D JUMPI PUSH2 0x284C PUSH2 0x27DB JUMP JUMPDEST JUMPDEST PUSH0 PUSH2 0x285A DUP5 DUP3 DUP6 ADD PUSH2 0x2824 JUMP JUMPDEST SWAP2 POP POP SWAP3 SWAP2 POP POP JUMP JUMPDEST PUSH0 DUP2 ISZERO ISZERO SWAP1 POP SWAP2 SWAP1 POP JUMP JUMPDEST PUSH2 0x2877 DUP2 PUSH2 0x2863 JUMP JUMPDEST DUP3 MSTORE POP POP JUMP JUMPDEST PUSH0 PUSH1 0x20 DUP3 ADD SWAP1 POP PUSH2 0x2890 PUSH0 DUP4 ADD DUP5 PUSH2 0x286E JUMP JUMPDEST SWAP3 SWAP2 POP POP JUMP JUMPDEST PUSH0 DUP2 MLOAD SWAP1 POP SWAP2 SWAP1 POP JUMP JUMPDEST PUSH0 DUP3 DUP3 MSTORE PUSH1 0x20 DUP3 ADD SWAP1 POP SWAP3 SWAP2 POP POP JUMP JUMPDEST PUSH0 JUMPDEST DUP4 DUP2 LT ISZERO PUSH2 0x28CD JUMPI DUP1 DUP3 ADD MLOAD DUP2 DUP5 ADD MSTORE PUSH1 0x20 DUP2 ADD SWAP1 POP PUSH2 0x28B2 JUMP JUMPDEST PUSH0 DUP5 DUP5 ADD MSTORE POP POP POP POP JUMP JUMPDEST PUSH0 PUSH1 0x1F NOT PUSH1 0x1F DUP4 ADD AND SWAP1 POP SWAP2 SWAP1 POP JUMP JUMPDEST PUSH0 PUSH2 0x28F2 DUP3 PUSH2 0x2896 JUMP JUMPDEST PUSH2 0x28FC DUP2 DUP6 PUSH2 0x28A0 JUMP JUMPDEST SWAP4 POP PUSH2 0x290C DUP2 DUP6 PUSH1 0x20 DUP7 ADD PUSH2 0x28B0 JUMP JUMPDEST PUSH2 0x2915 DUP2 PUSH2 0x28D8 JUMP JUMPDEST DUP5 ADD SWAP2 POP POP SWAP3 SWAP2 POP POP JUMP JUMPDEST PUSH0 PUSH1 0x20 DUP3 ADD SWAP1 POP DUP2 DUP2 SUB PUSH0 DUP4 ADD MSTORE PUSH2 0x2938 DUP2 DUP5 PUSH2 0x28E8 JUMP JUMPDEST SWAP1 POP SWAP3 SWAP2 POP POP JUMP JUMPDEST PUSH0 DUP2 SWAP1 POP SWAP2 SWAP1 POP JUMP JUMPDEST PUSH2 0x2952 DUP2 PUSH2 0x2940 JUMP JUMPDEST DUP2 EQ PUSH2 0x295C JUMPI PUSH0 DUP1 REVERT JUMPDEST POP JUMP JUMPDEST PUSH0 DUP2 CALLDATALOAD SWAP1 POP PUSH2 0x296D DUP2 PUSH2 0x2949 JUMP JUMPDEST SWAP3 SWAP2 POP POP JUMP JUMPDEST PUSH0 PUSH1 0x20 DUP3 DUP5 SUB SLT ISZERO PUSH2 0x2988 JUMPI PUSH2 0x2987 PUSH2 0x27DB JUMP JUMPDEST JUMPDEST PUSH0 PUSH2 0x2995 DUP5 DUP3 DUP6 ADD PUSH2 0x295F JUMP JUMPDEST SWAP2 POP POP SWAP3 SWAP2 POP POP JUMP JUMPDEST PUSH0 PUSH20 0xFFFFFFFFFFFFFFFFFFFFFFFFFFFFFFFFFFFFFFFF DUP3 AND SWAP1 POP SWAP2 SWAP1 POP JUMP JUMPDEST PUSH0 PUSH2 0x29C7 DUP3 PUSH2 0x299E JUMP JUMPDEST SWAP1 POP SWAP2 SWAP1 POP JUMP JUMPDEST PUSH2 0x29D7 DUP2 PUSH2 0x29BD JUMP JUMPDEST DUP3 MSTORE POP POP JUMP JUMPDEST PUSH0 PUSH1 0x20 DUP3 ADD SWAP1 POP PUSH2 0x29F0 PUSH0 DUP4 ADD DUP5 PUSH2 0x29CE JUMP JUMPDEST SWAP3 SWAP2 POP POP JUMP JUMPDEST PUSH2 0x29FF DUP2 PUSH2 0x29BD JUMP JUMPDEST DUP2 EQ PUSH2 0x2A09 JUMPI PUSH0 DUP1 REVERT JUMPDEST POP JUMP JUMPDEST PUSH0 DUP2 CALLDATALOAD SWAP1 POP PUSH2 0x2A1A DUP2 PUSH2 0x29F6 JUMP JUMPDEST SWAP3 SWAP2 POP POP JUMP JUMPDEST PUSH0 DUP1 PUSH1 0x40 DUP4 DUP6 SUB SLT ISZERO PUSH2 0x2A36 JUMPI PUSH2 0x2A35 PUSH2 0x27DB JUMP JUMPDEST JUMPDEST PUSH0 PUSH2 0x2A43 DUP6 DUP3 DUP7 ADD PUSH2 0x2A0C JUMP JUMPDEST SWAP3 POP POP PUSH1 0x20 PUSH2 0x2A54 DUP6 DUP3 DUP7 ADD PUSH2 0x295F JUMP JUMPDEST SWAP2 POP POP SWAP3 POP SWAP3 SWAP1 POP JUMP JUMPDEST PUSH2 0x2A67 DUP2 PUSH2 0x2940 JUMP JUMPDEST DUP3 MSTORE POP POP JUMP JUMPDEST PUSH0 PUSH1 0x20 DUP3 ADD SWAP1 POP PUSH2 0x2A80 PUSH0 DUP4 ADD DUP5 PUSH2 0x2A5E JUMP JUMPDEST SWAP3 SWAP2 POP POP JUMP JUMPDEST PUSH2 0x2A8F DUP2 PUSH2 0x2940 JUMP JUMPDEST DUP3 MSTORE POP POP JUMP JUMPDEST PUSH2 0x2A9E DUP2 PUSH2 0x29BD JUMP JUMPDEST DUP3 MSTORE POP POP JUMP JUMPDEST PUSH1 0x40 DUP3 ADD PUSH0 DUP3 ADD MLOAD PUSH2 0x2AB8 PUSH0 DUP6 ADD DUP3 PUSH2 0x2A86 JUMP JUMPDEST POP PUSH1 0x20 DUP3 ADD MLOAD PUSH2 0x2ACB PUSH1 0x20 DUP6 ADD DUP3 PUSH2 0x2A95 JUMP JUMPDEST POP POP POP POP JUMP JUMPDEST PUSH0 PUSH1 0x40 DUP3 ADD SWAP1 POP PUSH2 0x2AE4 PUSH0 DUP4 ADD DUP5 PUSH2 0x2AA4 JUMP JUMPDEST SWAP3 SWAP2 POP POP JUMP JUMPDEST PUSH0 DUP1 PUSH1 0x40 DUP4 DUP6 SUB SLT ISZERO PUSH2 0x2B00 JUMPI PUSH2 0x2AFF PUSH2 0x27DB JUMP JUMPDEST JUMPDEST PUSH0 PUSH2 0x2B0D DUP6 DUP3 DUP7 ADD PUSH2 0x295F JUMP JUMPDEST SWAP3 POP POP PUSH1 0x20 PUSH2 0x2B1E DUP6 DUP3 DUP7 ADD PUSH2 0x295F JUMP JUMPDEST SWAP2 POP POP SWAP3 POP SWAP3 SWAP1 POP JUMP JUMPDEST PUSH0 DUP1 PUSH0 PUSH1 0x60 DUP5 DUP7 SUB SLT ISZERO PUSH2 0x2B3F JUMPI PUSH2 0x2B3E PUSH2 0x27DB JUMP JUMPDEST JUMPDEST PUSH0 PUSH2 0x2B4C DUP7 DUP3 DUP8 ADD PUSH2 0x2A0C JUMP JUMPDEST SWAP4 POP POP PUSH1 0x20 PUSH2 0x2B5D DUP7 DUP3 DUP8 ADD PUSH2 0x2A0C JUMP JUMPDEST SWAP3 POP POP PUSH1 0x40 PUSH2 0x2B6E DUP7 DUP3 DUP8 ADD PUSH2 0x295F JUMP JUMPDEST SWAP2 POP POP SWAP3 POP SWAP3 POP SWAP3 JUMP JUMPDEST PUSH0 PUSH1 0x40 DUP3 ADD SWAP1 POP PUSH2 0x2B8B PUSH0 DUP4 ADD DUP6 PUSH2 0x29CE JUMP JUMPDEST PUSH2 0x2B98 PUSH1 0x20 DUP4 ADD DUP5 PUSH2 0x2A5E JUMP JUMPDEST SWAP4 SWAP3 POP POP POP JUMP JUMPDEST PUSH0 PUSH1 0x20 DUP3 DUP5 SUB SLT ISZERO PUSH2 0x2BB4 JUMPI PUSH2 0x2BB3 PUSH2 0x27DB JUMP JUMPDEST JUMPDEST PUSH0 PUSH2 0x2BC1 DUP5 DUP3 DUP6 ADD PUSH2 0x2A0C JUMP JUMPDEST SWAP2 POP POP SWAP3 SWAP2 POP POP JUMP JUMPDEST PUSH0 PUSH12 0xFFFFFFFFFFFFFFFFFFFFFFFF DUP3 AND SWAP1 POP SWAP2 SWAP1 POP JUMP JUMPDEST PUSH2 0x2BEA DUP2 PUSH2 0x2BCA JUMP JUMPDEST DUP2 EQ PUSH2 0x2BF4 JUMPI PUSH0 DUP1 REVERT JUMPDEST POP JUMP JUMPDEST PUSH0 DUP2 CALLDATALOAD SWAP1 POP PUSH2 0x2C05 DUP2 PUSH2 0x2BE1 JUMP JUMPDEST SWAP3 SWAP2 POP POP JUMP JUMPDEST PUSH0 DUP1 PUSH1 0x40 DUP4 DUP6 SUB SLT ISZERO PUSH2 0x2C21 JUMPI PUSH2 0x2C20 PUSH2 0x27DB JUMP JUMPDEST JUMPDEST PUSH0 PUSH2 0x2C2E DUP6 DUP3 DUP7 ADD PUSH2 0x2A0C JUMP JUMPDEST SWAP3 POP POP PUSH1 0x20 PUSH2 0x2C3F DUP6 DUP3 DUP7 ADD PUSH2 0x2BF7 JUMP JUMPDEST SWAP2 POP POP SWAP3 POP SWAP3 SWAP1 POP JUMP JUMPDEST PUSH2 0x2C52 DUP2 PUSH2 0x2863 JUMP JUMPDEST DUP2 EQ PUSH2 0x2C5C JUMPI PUSH0 DUP1 REVERT JUMPDEST POP JUMP JUMPDEST PUSH0 DUP2 CALLDATALOAD SWAP1 POP PUSH2 0x2C6D DUP2 PUSH2 0x2C49 JUMP JUMPDEST SWAP3 SWAP2 POP POP JUMP JUMPDEST PUSH0 DUP1 PUSH1 0x40 DUP4 DUP6 SUB SLT ISZERO PUSH2 0x2C89 JUMPI PUSH2 0x2C88 PUSH2 0x27DB JUMP JUMPDEST JUMPDEST PUSH0 PUSH2 0x2C96 DUP6 DUP3 DUP7 ADD PUSH2 0x2A0C JUMP JUMPDEST SWAP3 POP POP PUSH1 0x20 PUSH2 0x2CA7 DUP6 DUP3 DUP7 ADD PUSH2 0x2C5F JUMP JUMPDEST SWAP2 POP POP SWAP3 POP SWAP3 SWAP1 POP JUMP JUMPDEST PUSH0 DUP1 REVERT JUMPDEST PUSH0 DUP1 REVERT JUMPDEST PUSH32 0x4E487B7100000000000000000000000000000000000000000000000000000000 PUSH0 MSTORE PUSH1 0x41 PUSH1 0x4 MSTORE PUSH1 0x24 PUSH0 REVERT JUMPDEST PUSH2 0x2CEF DUP3 PUSH2 0x28D8 JUMP JUMPDEST DUP2 ADD DUP2 DUP2 LT PUSH8 0xFFFFFFFFFFFFFFFF DUP3 GT OR ISZERO PUSH2 0x2D0E JUMPI PUSH2 0x2D0D PUSH2 0x2CB9 JUMP JUMPDEST JUMPDEST DUP1 PUSH1 0x40 MSTORE POP POP POP JUMP JUMPDEST PUSH0 PUSH2 0x2D20 PUSH2 0x27D2 JUMP JUMPDEST SWAP1 POP PUSH2 0x2D2C DUP3 DUP3 PUSH2 0x2CE6 JUMP JUMPDEST SWAP2 SWAP1 POP JUMP JUMPDEST PUSH0 PUSH8 0xFFFFFFFFFFFFFFFF DUP3 GT ISZERO PUSH2 0x2D4B JUMPI PUSH2 0x2D4A PUSH2 0x2CB9 JUMP JUMPDEST JUMPDEST PUSH2 0x2D54 DUP3 PUSH2 0x28D8 JUMP JUMPDEST SWAP1 POP PUSH1 0x20 DUP2 ADD SWAP1 POP SWAP2 SWAP1 POP JUMP JUMPDEST DUP3 DUP2 DUP4 CALLDATACOPY PUSH0 DUP4 DUP4 ADD MSTORE POP POP POP JUMP JUMPDEST PUSH0 PUSH2 0x2D81 PUSH2 0x2D7C DUP5 PUSH2 0x2D31 JUMP JUMPDEST PUSH2 0x2D17 JUMP JUMPDEST SWAP1 POP DUP3 DUP2 MSTORE PUSH1 0x20 DUP2 ADD DUP5 DUP5 DUP5 ADD GT ISZERO PUSH2 0x2D9D JUMPI PUSH2 0x2D9C PUSH2 0x2CB5 JUMP JUMPDEST JUMPDEST PUSH2 0x2DA8 DUP5 DUP3 DUP6 PUSH2 0x2D61 JUMP JUMPDEST POP SWAP4 SWAP3 POP POP POP JUMP JUMPDEST PUSH0 DUP3 PUSH1 0x1F DUP4 ADD SLT PUSH2 0x2DC4 JUMPI PUSH2 0x2DC3 PUSH2 0x2CB1 JUMP JUMPDEST JUMPDEST DUP2 CALLDATALOAD PUSH2 0x2DD4 DUP5 DUP3 PUSH1 0x20 DUP7 ADD PUSH2 0x2D6F JUMP JUMPDEST SWAP2 POP POP SWAP3 SWAP2 POP POP JUMP JUMPDEST PUSH0 DUP1 PUSH0 DUP1 PUSH1 0x80 DUP6 DUP8 SUB SLT ISZERO PUSH2 0x2DF5 JUMPI PUSH2 0x2DF4 PUSH2 0x27DB JUMP JUMPDEST JUMPDEST PUSH0 PUSH2 0x2E02 DUP8 DUP3 DUP9 ADD PUSH2 0x2A0C JUMP JUMPDEST SWAP5 POP POP PUSH1 0x20 PUSH2 0x2E13 DUP8 DUP3 DUP9 ADD PUSH2 0x2A0C JUMP JUMPDEST SWAP4 POP POP PUSH1 0x40 PUSH2 0x2E24 DUP8 DUP3 DUP9 ADD PUSH2 0x295F JUMP JUMPDEST SWAP3 POP POP PUSH1 0x60 DUP6 ADD CALLDATALOAD PUSH8 0xFFFFFFFFFFFFFFFF DUP2 GT ISZERO PUSH2 0x2E45 JUMPI PUSH2 0x2E44 PUSH2 0x27DF JUMP JUMPDEST JUMPDEST PUSH2 0x2E51 DUP8 DUP3 DUP9 ADD PUSH2 0x2DB0 JUMP JUMPDEST SWAP2 POP POP SWAP3 SWAP6 SWAP2 SWAP5 POP SWAP3 POP JUMP JUMPDEST PUSH0 PUSH8 0xFFFFFFFFFFFFFFFF DUP3 GT ISZERO PUSH2 0x2E77 JUMPI PUSH2 0x2E76 PUSH2 0x2CB9 JUMP JUMPDEST JUMPDEST PUSH2 0x2E80 DUP3 PUSH2 0x28D8 JUMP JUMPDEST SWAP1 POP PUSH1 0x20 DUP2 ADD SWAP1 POP SWAP2 SWAP1 POP JUMP JUMPDEST PUSH0 PUSH2 0x2E9F PUSH2 0x2E9A DUP5 PUSH2 0x2E5D JUMP JUMPDEST PUSH2 0x2D17 JUMP JUMPDEST SWAP1 POP DUP3 DUP2 MSTORE PUSH1 0x20 DUP2 ADD DUP5 DUP5 DUP5 ADD GT ISZERO PUSH2 0x2EBB JUMPI PUSH2 0x2EBA PUSH2 0x2CB5 JUMP JUMPDEST JUMPDEST PUSH2 0x2EC6 DUP5 DUP3 DUP6 PUSH2 0x2D61 JUMP JUMPDEST POP SWAP4 SWAP3 POP POP POP JUMP JUMPDEST PUSH0 DUP3 PUSH1 0x1F DUP4 ADD SLT PUSH2 0x2EE2 JUMPI PUSH2 0x2EE1 PUSH2 0x2CB1 JUMP JUMPDEST JUMPDEST DUP2 CALLDATALOAD PUSH2 0x2EF2 DUP5 DUP3 PUSH1 0x20 DUP7 ADD PUSH2 0x2E8D JUMP JUMPDEST SWAP2 POP POP SWAP3 SWAP2 POP POP JUMP JUMPDEST PUSH0 DUP1 PUSH0 PUSH1 0x60 DUP5 DUP7 SUB SLT ISZERO PUSH2 0x2F12 JUMPI PUSH2 0x2F11 PUSH2 0x27DB JUMP JUMPDEST JUMPDEST PUSH0 PUSH2 0x2F1F DUP7 DUP3 DUP8 ADD PUSH2 0x2A0C JUMP JUMPDEST SWAP4 POP POP PUSH1 0x20 PUSH2 0x2F30 DUP7 DUP3 DUP8 ADD PUSH2 0x295F JUMP JUMPDEST SWAP3 POP POP PUSH1 0x40 DUP5 ADD CALLDATALOAD PUSH8 0xFFFFFFFFFFFFFFFF DUP2 GT ISZERO PUSH2 0x2F51 JUMPI PUSH2 0x2F50 PUSH2 0x27DF JUMP JUMPDEST JUMPDEST PUSH2 0x2F5D DUP7 DUP3 DUP8 ADD PUSH2 0x2ECE JUMP JUMPDEST SWAP2 POP POP SWAP3 POP SWAP3 POP SWAP3 JUMP JUMPDEST PUSH0 DUP1 PUSH1 0x40 DUP4 DUP6 SUB SLT ISZERO PUSH2 0x2F7D JUMPI PUSH2 0x2F7C PUSH2 0x27DB JUMP JUMPDEST JUMPDEST PUSH0 PUSH2 0x2F8A DUP6 DUP3 DUP7 ADD PUSH2 0x2A0C JUMP JUMPDEST SWAP3 POP POP PUSH1 0x20 PUSH2 0x2F9B DUP6 DUP3 DUP7 ADD PUSH2 0x2A0C JUMP JUMPDEST SWAP2 POP POP SWAP3 POP SWAP3 SWAP1 POP JUMP JUMPDEST PUSH32 0x4E487B7100000000000000000000000000000000000000000000000000000000 PUSH0 MSTORE PUSH1 0x22 PUSH1 0x4 MSTORE PUSH1 0x24 PUSH0 REVERT JUMPDEST PUSH0 PUSH1 0x2 DUP3 DIV SWAP1 POP PUSH1 0x1 DUP3 AND DUP1 PUSH2 0x2FE9 JUMPI PUSH1 0x7F DUP3 AND SWAP2 POP JUMPDEST PUSH1 0x20 DUP3 LT DUP2 SUB PUSH2 0x2FFC JUMPI PUSH2 0x2FFB PUSH2 0x2FA5 JUMP JUMPDEST JUMPDEST POP SWAP2 SWAP1 POP JUMP JUMPDEST PUSH32 0x6E6F7420616C6C6F776564000000000000000000000000000000000000000000 PUSH0 DUP3 ADD MSTORE POP JUMP JUMPDEST PUSH0 PUSH2 0x3036 PUSH1 0xB DUP4 PUSH2 0x28A0 JUMP JUMPDEST SWAP2 POP PUSH2 0x3041 DUP3 PUSH2 0x3002 JUMP JUMPDEST PUSH1 0x20 DUP3 ADD SWAP1 POP SWAP2 SWAP1 POP JUMP JUMPDEST PUSH0 PUSH1 0x20 DUP3 ADD SWAP1 POP DUP2 DUP2 SUB PUSH0 DUP4 ADD MSTORE PUSH2 0x3063 DUP2 PUSH2 0x302A JUMP JUMPDEST SWAP1 POP SWAP2 SWAP1 POP JUMP JUMPDEST PUSH32 0x4E487B7100000000000000000000000000000000000000000000000000000000 PUSH0 MSTORE PUSH1 0x11 PUSH1 0x4 MSTORE PUSH1 0x24 PUSH0 REVERT JUMPDEST PUSH0 PUSH2 0x30A1 DUP3 PUSH2 0x2940 JUMP JUMPDEST SWAP2 POP PUSH2 0x30AC DUP4 PUSH2 0x2940 JUMP JUMPDEST SWAP3 POP DUP3 DUP3 SUB SWAP1 POP DUP2 DUP2 GT ISZERO PUSH2 0x30C4 JUMPI PUSH2 0x30C3 PUSH2 0x306A JUMP JUMPDEST JUMPDEST SWAP3 SWAP2 POP POP JUMP JUMPDEST PUSH0 PUSH1 0x60 DUP3 ADD SWAP1 POP PUSH2 0x30DD PUSH0 DUP4 ADD DUP7 PUSH2 0x29CE JUMP JUMPDEST PUSH2 0x30EA PUSH1 0x20 DUP4 ADD DUP6 PUSH2 0x2A5E JUMP JUMPDEST PUSH2 0x30F7 PUSH1 0x40 DUP4 ADD DUP5 PUSH2 0x29CE JUMP JUMPDEST SWAP5 SWAP4 POP POP POP POP JUMP JUMPDEST PUSH0 PUSH2 0x3109 DUP3 PUSH2 0x2940 JUMP JUMPDEST SWAP2 POP PUSH2 0x3114 DUP4 PUSH2 0x2940 JUMP JUMPDEST SWAP3 POP DUP3 DUP3 MUL PUSH2 0x3122 DUP2 PUSH2 0x2940 JUMP JUMPDEST SWAP2 POP DUP3 DUP3 DIV DUP5 EQ DUP4 ISZERO OR PUSH2 0x3139 JUMPI PUSH2 0x3138 PUSH2 0x306A JUMP JUMPDEST JUMPDEST POP SWAP3 SWAP2 POP POP JUMP JUMPDEST PUSH32 0x4E487B7100000000000000000000000000000000000000000000000000000000 PUSH0 MSTORE PUSH1 0x12 PUSH1 0x4 MSTORE PUSH1 0x24 PUSH0 REVERT JUMPDEST PUSH0 PUSH2 0x3177 DUP3 PUSH2 0x2940 JUMP JUMPDEST SWAP2 POP PUSH2 0x3182 DUP4 PUSH2 0x2940 JUMP JUMPDEST SWAP3 POP DUP3 PUSH2 0x3192 JUMPI PUSH2 0x3191 PUSH2 0x3140 JUMP JUMPDEST JUMPDEST DUP3 DUP3 DIV SWAP1 POP SWAP3 SWAP2 POP POP JUMP JUMPDEST PUSH0 PUSH2 0x31A7 DUP3 PUSH2 0x2940 JUMP JUMPDEST SWAP2 POP PUSH2 0x31B2 DUP4 PUSH2 0x2940 JUMP JUMPDEST SWAP3 POP DUP3 DUP3 ADD SWAP1 POP DUP1 DUP3 GT ISZERO PUSH2 0x31CA JUMPI PUSH2 0x31C9 PUSH2 0x306A JUMP JUMPDEST JUMPDEST SWAP3 SWAP2 POP POP JUMP JUMPDEST PUSH0 DUP2 SWAP1 POP SWAP2 SWAP1 POP JUMP JUMPDEST PUSH0 PUSH2 0x31F3 PUSH2 0x31EE PUSH2 0x31E9 DUP5 PUSH2 0x2BCA JUMP JUMPDEST PUSH2 0x31D0 JUMP JUMPDEST PUSH2 0x2940 JUMP JUMPDEST SWAP1 POP SWAP2 SWAP1 POP JUMP JUMPDEST PUSH2 0x3203 DUP2 PUSH2 0x31D9 JUMP JUMPDEST DUP3 MSTORE POP POP JUMP JUMPDEST PUSH0 PUSH1 0x40 DUP3 ADD SWAP1 POP PUSH2 0x321C PUSH0 DUP4 ADD DUP6 PUSH2 0x31FA JUMP JUMPDEST PUSH2 0x3229 PUSH1 0x20 DUP4 ADD DUP5 PUSH2 0x2A5E JUMP JUMPDEST SWAP4 SWAP3 POP POP POP JUMP JUMPDEST PUSH0 DUP2 MLOAD SWAP1 POP SWAP2 SWAP1 POP JUMP JUMPDEST PUSH0 DUP3 DUP3 MSTORE PUSH1 0x20 DUP3 ADD SWAP1 POP SWAP3 SWAP2 POP POP JUMP JUMPDEST PUSH0 PUSH2 0x3254 DUP3 PUSH2 0x3230 JUMP JUMPDEST PUSH2 0x325E DUP2 DUP6 PUSH2 0x323A JUMP JUMPDEST SWAP4 POP PUSH2 0x326E DUP2 DUP6 PUSH1 0x20 DUP7 ADD PUSH2 0x28B0 JUMP JUMPDEST PUSH2 0x3277 DUP2 PUSH2 0x28D8 JUMP JUMPDEST DUP5 ADD SWAP2 POP POP SWAP3 SWAP2 POP POP JUMP JUMPDEST PUSH0 PUSH1 0x80 DUP3 ADD SWAP1 POP PUSH2 0x3295 PUSH0 DUP4 ADD DUP8 PUSH2 0x29CE JUMP JUMPDEST PUSH2 0x32A2 PUSH1 0x20 DUP4 ADD DUP7 PUSH2 0x29CE JUMP JUMPDEST PUSH2 0x32AF PUSH1 0x40 DUP4 ADD DUP6 PUSH2 0x2A5E JUMP JUMPDEST DUP2 DUP2 SUB PUSH1 0x60 DUP4 ADD MSTORE PUSH2 0x32C1 DUP2 DUP5 PUSH2 0x324A JUMP JUMPDEST SWAP1 POP SWAP6 SWAP5 POP POP POP POP POP JUMP JUMPDEST PUSH0 DUP2 MLOAD SWAP1 POP PUSH2 0x32DA DUP2 PUSH2 0x280E JUMP JUMPDEST SWAP3 SWAP2 POP POP JUMP JUMPDEST PUSH0 PUSH1 0x20 DUP3 DUP5 SUB SLT ISZERO PUSH2 0x32F5 JUMPI PUSH2 0x32F4 PUSH2 0x27DB JUMP JUMPDEST JUMPDEST PUSH0 PUSH2 0x3302 DUP5 DUP3 DUP6 ADD PUSH2 0x32CC JUMP JUMPDEST SWAP2 POP POP SWAP3 SWAP2 POP POP JUMP JUMPDEST PUSH0 DUP2 SWAP1 POP SWAP3 SWAP2 POP POP JUMP JUMPDEST PUSH0 PUSH2 0x331F DUP3 PUSH2 0x2896 JUMP JUMPDEST PUSH2 0x3329 DUP2 DUP6 PUSH2 0x330B JUMP JUMPDEST SWAP4 POP PUSH2 0x3339 DUP2 DUP6 PUSH1 0x20 DUP7 ADD PUSH2 0x28B0 JUMP JUMPDEST DUP1 DUP5 ADD SWAP2 POP POP SWAP3 SWAP2 POP POP JUMP JUMPDEST PUSH0 PUSH2 0x3350 DUP3 DUP6 PUSH2 0x3315 JUMP JUMPDEST SWAP2 POP PUSH2 0x335C DUP3 DUP5 PUSH2 0x3315 JUMP JUMPDEST SWAP2 POP DUP2 SWAP1 POP SWAP4 SWAP3 POP POP POP JUMP JUMPDEST PUSH0 DUP2 SWAP1 POP DUP2 PUSH0 MSTORE PUSH1 0x20 PUSH0 KECCAK256 SWAP1 POP SWAP2 SWAP1 POP JUMP JUMPDEST PUSH0 PUSH1 0x20 PUSH1 0x1F DUP4 ADD DIV SWAP1 POP SWAP2 SWAP1 POP JUMP JUMPDEST PUSH0 DUP3 DUP3 SHL SWAP1 POP SWAP3 SWAP2 POP POP JUMP JUMPDEST PUSH0 PUSH1 0x8 DUP4 MUL PUSH2 0x33C4 PUSH32 0xFFFFFFFFFFFFFFFFFFFFFFFFFFFFFFFFFFFFFFFFFFFFFFFFFFFFFFFFFFFFFFFF DUP3 PUSH2 0x3389 JUMP JUMPDEST PUSH2 0x33CE DUP7 DUP4 PUSH2 0x3389 JUMP JUMPDEST SWAP6 POP DUP1 NOT DUP5 AND SWAP4 POP DUP1 DUP7 AND DUP5 OR SWAP3 POP POP POP SWAP4 SWAP3 POP POP POP JUMP JUMPDEST PUSH0 PUSH2 0x3400 PUSH2 0x33FB PUSH2 0x33F6 DUP5 PUSH2 0x2940 JUMP JUMPDEST PUSH2 0x31D0 JUMP JUMPDEST PUSH2 0x2940 JUMP JUMPDEST SWAP1 POP SWAP2 SWAP1 POP JUMP JUMPDEST PUSH0 DUP2 SWAP1 POP SWAP2 SWAP1 POP JUMP JUMPDEST PUSH2 0x3419 DUP4 PUSH2 0x33E6 JUMP JUMPDEST PUSH2 0x342D PUSH2 0x3425 DUP3 PUSH2 0x3407 JUMP JUMPDEST DUP5 DUP5 SLOAD PUSH2 0x3395 JUMP JUMPDEST DUP3 SSTORE POP POP POP POP JUMP JUMPDEST PUSH0 SWAP1 JUMP JUMPDEST PUSH2 0x3441 PUSH2 0x3435 JUMP JUMPDEST PUSH2 0x344C DUP2 DUP5 DUP5 PUSH2 0x3410 JUMP JUMPDEST POP POP POP JUMP JUMPDEST JUMPDEST DUP2 DUP2 LT ISZERO PUSH2 0x346F JUMPI PUSH2 0x3464 PUSH0 DUP3 PUSH2 0x3439 JUMP JUMPDEST PUSH1 0x1 DUP2 ADD SWAP1 POP PUSH2 0x3452 JUMP JUMPDEST POP POP JUMP JUMPDEST PUSH1 0x1F DUP3 GT ISZERO PUSH2 0x34B4 JUMPI PUSH2 0x3485 DUP2 PUSH2 0x3368 JUMP JUMPDEST PUSH2 0x348E DUP5 PUSH2 0x337A JUMP JUMPDEST DUP2 ADD PUSH1 0x20 DUP6 LT ISZERO PUSH2 0x349D JUMPI DUP2 SWAP1 POP JUMPDEST PUSH2 0x34B1 PUSH2 0x34A9 DUP6 PUSH2 0x337A JUMP JUMPDEST DUP4 ADD DUP3 PUSH2 0x3451 JUMP JUMPDEST POP POP JUMPDEST POP POP POP JUMP JUMPDEST PUSH0 DUP3 DUP3 SHR SWAP1 POP SWAP3 SWAP2 POP POP JUMP JUMPDEST PUSH0 PUSH2 0x34D4 PUSH0 NOT DUP5 PUSH1 0x8 MUL PUSH2 0x34B9 JUMP JUMPDEST NOT DUP1 DUP4 AND SWAP2 POP POP SWAP3 SWAP2 POP POP JUMP JUMPDEST PUSH0 PUSH2 0x34EC DUP4 DUP4 PUSH2 0x34C5 JUMP JUMPDEST SWAP2 POP DUP3 PUSH1 0x2 MUL DUP3 OR SWAP1 POP SWAP3 SWAP2 POP POP JUMP JUMPDEST PUSH2 0x3505 DUP3 PUSH2 0x2896 JUMP JUMPDEST PUSH8 0xFFFFFFFFFFFFFFFF DUP2 GT ISZERO PUSH2 0x351E JUMPI PUSH2 0x351D PUSH2 0x2CB9 JUMP JUMPDEST JUMPDEST PUSH2 0x3528 DUP3 SLOAD PUSH2 0x2FD2 JUMP JUMPDEST PUSH2 0x3533 DUP3 DUP3 DUP6 PUSH2 0x3473 JUMP JUMPDEST PUSH0 PUSH1 0x20 SWAP1 POP PUSH1 0x1F DUP4 GT PUSH1 0x1 DUP2 EQ PUSH2 0x3564 JUMPI PUSH0 DUP5 ISZERO PUSH2 0x3552 JUMPI DUP3 DUP8 ADD MLOAD SWAP1 POP JUMPDEST PUSH2 0x355C DUP6 DUP3 PUSH2 0x34E1 JUMP JUMPDEST DUP7 SSTORE POP PUSH2 0x35C3 JUMP JUMPDEST PUSH1 0x1F NOT DUP5 AND PUSH2 0x3572 DUP7 PUSH2 0x3368 JUMP JUMPDEST PUSH0 JUMPDEST DUP3 DUP2 LT ISZERO PUSH2 0x3599 JUMPI DUP5 DUP10 ADD MLOAD DUP3 SSTORE PUSH1 0x1 DUP3 ADD SWAP2 POP PUSH1 0x20 DUP6 ADD SWAP5 POP PUSH1 0x20 DUP2 ADD SWAP1 POP PUSH2 0x3574 JUMP JUMPDEST DUP7 DUP4 LT ISZERO PUSH2 0x35B6 JUMPI DUP5 DUP10 ADD MLOAD PUSH2 0x35B2 PUSH1 0x1F DUP10 AND DUP3 PUSH2 0x34C5 JUMP JUMPDEST DUP4 SSTORE POP JUMPDEST PUSH1 0x1 PUSH1 0x2 DUP9 MUL ADD DUP9 SSTORE POP POP POP JUMPDEST POP POP POP POP POP POP JUMP JUMPDEST PUSH0 PUSH1 0x60 DUP3 ADD SWAP1 POP PUSH2 0x35DE PUSH0 DUP4 ADD DUP7 PUSH2 0x2A5E JUMP JUMPDEST PUSH2 0x35EB PUSH1 0x20 DUP4 ADD DUP6 PUSH2 0x31FA JUMP JUMPDEST PUSH2 0x35F8 PUSH1 0x40 DUP4 ADD DUP5 PUSH2 0x2A5E JUMP JUMPDEST SWAP5 SWAP4 POP POP POP POP JUMP JUMPDEST PUSH0 PUSH1 0x40 DUP3 ADD SWAP1 POP PUSH2 0x3613 PUSH0 DUP4 ADD DUP6 PUSH2 0x2A5E JUMP JUMPDEST PUSH2 0x3620 PUSH1 0x20 DUP4 ADD DUP5 PUSH2 0x29CE JUMP JUMPDEST SWAP4 SWAP3 POP POP POP JUMP INVALID PUSH10 0x7066733A2F2F62616679 PUSH3 0x656964 PUSH13 0x37637079636A69717A61367275 PUSH5 0x677A6C3471 CALLDATALOAD PUSH13 0x6C3678376E6670716C6C357165 PUSH18 0x7736746F7169756563776732686A65A26469 PUSH17 0x6673582212205C1D8243A6087F836A28AA SLT 0xC8 DUP1 0xD4 SHL 0x24 0xE0 PUSH25 0xAFE73FF8C177B8F8010BEA888D64736F6C6343000814003300 "
		},
		"gasEstimates": {
			"creation": {
				"codeDepositCost": "3265000",
				"executionCost": "infinite",
				"totalCost": "infinite"
			},
			"external": {
				"accruedSales(address)": "2848",
				"bindBonusAllocation(uint256)": "infinite",
				"bonusAllocations(address)": "2847",
				"claimRaffleWin(uint256)": "infinite",
				"currentRoundMints()": "2470",
				"getCurrentPrice()": "2521",
				"getCurrentRound()": "2563",
				"getNextPrice()": "infinite",
				"getReferalEarnings(address)": "3035",
				"getRoundPool(uint16)": "infinite",
				"getRoundWinnerIds(uint16)": "infinite",
				"getUserData(address)": "infinite",
				"getUserMints(address)": "infinite",
				"getUserReferals(address,uint256)": "infinite",
				"hasMinted(address)": "3005",
				"isWhitelisted(address)": "2988",
				"mint(address)": "infinite",
				"mintStarted()": "2533",
				"nftContractAddress()": "2655",
				"onERC721Received(address,address,uint256,bytes)": "infinite",
				"owner()": "2561",
				"renounceOwnership()": "infinite",
				"setMintStatus(bool)": "infinite",
				"setWhitelist(address,bool)": "infinite",
				"supplyLeft()": "infinite",
				"totalMinted()": "infinite",
				"transferOwnership(address)": "infinite",
				"transferOwnershipNFT(address)": "infinite",
				"withdrawNFT(address,uint256)": "infinite",
				"withdrawReferalEarnings(uint256)": "infinite",
				"withdrawSales(uint256,address)": "infinite"
			},
			"internal": {
				"_addRoundPool(uint16,uint256)": "infinite",
				"_calculateUri(uint256)": "infinite",
				"_distribute(uint16,uint256,uint256[] memory)": "infinite",
				"_pushParticipant(uint16,uint256)": "infinite",
				"_selectWinnersAndDistribute(uint16,uint256)": "infinite",
				"_toString(uint256)": "infinite",
				"getRandomNumber()": "infinite"
			}
		},
		"methodIdentifiers": {
			"accruedSales(address)": "23b7ed8b",
			"bindBonusAllocation(uint256)": "5d5e6bf6",
			"bonusAllocations(address)": "da04e721",
			"claimRaffleWin(uint256)": "ec72577c",
			"currentRoundMints()": "a6efe5f4",
			"getCurrentPrice()": "eb91d37e",
			"getCurrentRound()": "a32bf597",
			"getNextPrice()": "681ce98a",
			"getReferalEarnings(address)": "679f3ee1",
			"getRoundPool(uint16)": "6baf226c",
			"getRoundWinnerIds(uint16)": "106ac31a",
			"getUserData(address)": "ffc9896b",
			"getUserMints(address)": "ffb75cab",
			"getUserReferals(address,uint256)": "a345908f",
			"hasMinted(address)": "38e21cce",
			"isWhitelisted(address)": "3af32abf",
			"mint(address)": "6a627842",
			"mintStarted()": "a9722cf3",
			"nftContractAddress()": "aae282e1",
			"onERC721Received(address,address,uint256,bytes)": "150b7a02",
			"owner()": "8da5cb5b",
			"renounceOwnership()": "715018a6",
			"setMintStatus(bool)": "1f85e3ca",
			"setWhitelist(address,bool)": "53d6fd59",
			"supplyLeft()": "fdcf9d07",
			"totalMinted()": "a2309ff8",
			"transferOwnership(address)": "f2fde38b",
			"transferOwnershipNFT(address)": "2724d591",
			"withdrawNFT(address,uint256)": "6088e93a",
			"withdrawReferalEarnings(uint256)": "d8c48418",
			"withdrawSales(uint256,address)": "e6c3e327"
		}
	},
	"abi": [
		{
			"inputs": [],
			"stateMutability": "nonpayable",
			"type": "constructor"
		},
		{
			"inputs": [
				{
					"internalType": "address",
					"name": "owner",
					"type": "address"
				}
			],
			"name": "OwnableInvalidOwner",
			"type": "error"
		},
		{
			"inputs": [
				{
					"internalType": "address",
					"name": "account",
					"type": "address"
				}
			],
			"name": "OwnableUnauthorizedAccount",
			"type": "error"
		},
		{
			"anonymous": false,
			"inputs": [
				{
					"indexed": false,
					"internalType": "address",
					"name": "operator",
					"type": "address"
				},
				{
					"indexed": false,
					"internalType": "address",
					"name": "from",
					"type": "address"
				},
				{
					"indexed": false,
					"internalType": "uint256",
					"name": "tokenId",
					"type": "uint256"
				},
				{
					"indexed": false,
					"internalType": "uint256",
					"name": "timeStamp",
					"type": "uint256"
				},
				{
					"indexed": false,
					"internalType": "bytes",
					"name": "data",
					"type": "bytes"
				}
			],
			"name": "NFTRecieved",
			"type": "event"
		},
		{
			"anonymous": false,
			"inputs": [
				{
					"indexed": true,
					"internalType": "address",
					"name": "previousOwner",
					"type": "address"
				},
				{
					"indexed": true,
					"internalType": "address",
					"name": "newOwner",
					"type": "address"
				}
			],
			"name": "OwnershipTransferred",
			"type": "event"
		},
		{
			"inputs": [
				{
					"internalType": "address",
					"name": "",
					"type": "address"
				}
			],
			"name": "accruedSales",
			"outputs": [
				{
					"internalType": "uint256",
					"name": "",
					"type": "uint256"
				}
			],
			"stateMutability": "view",
			"type": "function"
		},
		{
			"inputs": [
				{
					"internalType": "uint256",
					"name": "toId",
					"type": "uint256"
				}
			],
			"name": "bindBonusAllocation",
			"outputs": [],
			"stateMutability": "nonpayable",
			"type": "function"
		},
		{
			"inputs": [
				{
					"internalType": "address",
					"name": "",
					"type": "address"
				}
			],
			"name": "bonusAllocations",
			"outputs": [
				{
					"internalType": "uint256",
					"name": "",
					"type": "uint256"
				}
			],
			"stateMutability": "view",
			"type": "function"
		},
		{
			"inputs": [
				{
					"internalType": "uint256",
					"name": "id",
					"type": "uint256"
				}
			],
			"name": "claimRaffleWin",
			"outputs": [],
			"stateMutability": "nonpayable",
			"type": "function"
		},
		{
			"inputs": [],
			"name": "currentRoundMints",
			"outputs": [
				{
					"internalType": "uint256",
					"name": "",
					"type": "uint256"
				}
			],
			"stateMutability": "view",
			"type": "function"
		},
		{
			"inputs": [],
			"name": "getCurrentPrice",
			"outputs": [
				{
					"internalType": "uint256",
					"name": "price",
					"type": "uint256"
				}
			],
			"stateMutability": "view",
			"type": "function"
		},
		{
			"inputs": [],
			"name": "getCurrentRound",
			"outputs": [
				{
					"internalType": "uint16",
					"name": "",
					"type": "uint16"
				}
			],
			"stateMutability": "view",
			"type": "function"
		},
		{
			"inputs": [],
			"name": "getNextPrice",
			"outputs": [
				{
					"internalType": "uint256",
					"name": "price",
					"type": "uint256"
				}
			],
			"stateMutability": "view",
			"type": "function"
		},
		{
			"inputs": [
				{
					"internalType": "address",
					"name": "user",
					"type": "address"
				}
			],
			"name": "getReferalEarnings",
			"outputs": [
				{
					"internalType": "uint256",
					"name": "",
					"type": "uint256"
				}
			],
			"stateMutability": "view",
			"type": "function"
		},
		{
			"inputs": [
				{
					"internalType": "uint16",
					"name": "round",
					"type": "uint16"
				}
			],
			"name": "getRoundPool",
			"outputs": [
				{
					"internalType": "uint256",
					"name": "",
					"type": "uint256"
				},
				{
					"internalType": "uint256",
					"name": "",
					"type": "uint256"
				}
			],
			"stateMutability": "view",
			"type": "function"
		},
		{
			"inputs": [
				{
					"internalType": "uint16",
					"name": "round",
					"type": "uint16"
				}
			],
			"name": "getRoundWinnerIds",
			"outputs": [
				{
					"internalType": "uint256[]",
					"name": "",
					"type": "uint256[]"
				}
			],
			"stateMutability": "view",
			"type": "function"
		},
		{
			"inputs": [
				{
					"internalType": "address",
					"name": "user",
					"type": "address"
				}
			],
			"name": "getUserData",
			"outputs": [
				{
					"components": [
						{
							"internalType": "uint256",
							"name": "totalReferals",
							"type": "uint256"
						},
						{
							"internalType": "uint8",
							"name": "mintCount",
							"type": "uint8"
						},
						{
							"components": [
								{
									"internalType": "uint256",
									"name": "Id",
									"type": "uint256"
								},
								{
									"internalType": "uint16",
									"name": "MintedRound",
									"type": "uint16"
								},
								{
									"internalType": "uint256",
									"name": "PriceCost",
									"type": "uint256"
								}
							],
							"internalType": "struct LBOB.Mint[]",
							"name": "mints",
							"type": "tuple[]"
						}
					],
					"internalType": "struct LBOB.User",
					"name": "",
					"type": "tuple"
				}
			],
			"stateMutability": "view",
			"type": "function"
		},
		{
			"inputs": [
				{
					"internalType": "address",
					"name": "user",
					"type": "address"
				}
			],
			"name": "getUserMints",
			"outputs": [
				{
					"components": [
						{
							"internalType": "uint256",
							"name": "Id",
							"type": "uint256"
						},
						{
							"internalType": "uint16",
							"name": "MintedRound",
							"type": "uint16"
						},
						{
							"internalType": "uint256",
							"name": "PriceCost",
							"type": "uint256"
						}
					],
					"internalType": "struct LBOB.Mint[]",
					"name": "",
					"type": "tuple[]"
				}
			],
			"stateMutability": "view",
			"type": "function"
		},
		{
			"inputs": [
				{
					"internalType": "address",
					"name": "user",
					"type": "address"
				},
				{
					"internalType": "uint256",
					"name": "refNonce",
					"type": "uint256"
				}
			],
			"name": "getUserReferals",
			"outputs": [
				{
					"internalType": "address",
					"name": "",
					"type": "address"
				}
			],
			"stateMutability": "view",
			"type": "function"
		},
		{
			"inputs": [
				{
					"internalType": "address",
					"name": "user",
					"type": "address"
				}
			],
			"name": "hasMinted",
			"outputs": [
				{
					"internalType": "bool",
					"name": "",
					"type": "bool"
				}
			],
			"stateMutability": "view",
			"type": "function"
		},
		{
			"inputs": [
				{
					"internalType": "address",
					"name": "user",
					"type": "address"
				}
			],
			"name": "isWhitelisted",
			"outputs": [
				{
					"internalType": "bool",
					"name": "",
					"type": "bool"
				}
			],
			"stateMutability": "view",
			"type": "function"
		},
		{
			"inputs": [
				{
					"internalType": "address",
					"name": "ref",
					"type": "address"
				}
			],
			"name": "mint",
			"outputs": [],
			"stateMutability": "payable",
			"type": "function"
		},
		{
			"inputs": [],
			"name": "mintStarted",
			"outputs": [
				{
					"internalType": "bool",
					"name": "",
					"type": "bool"
				}
			],
			"stateMutability": "view",
			"type": "function"
		},
		{
			"inputs": [],
			"name": "nftContractAddress",
			"outputs": [
				{
					"internalType": "address",
					"name": "_contract",
					"type": "address"
				}
			],
			"stateMutability": "view",
			"type": "function"
		},
		{
			"inputs": [
				{
					"internalType": "address",
					"name": "operator",
					"type": "address"
				},
				{
					"internalType": "address",
					"name": "from",
					"type": "address"
				},
				{
					"internalType": "uint256",
					"name": "tokenId",
					"type": "uint256"
				},
				{
					"internalType": "bytes",
					"name": "data",
					"type": "bytes"
				}
			],
			"name": "onERC721Received",
			"outputs": [
				{
					"internalType": "bytes4",
					"name": "",
					"type": "bytes4"
				}
			],
			"stateMutability": "nonpayable",
			"type": "function"
		},
		{
			"inputs": [],
			"name": "owner",
			"outputs": [
				{
					"internalType": "address",
					"name": "",
					"type": "address"
				}
			],
			"stateMutability": "view",
			"type": "function"
		},
		{
			"inputs": [],
			"name": "renounceOwnership",
			"outputs": [],
			"stateMutability": "nonpayable",
			"type": "function"
		},
		{
			"inputs": [
				{
					"internalType": "bool",
					"name": "state",
					"type": "bool"
				}
			],
			"name": "setMintStatus",
			"outputs": [],
			"stateMutability": "nonpayable",
			"type": "function"
		},
		{
			"inputs": [
				{
					"internalType": "address",
					"name": "For",
					"type": "address"
				},
				{
					"internalType": "bool",
					"name": "stat",
					"type": "bool"
				}
			],
			"name": "setWhitelist",
			"outputs": [],
			"stateMutability": "nonpayable",
			"type": "function"
		},
		{
			"inputs": [],
			"name": "supplyLeft",
			"outputs": [
				{
					"internalType": "uint256",
					"name": "",
					"type": "uint256"
				}
			],
			"stateMutability": "view",
			"type": "function"
		},
		{
			"inputs": [],
			"name": "totalMinted",
			"outputs": [
				{
					"internalType": "uint256",
					"name": "",
					"type": "uint256"
				}
			],
			"stateMutability": "view",
			"type": "function"
		},
		{
			"inputs": [
				{
					"internalType": "address",
					"name": "newOwner",
					"type": "address"
				}
			],
			"name": "transferOwnership",
			"outputs": [],
			"stateMutability": "nonpayable",
			"type": "function"
		},
		{
			"inputs": [
				{
					"internalType": "address",
					"name": "to",
					"type": "address"
				}
			],
			"name": "transferOwnershipNFT",
			"outputs": [],
			"stateMutability": "nonpayable",
			"type": "function"
		},
		{
			"inputs": [
				{
					"internalType": "address",
					"name": "Token",
					"type": "address"
				},
				{
					"internalType": "uint256",
					"name": "Id",
					"type": "uint256"
				}
			],
			"name": "withdrawNFT",
			"outputs": [],
			"stateMutability": "nonpayable",
			"type": "function"
		},
		{
			"inputs": [
				{
					"internalType": "uint256",
					"name": "amount",
					"type": "uint256"
				}
			],
			"name": "withdrawReferalEarnings",
			"outputs": [
				{
					"internalType": "bool",
					"name": "",
					"type": "bool"
				}
			],
			"stateMutability": "nonpayable",
			"type": "function"
		},
		{
			"inputs": [
				{
					"internalType": "uint256",
					"name": "amount",
					"type": "uint256"
				},
				{
					"internalType": "address",
					"name": "to",
					"type": "address"
				}
			],
			"name": "withdrawSales",
			"outputs": [
				{
					"internalType": "bool",
					"name": "",
					"type": "bool"
				}
			],
			"stateMutability": "nonpayable",
			"type": "function"
		},
		{
			"stateMutability": "payable",
			"type": "receive"
		}
	]
}